:020000040800F2
:1000000038090020450100084D110008610F000863
:100010004911000895070008F723000800000000B8
:10002000000000000000000000000000D9180008D7
:10003000B10C00080000000041140008991A0008E3
:100040005F0100085F0100085F0100085F01000810
:100050005F0100085F0100085F0100085F01000800
:100060005F0100085F0100085F0100085F010008F0
:100070005F0100085F0100085F0100085F010008E0
:100080005F0100085F0100085F0100085F010008D0
:100090005F0100085F0100085F0100085F010008C0
:1000A0005F0100085F0100085F0100085F010008B0
:1000B000411D00085F0100085F0100085F010008A2
:1000C0005F0100085F0100085F0100085F01000890
:1000D0005F0100085D2100085F0100085F01000862
:1000E0005F0100085F0100085F0100085F01000870
:1000F0005F0100085F0100085F0100085F01000860
:100100005F0100085F010008A91D00085F010008E9
:100110005F0100085F0100085F0100085F0100083F
:100120005F0100085F0100085F0100085F0100082F
:10013000DFF80CD000F00CFB00480047292D000828
:10014000380900200648804706480047FEE7FEE7DA
:10015000FEE7FEE7FEE7FEE7FEE7FEE7FEE7FEE777
:10016000A11A0008310100082DE9FE4F804681EAFE
:100170000300C00F0C46009021F0004123F0004521
:10018000B8EB0200A94105D24046214690461C46E4
:100190000B46024623F00040104347D0270DC7F31B
:1001A0000A00C3F30A510290401A019040286BDA0A
:1001B000C3F3130040F4801B0098924620B1002343
:1001C000D2EB030A63EB0B0B01985946C0F14002D6
:1001D000504600F066F906460D4650465946019ACB
:1001E00000F06EF910EB08006141002487EA11521B
:1001F00084EAE7731A4340D0009A62B3019A012A55
:100200004FEA075215DC001B61EB02014FF0004280
:1002100002EA0752CDE90042001C41F58011324646
:100220002B4600F0A5F903B0BDE8F08F404621460B
:10023000F9E7001B61EB0201001C41F58013001877
:100240005B412018A2F5001747EB030140EAD57087
:10025000B6196D4111E06D084FEA360645EAC075E2
:100260004FEA0752001B61EB0201001C41F58011AF
:1002700049084FEA30000019514132462B4603B07D
:10028000BDE8F04F00F065B900980122400000235E
:10029000D0EB020263EBE073009821464FEAE07472
:1002A000B8EB000061EB0401E9E783F000435BE792
:1002B00081F0004158E72DE9F04D81EA030404F094
:1002C000004B21F0004514464FF0000A23F0004196
:1002D00050EA050220D054EA01021DD0C5F30A57A6
:1002E0000246C5F31303C1F31300C1F30A5640F4E9
:1002F000801543F48013A7EB0608101BD64608F2BE
:10030000FD3873EB050002D308F1010801E09218F3
:100310005B41B8F1000F03DA00200146BDE8F08D23
:1003200000204FF48011064684460EE0171B73EB45
:10033000050705D3121B63EB050306434CEA010CCA
:1003400049084FEA300092185B4150EA0107EDD1AD
:1003500052EA030012D082EA040083EA050108434E
:1003600005D0101BAB4106D20122002306E000227B
:100370004FF0004302E06FF0010253101AEB060049
:100380004CEB085110EB0A0041EB0B01BDE8F04DBE
:1003900000F0DFB80EB5C10F80EAE0700844CA076C
:1003A000002140F233438DE80E000A460B4600F070
:1003B000DFF803B000BD00F0004230F000400AD08A
:1003C000C10D01F56071C0F3160042EA0151C20887
:1003D00040071143704700200146704701F0004379
:1003E00030B421F0004150EA010206D00A0DA2F516
:1003F0006072C1F31301002A02DC30BC0020704798
:10040000440F44EAC104C100E01830BC00EBC25004
:1004100000F068B830B50B460146002020220124C8
:1004200009E021FA02F59D4205D303FA02F5491BC2
:1004300004FA02F52844151EA2F10102F1DC30BDD8
:100440002DE9F05F0546002092469B468846064609
:10045000814640241BE0284641464746224600F09C
:1004600089F953465A46C01A914110D3114618468D
:10047000224600F016F82D1A67EB01084F46224677
:100480000120002100F00DF817EB00094E41201E5D
:10049000A4F10104DFDC484631462A464346BDE864
:1004A000F09F202A04DB203A00FA02F10020704776
:1004B0009140C2F1200320FA03F3194390407047A2
:1004C000202A06DBCB17203A41FA02F043EAE07318
:1004D00006E041FA02F3D040C2F120029140084305
:1004E000194670470029A8BF7047401C490008BF43
:1004F00020F00100704710B4B0FA80FC00FA0CF054
:1005000050EA010404BF10BC704749B1CCF120048B
:1005100021FA04F411FA0CF118BF01212143084318
:10052000A3EB0C01CB1D4FEA00614FEA102042BF44
:10053000002010BC704700EBC35010440029A4BF3A
:1005400010BC7047401C490008BF20F0010010BCDF
:10055000704710B5141E73F1000408DA401C41F115
:10056000000192185B411A4301D120F0010010BD37
:100570002DE9F04D92469B4611B1B1FA81F202E0AD
:10058000B0FA80F220329046FFF78BFF04460F4608
:1005900040EA0A0041EA0B0153465A46084313D089
:1005A000114653EA010019D0C8F14002504600F04C
:1005B000E1F805460E46504659464246FFF771FFA0
:1005C000084305D0012004E020463946BDE8F08DFF
:1005D0000020054346EAE0762C4337430A9863053A
:1005E000E40AA0EB08000022FD0A44EA47540A305E
:1005F00002D500200146E9E7010510196941DDE94E
:10060000084500196941BDE8F04DA2E72DE9FE4F0C
:1006100081EA030404F0004421F0004100944FF00B
:10062000000B23F0004350EA01045ED052EA0304B9
:100630005BD0C3F30A54C1F30A552C44A4F2F3343B
:100640000194A0FB0254C1F3130141F48011C3F3E0
:10065000130343F4801301FB024400FB034E840A9E
:10066000970A44EA815447EA8357A4FB0768029536
:100670008D0A05FB07854FEA932C04FB0C542705D4
:10068000029D4FEA065847EA1637B5EB08056EEBB0
:10069000070C870E920E47EA811742EA8312A7FBE6
:1006A0000201B6EB0B0164EB00042B0D43EA0C33A3
:1006B0005E1844EB1C50DA465146E7FB0201C5F3D5
:1006C00013044FEA0B3343EA14534FEA0432019CFC
:1006D00043EA0603A4F10C040294009CCDE900B4A3
:1006E000FFF746FF03B0BDE8F08F00200146F9E7B1
:1006F000C1F30A52C1F3130140F2FF3341F48011F8
:100700009A4202DA00200146704740F233439A428F
:10071000A2F2334202DC524200F02CB8FFF7C1BE15
:1007200030B5041E71F1000404DB4FF00044404278
:1007300064EB0101141E73F1000405DB1C464FF04D
:100740000043524263EB0403994208BF904230BD1C
:10075000064C074D06E0E06840F0010394E807000E
:1007600098471034AC42F6D3FFF7E6FCF8370008A0
:1007700018380008202A04DB203A21FA02F0002170
:10078000704721FA02F3D040C2F1200291400843A1
:100790001946704700BFFEE7002001490870704706
:1007A0001700002000200149087070471600002043
:1007B00008B50121042000F035FF0121102000F0D0
:1007C00031FF0220ADF8000048208DF80300694693
:1007D000064800F0B9FA0420ADF8000048208DF872
:1007E00003006946014800F0AFFA08BD001001405F
:1007F00010B54FF4A06000F0EFFC10BD08B501216A
:10080000082000F00FFF0121102000F00BFF4FF433
:100810000050ADF8000010208DF8030003208DF883
:1008200002006946294800F08FFA4FF4005127482A
:1008300000F069FB4FF40040ADF8000010208DF887
:10084000030003208DF802006946204800F07CFA7E
:100850004FF400411D4800F056FB4FF48040ADF8C6
:10086000000010208DF8030003208DF80200694677
:10087000164800F069FA4FF48041144800F043FB39
:100880004FF48050ADF8000010208DF803000320D5
:100890008DF8020069460D4800F056FA4FF4805179
:1008A0000A4800F030FB0820ADF8000010208DF859
:1008B000030003208DF802006946054800F044FA61
:1008C0000821034800F01FFB08BD0000000C014098
:1008D0000010014010B50021AE2000F06FFD002196
:1008E000D52000F06BFD0021502000F067FD0021B5
:1008F000A82000F063FD00213F2000F05FFD0021F3
:10090000D32000F05BFD0021084600F057FD0021D8
:10091000402000F053FD00218D2000F04FFD00210C
:10092000142000F04BFD0021202000F047FD0021A5
:10093000022000F043FD0021A12000F03FFD002136
:10094000C02000F03BFD0021DA2000F037FD00213F
:10095000122000F033FD0021812000F02FFD002146
:10096000EF2000F02BFD0021D92000F027FD002111
:10097000F12000F023FD0021DB2000F01FFD00210D
:10098000302000F01BFD0021A42000F017FD002105
:10099000A62000F013FD0021AF2000F00FFD10BDD8
:1009A00010B500F04FFE4FF4803000F00DFF00F066
:1009B00069FF0446012C24D1102000F0ABF902207D
:1009C00000F0B6F9002000F0F3FE002000F02EFF4A
:1009D000A00200F01FFF4FF4E011200400F038FFE8
:1009E000012000F02FFF00BF392000F0BBFE0028DF
:1009F000FAD0022000F03AFF00BF00F0D1FE082834
:100A0000FBD110BD30B589B005460C460121082048
:100A100000F0F8FD0121042000F004FE0120ADF8F3
:100A2000200048208DF8230008A9204800F08CF908
:100A300001211E4800F067FAADF81850ADF81440D7
:100A40000020ADF81A00ADF8160005A9184801F00D
:100A500027FB0020ADF80800ADF80A000120ADF832
:100A60000C000020ADF80E000820ADF8100002A91F
:100A70000F4801F01DFA32208DF8040002208DF895
:100A8000050000208DF8060001208DF8070001A860
:100A900000F06AFB01220321054801F05FFA012101
:100AA000034801F0E4F909B030BD0000000801403E
:100AB000000C00407FB505460C460121084600F0B9
:100AC000A1FDADF80850ADF804400020ADF80A00D3
:100AD000ADF8060001A94FF0804001F0E1FA0122D3
:100AE0001146900701F03AFA1C208DF80000002012
:100AF0008DF8010003208DF8020001208DF803001D
:100B0000684600F031FB0121880701F0B0F97FBD94
:100B100030B589B005460C460121022000F072FD77
:100B20000121082000F07EFD0121084600F07AFD39
:100B300001211A4800F094F92020ADF82000182077
:100B40008DF8230003208DF8220008A9144800F036
:100B5000FBF8ADF81850ADF814400020ADF81A00BD
:100B6000ADF8160005A90F4801F09AFA7020ADF80B
:100B700004000120ADF806000220ADF80C0001A928
:100B8000084801F0FDF90821064801F04BFA01215F
:100B9000044801F06CF909B030BD000000081A00EB
:100BA000000C01400004004010B586B0044601214D
:100BB000880300F037FD0121042000F033FD4FF4DD
:100BC0000070ADF8140018208DF8170003208DF880
:100BD000160005A9224800F0B7F84FF48060ADF880
:100BE000140004208DF8170005A91D4800F0ACF88A
:100BF00001A801F0F4FB01940020ADF80800ADF865
:100C00000A00ADF80C000C20ADF80E000020ADF885
:100C1000100001A9134801F06DFB25208DF800009C
:100C200001208DF801008DF802008DF80300684660
:100C300000F09AFA012240F225510A4801F035FBF2
:100C4000012240F22771074801F02FFB01210548DE
:100C500001F0E8FA00200449087006B010BD000059
:100C600000080140003801401C00002030B5034658
:100C7000002016E0B3F900509C68645D0C541C8899
:100C8000641C24B21C80B3F90040B3F90450AC4298
:100C900001DB00241C80441C20B2DC88641E24B2CA
:100CA000DC80B3F90640002C01DD9042E2DB30BD70
:100CB0007047000001B504490098086000BF024871
:100CC00000680028FBD108BD3800002070B503463D
:100CD000002016E00C5CB3F902609D68AC555C889E
:100CE000641C24B25C80B3F90240B3F90450AC42F6
:100CF00001DB00245C80441C20B2DC88641C24B22C
:100D0000DC80B3F90640B3F90450AC4201DA9042FA
:100D1000E0DB70BD0549096821F01001034A11604C
:100D2000114609680143116070470000002002402D
:100D300001460020034A106800F0380008431060A4
:100D400070470000002002402DE9F04102460025D6
:100D50000026002000230024002791F803C00CF097
:100D60000F0591F803C00CF0100CBCF1000F03D07C
:100D700091F802C04CEA050591F800C0BCF1000FE3
:100D800031D0146800202BE04FF0010C0CFA00F376
:100D9000B1F800C00CEA03069E4220D183004FF058
:100DA0000F0C0CFA03F7BC4305FA03FC4CEA0404ED
:100DB00091F803C0BCF1280F06D14FF0010C0CFADA
:100DC00000FCC2F814C00AE091F803C0BCF1480F5F
:100DD00005D14FF0010C0CFA00FCC2F810C0401C09
:100DE0000828D1D31460B1F800C0BCF1FF0F34DD86
:100DF000546800202EE000F1080C4FF0010808FABA
:100E00000CF3B1F800C00CEA03069E4221D1830026
:100E10004FF00F0C0CFA03F7BC4305FA03FC4CEA45
:100E2000040491F803C0BCF1280F05D100F1080CAF
:100E300008FA0CF8C2F8148091F803C0BCF1480F0E
:100E400007D100F1080C4FF0010808FA0CF8C2F8BD
:100E50001080401C0828CED35460BDE8F08100000B
:100E6000F0B50A46002300240021002500F00046CA
:100E7000B6F1004F02D11D4EF16901E01B4E7168C1
:100E8000C0F3034583B200F44016B6F5401F08D105
:100E900021F07061154E766826F07066134F7E6003
:100EA00012E000F48016B6F5801F06D1032606FA7C
:100EB00005F4A14341F0706106E0460D360103FAE6
:100EC00006F6B14341F0706122B1460D360103FAD6
:100ED00006F6314300F00046B6F1004F02D1034E52
:100EE000F16101E0014E7160F0BD000000000140C1
:100EF0000246002093680B400BB1012000E0002067
:100F000070474161704701617047000001480078F7
:100F1000704700001700002001480078704700006B
:100F200016000020014600200B4A127802F08002D1
:100F300082B10120084A127802F03F020A600A8852
:100F400012040A60054B1B880A681A440A600022D2
:100F5000014B1A70704700001E0000202000002086
:100F600000BFFEE710B50C48B0F90000B0F5167FE1
:100F700004DB4FF416700849088005E00648008835
:100F8000323000B2044908800348008881B2034827
:100F900001F055F810BD00002200002000040040C0
:100FA00010B547214FF6FF70FFF72CFD10BD10B5AF
:100FB00000F076FD00F05FF800F01EF84FF4E1302D
:100FC00000F099F800F090F800F05AF8FFF7E8FF09
:100FD00000F030F800F006F800F03AF800F010F8F1
:100FE00010BD000010B5FFF7E3FB002001490870B9
:100FF000487010BD1000002010B5FFF7F9FB10BDC0
:1010000010B5FFF7FBFB4FF480410948FFF779FF6C
:101010000A20FFF74FFE4FF480410548FFF773FFAA
:101020000A20FFF747FEFFF755FC00F0DFF810BD80
:10103000000C014010B540F2E73140F25720FFF7B5
:1010400067FD0021014800F0FAFF10BD00040040D8
:10105000704730B50B460024048044808280C480F1
:101060008360002104E0002485686C544C1C21B28C
:101070009142F8DB30BD10B5FFF792FC10BD704710
:1010800030B5164800684FF47A72B0FBF2F1B1F156
:10109000807F01D301201DE021F07F40401E4FF0F2
:1010A000E022506150170F22002807DA13071D0EA7
:1010B0000B4B00F00F04241F1D5503E013071C0EFB
:1010C000084B1C5400BF00204FF0E0229061072025
:1010D0001061002008B100BFFEE730BD3C000020D9
:1010E00018ED00E000E400E010B5472140F2E730E1
:1010F000FFF7E0FC10BD10B5044600F005F82046EF
:10110000FFF752FD10BD000010B5002406E00020DE
:101110000949085509490855601C04B2642CF6DBDE
:10112000642205490648FFF794FF642203490548F5
:10113000FFF78FFF10BD00006C040020D0040020DA
:10114000540400206004002000BFFEE77047000048
:1011500000F01F0201219140024A430942F8231086
:101160007047000080E200E070B5002100230F22EC
:10117000C47804B3154C246804F4E064C4F5E06456
:10118000210AC1F10403CA40447804FA03F18478C7
:101190001440214309010E4C0678A155047804F04F
:1011A0001F050124AC4005786D11AD0005F1E02567
:1011B000C5F8004109E0047804F01F050124AC40A3
:1011C000044D0678761145F8264070BD0CED00E020
:1011D00000E400E080E100E002490143024A1160BE
:1011E000704700000000FA050CED00E070B5002427
:1011F0000CE0002506E00020074901EBC501085579
:10120000681CC5B2802DF6DB601CC4B2082CF0DB74
:1012100000F038F870BD000054000020F0B514460E
:1012200000267F2801DC3F2900DDF0BD0B46CF17EB
:1012300001EB5777FF10C7F10707FAB2CF1701EBA1
:101240005777FF10A1EBC707FDB2C5F107070123D0
:10125000BB40DEB24CB10A4B03EBC0039B5C334393
:10126000074F07EBC007BB5408E0054B03EBC00377
:101270009B5CB343024F07EBC007BB5400BFD4E7EE
:101280005400002070B500241CE004F1B001C8B285
:10129000002100F093F80021084600F08FF80021AB
:1012A000102000F08BF8002508E0084901EBC5018B
:1012B000085D012100F082F8681CC5B2802DF4DBC6
:1012C000601CC4B2082CE0DB70BD0000540000209C
:1012D0002DE9F05F80460C4615461E46A346A5F153
:1012E0002000C5B200273EE00C2E07D105EB4500DB
:1012F0001F4901EB800010F8079004E01D4800EB47
:10130000051010F807904FF0000A26E009F0800061
:1013100028B1214640460A9AFFF780FF09E00A9863
:1013200008B9012000E00020024621464046FFF7B0
:1013300075FF4FEA49604FEA1069601CC4B2A4EB24
:101340000B00B04205D15C4608F1010000F0FF0837
:1013500006E00AF1010000F0FF0ABAF1080FD5DB40
:1013600000BF781CC7B2B742BEDBBDE8F09F0000EB
:10137000942D000808320008F8B505460E461446BC
:1013800018E07A2D03DD002506F11000C6B23A2ED2
:1013900004DD002005460646FFF728FF01200090E7
:1013A0002278102331462846FFF792FF05F1080006
:1013B000C5B2641C20780028E3D1F8BD70B504469E
:1013C0000D4625B908211C48FFF79BFD05E0012DBE
:1013D00003D108211848FFF796FD4FF480511748B4
:1013E000FFF78FFD00261BE04FF400511348FFF775
:1013F00088FD04F0800028B14FF400410F48FFF74A
:1014000082FD04E04FF400410C48FFF77AFD4FF4F1
:1014100000510A48FFF777FD6006040E701C06B203
:10142000082EE1DB4FF480510448FFF76CFD0821E2
:101430000148FFF768FD70BD00100140000C01403D
:10144000704710B5FFF762FD08B1FFF7A5F910BDB1
:101450002DE9F0418EB0FFF75FFD002867D03548D9
:10146000B0F9000004285ADB334A3449002000F068
:1014700035FA334A3349012000F030FA6846FFF765
:1014800051FD002847D030480088401C00B22E494A
:1014900008800098FEF77EFF054600222B4BFEF7E2
:1014A0000AFF0746FEF79AFF04462046FEF783FF31
:1014B000054627480CC82846FEF756FE244A03C2B4
:1014C000214800880A2824D10022224B204903C940
:1014D000FEF7F1FE05462A460B461FA101A800F0C3
:1014E000A9FF01AA20210846FFF746FF0022194B59
:1014F000174903C9FEF7DFFE05462A460B4618A02A
:1015000000F088FF0021124A1160516000200E494E
:101510000880FFF7B7FE00200649088005E005486F
:101520000088401C00B203490880FFF73BF90EB069
:10153000BDE8F0810000002071150008BD1500080D
:1015400095150008D91500080200002000408F40C2
:10155000080000200000244025302E3266202000A4
:101560006176672D25302E32666D730D0A000000FE
:1015700010B5FFF7F7FC02A000F04CFF10BD000013
:101580004B455931205055534820444F574E0D0A72
:101590000000000010B54FF4967000F0FBF902A0B7
:1015A00000F038FF10BD00004B4559322050555314
:1015B0004820444F574E0D0A0000000010B502A00D
:1015C00000F028FF10BD00004B4559312052454C1A
:1015D000454153450D0A000010B502A000F01AFF66
:1015E00010BD00004B4559322052454C45415345F2
:1015F0000D0A00000146C88808B901207047002084
:10160000FCE7000029B1064AD2690243044BDA61C3
:1016100004E0034AD2698243014BDA61704700005B
:101620000010024029B1064A92690243044B9A61B4
:1016300004E0034A92698243014B9A6170470000BB
:10164000001002400F48006840F001000D4908609A
:10165000084640680C4908400A4948600846006846
:101660000A490840074908600846006820F48020BD
:1016700008600846406820F4FE0048604FF41F00F0
:1016800088607047001002400000FFF8FFFFF6FE80
:1016900030B500210022002400232D4D6D6805F097
:1016A0000C0121B1042905D0082923D105E0294DD9
:1016B000056022E0274D05601FE0254D6D6805F4AB
:1016C0007012234D6D6805F48034022505EB9242BB
:1016D0001CB9214D554305600BE01D4D6D6805F4A7
:1016E00000351DB11C4D5543056002E0194D5543B1
:1016F000056002E0174D056000BF00BF144D6D6826
:1017000005F0F0010909154D6B5C0568DD40456089
:101710000F4D6D6805F4E061090A104D6B5C45687A
:10172000DD4085600A4D6D6805F46051C90A0B4DB6
:101730006B5C4568DD40C560054D6D6805F4404152
:10174000890B074D6B5CC568B5FBF3F5056130BDD2
:101750000010024000127A0000093D002400002021
:101760003400002010B501460022002300204A1159
:10177000012A02D1094C236806E0022A02D1074C53
:10178000236A01E0054C636A01F01F0201249440C2
:101790001C400CB1012000E0002010BD00100240F0
:1017A0000248406800F00C00704700000010024042
:1017B00001460020034A506820F0F00008435060C2
:1017C00070470000001002401149096821F480317F
:1017D0000F4A11601146096821F480211160B0F5AB
:1017E000803F03D0B0F5802F0ED106E0084909688C
:1017F00041F48031064A116007E00549096841F467
:10180000A021034A116000E000BF00BF7047000044
:101810000010024001460020034A506820F4E060B6
:10182000084350607047000000100240014600204D
:10183000034A506820F4605040EAC100506070478D
:101840000010024001490866704700000000424253
:1018500002460020044B586820F47C1042EA010341
:101860001843014B586070470010024001460020A9
:10187000034A506820F0030008435060704700009E
:101880000010024038B5002000900024002500BF61
:101890003120FFF767FF05460098401C0090009834
:1018A000B0F5A06F01D0002DF2D03120FFF75AFF24
:1018B00008B1012400E00024204638BD70B504467C
:1018C0000025012221460348FFF7D0F9C5B228467A
:1018D00070BD0000540400207047000070B504463D
:1018E0000D4616461F48005D4006000E1D4908556E
:1018F00014B1012C14D109E002211B48FFF7F8FABA
:101900001849095D0843174908550AE0042116489B
:10191000FFF7EEFA1349095D08431249085500E044
:1019200000BF00BF0F48005D1049095D884208D123
:101930000F48005D012804D1B04700200C4908552C
:101940000EE00848005D0949095DC943C9B28842F3
:1019500006D10748005D18B9A84701200449085579
:1019600070BD000012000020001001401000002097
:101970001400002010B50446E1B2054800F02BFD2C
:1019800000BF4021024800F059FC0028F9D010BDEA
:101990000038014010B5044603480480008881B235
:1019A000024800F04CFB10BD220000200004004063
:1019B00010B500F001F810BD0CB5002001900090AA
:1019C0003348006840F480303149086000BF304837
:1019D000006800F4003000900198401C01900098CD
:1019E00018B90198B0F5A06FF1D12948006800F44A
:1019F000003010B10120009001E00020009000981C
:101A0000012843D12348006840F0100021490860B4
:101A10000846006820F0030008600846006840F0AF
:101A2000020008601A484068194948600846406842
:101A300048600846406840F4806048600846406856
:101A400020F47C1048600846406840F4E810486084
:101A50000846006840F08070086000BF0C480068CD
:101A600000F000700028F9D00948406820F0030019
:101A7000074948600846406840F00200486000BFDF
:101A80000348406800F00C000828F9D10CBD0000A4
:101A9000001002400020024010B500F053FB10BDC2
:101AA00010B51348006840F001001149086008466D
:101AB0004068104908400E494860084600680E49D1
:101AC00008400B4908600846006820F48020086040
:101AD0000846406820F4FE0048604FF41F0088600C
:101AE000FFF766FF4FF000600449086010BD00007A
:101AF000001002400000FFF8FFFFF6FE08ED00E0D6
:101B0000F0B50C46154600220021068C4FF6FE77F4
:101B10003E400684028B018C4FF60C7632407E1CD0
:101B200006EA03162E433243104EB0420ED0104E3A
:101B3000B0420BD0B0F1804F08D00E4EB04205D06D
:101B40000D4EB04202D00D4EB04206D14FF6FD769A
:101B5000314044F00106314305E04FF6F57631405F
:101B600044F00106314302830184F0BD002C0140A2
:101B7000003401400004004000080040000C004018
:101B8000F0B50C461546002200210026078C4FF6C2
:101B9000EF7C07EA0C070784028B018C4FF6FF7776
:101BA00007EA041640F6FF473A404FF6FF7707EA88
:101BB00003373A434FF6FF7707EA05273A43114FB9
:101BC000B8420ED0104FB8420BD0B0F1804F08D0C1
:101BD0000E4FB84205D00E4FB84202D00D4FB8425A
:101BE00006D14FF6DF77394046F01007394305E05C
:101BF0004FF65F77394044F0100739430283018480
:101C0000F0BD0000002C0140003401400004004001
:101C100000080040000C0040F0B50C4615460022BC
:101C200000210026078C4FF6FF6C07EA0C0707849B
:101C3000828B018C4FF6FF7707EA04264FF60C776C
:101C40003A404FF6FF7707EA03172F433A43114F05
:101C5000B8420ED0104FB8420BD0B0F1804F08D030
:101C60000E4FB84205D00E4FB84202D00D4FB842C9
:101C700006D14FF6FF57394046F48077394305E0E7
:101C80004FF2FF57394044F480773943828301840F
:101C9000F0BD0000002C0140003401400004004071
:101CA00000080040000C0040F0B50C46154600222C
:101CB00000210026078C4EF6FF7C07EA0C070784FC
:101CC000828B018C4FF6FF7707EA043640F6FF4718
:101CD0003A404FF6FF7707EA05273A434FF6FF777A
:101CE00007EA03373A43114FB8420ED0104FB842BB
:101CF0000BD0B0F1804F08D00E4FB84205D00E4F38
:101D0000B84202D00D4FB84206D14DF6FF773940A8
:101D100046F48057394305E047F6FF57394044F40D
:101D20008057394382830184F0BD0000002C0140BC
:101D3000003401400004004000080040000C004056
:101D400010B50121880700F0A1F8012803D1012175
:101D5000800700F089F810480088401C0E49088070
:101D60000E480088401C0D4908800B480088022856
:101D700005DB002008490880012009490870074850
:101D80000088B0F57A7F05DB002004490880012037
:101D90000449087010BD0000180000201A0000203F
:101DA000160000201700002010B52C48007800F025
:101DB000800000284CD10121294800F067F8D0B1FB
:101DC0002648007800F04000A8B12448007800F0D0
:101DD0003F003F280AD12148007840F080001F4989
:101DE00008704FF6FF701F49088004E01B48007818
:101DF000401C1A4908700221194800F047F838B30E
:101E00001648007800F0400078B11448007840F09F
:101E1000800012490870124800F035F81149088016
:101E200000210F4800F0A3F812E000200B490870D1
:101E30000C49088000210A4800F003F9074800789F
:101E400040F04000054908700221054800F08FF875
:101E50000321034800F008F810BD00001E00002018
:101E6000000C004020000020CA430282704721B1CC
:101E7000028842F00102028004E002884FF6FE73FD
:101E80001A40028070470146888E704730B502467E
:101E9000002000230024158A05EA0103958905EA3C
:101EA000010413B10CB1012000E0002030BD00009E
:101EB00070B505460C46244885420ED0234885421D
:101EC0000BD0B5F1804F08D02148854205D021487C
:101ED000854202D02048854200D100E000BF208822
:101EE00050B92389A28861882846FFF709FEE18856
:101EF000284600F0A8F825E0208804280AD1238984
:101F0000A28861882846FFF73BFEE188284600F05A
:101F1000A3F817E0208808280AD12389A2886188BD
:101F20002846FFF779FEE188284600F0A2F809E08C
:101F30002389A28861882846FFF7B6FEE1882846F3
:101F400000F0A0F870BD0000002C014000340140FA
:101F50000004004000080040000C00401AB18389D2
:101F60000B43838102E083898B43838170470A4658
:101F70000021018C4FF6FD73194011430184704715
:101F800070B5002400220023058C4FF6EF76354013
:101F90000584028C8388048B48F6FF752C404FF62D
:101FA000FF452C400D884FF6FF7606EA05252C43A9
:101FB0004FF6DF752A400D8906EA05152A434D883C
:101FC00006EA05152A43154DA84202D0144DA84231
:101FD0001DD14FF67F752A404D894FF6FF7606EAF0
:101FE00005152A434FF6BF752A408D8806EA051568
:101FF0002A434FF6FF352B404FF2FF752B408D895A
:1020000006EA85052B43CD8906EA85052B438380A7
:102010000483CD880587028470BD0000002C014038
:10202000003401400A460021018B4FF2FF73194032
:102030004FF6FF7303EA02231943018370470187B8
:10204000704781847047028B4FF6F3731A40028306
:10205000028B0A4302837047028B4FF2FF331A4010
:102060000283028B4FF6FF7303EA01231A430283B4
:102070007047828B4FF6F3731A408283828B0A4338
:1020800082837047828B4FF2FF331A408283828BA8
:102090004FF6FF7303EA01231A438283704700005F
:1020A000002202881D4B98420ED01D4B98420BD047
:1020B000B0F1804F08D01B4B984205D01A4B984284
:1020C00002D01A4B984204D14FF68F731A404B88B6
:1020D0001A43174B984207D0164B984204D04FF63C
:1020E000FF431A40CB881A4302808B8883850B8874
:1020F00003850A4B98420BD0094B984208D00E4BEF
:10210000984205D00D4B984202D00D4B984201D118
:102110000B7A03860123838270470000002C014064
:10212000003401400004004000080040000C004062
:1021300000100040001400400040014000440140F5
:10214000004801400448006820B103480068401E70
:1021500001490860704700003800002008B50020E1
:10216000009040F22551204800F075F858B1252024
:10217000FEF7EEFF1C4800F029F9C0B200909DF870
:10218000000000F03BF90821174800F057F801283B
:1021900006D10821144800F02DF8134800F016F974
:1021A00040F22771104800F056F8E0B140F2277174
:1021B0000D4800F028F82520FEF7CAFF6846FFF713
:1021C0007DFB9DF80010084800F005F90748FFF76F
:1021D00011FA40B1002006490870002240F2277130
:1021E000014800F062F808BD0038014054040020A6
:1021F0001C00002001F40072B2F5007F00D100BF86
:10220000CA430280704710B50022002340F66A14CA
:10221000A14200D100BF0A1201249440A3B2DC43C2
:10222000048010BD21B1828942F40052828104E011
:1022300082894DF6FF731A40828170470246002062
:10224000B1F5007F00D100BF13880B400BB1012016
:1022500000E00020704770B50246002400230025EE
:10226000002040F66A16B14200D100BFC1F342150A
:1022700001F01F03012606FA03F3012D02D196890E
:10228000334006E0022D02D1168A334001E0968ADF
:1022900033400C12012606FA04F41688344013B1B8
:1022A0000CB1012000E0002070BDF0B50346002411
:1022B00000260025002040F66A17B94200D100BF71
:1022C0001846C1F3421401F01F06012707FA06F56C
:1022D000012C01D10C3004E0022C01D1103000E0BF
:1022E00014301AB107682F43076002E00768AF4354
:1022F0000760F0BD2DE9F04786B005460E46002484
:10230000A24600BFA1460027B08900B100BF2F46FA
:102310002C8A4CF6FF700440F08804432C82AC8970
:102320004EF6F3100440B0883189084371890843A0
:102330000443AC81AC8A4FF6FF400440B0890443AB
:10234000AC8201A8FFF7A4F91F48874202D1DDF84B
:1023500010A001E0DDF80CA0A88900F4004040B115
:102360000AEBCA0000EB0A1031684900B0FBF1F833
:1023700007E00AEBCA0000EB0A1031688900B0FBE5
:10238000F1F86420B8FBF0F004012009642101FB9E
:102390001089A88900F4004040B1322000EBC90048
:1023A000B0FBF1F000F00700044308E0322000EB3E
:1023B00009106421B0FBF1F000F00F0004432C8100
:1023C00006B0BDE8F087000000380140014688886B
:1023D000C0F308007047C1F30802828070474FF4D1
:1023E0001651016000218180C18001810C21418151
:1023F00000218181704700BFFEE7000031B5002455
:10240000012269460248FEF761FCC4B2204638BD8D
:10241000600400200FB4054B10B503A9044A0298CC
:1024200000F0DEF810BC5DF814FB0000192D000868
:10243000500000200FB4084B10B504A902AA03985D
:1024400000F0CEF8044602A9002000F060FC20460F
:1024500010BC5DF814FB00000F2D000802E008C856
:10246000121F08C1002AFAD170477047002001E00E
:1024700001C1121F002AFBD1704700002DE9FF5F48
:10248000DDE90220010DDDF838B0024318D044F632
:102490001050A1F2FF3141430D140F98012820D0B4
:1024A000A5EB0B00401C5FEA000A4FF00004474E0A
:1024B000DFF81C91A046504616D5CAF1000728E067
:1024C0000F98012443A2012808D0002100980F9BF7
:1024D000C0E90021C0E90243BDE8FF9F6FEA0B019C
:1024E000F4E7CBF10000DEE7074612E0F80707D07B
:1024F0002246334640464946FEF788F880468946DC
:102500002246334610461946FEF780F804460E462A
:102510007F10002FEAD1DDE90201BAF1000F424637
:102520004B4602DAFEF772F801E0FDF7C4FE0446FE
:102530000E460022284BFEF7F3F803D84FF0FF3089
:10254000014607E00022254B20463146FDF70CFEF0
:10255000FEF7CEF8102409E0002C0ADB0A22002343
:10256000FDF76EFF019B30321A55641E50EA0102DE
:10257000F2D1641C019AC4F1110314440F9A012A88
:1025800003D0012208430DD10AE0084304D0002003
:102590004FF0110B0F9080E7A3EB0B056D1E0DE0C4
:1025A0005B4504DD4FF0000205F1010504E003DAAC
:1025B0004FF00002A5F10105002AECD000980F9918
:1025C000C0E90231C0E9004586E700000000244070
:1025D0000000F03F300000000000F0430000E03F4A
:1025E0002DE9FF4F95B09B468946064600250FE230
:1025F000252877D100242746F84A0121059400E0D8
:10260000044316F8013F203B01FA03F01042F7D1D2
:1026100030782A2811D06FF02F033078A0F13002E3
:10262000092A16D8059A44F0020402EB820203EB51
:1026300042021044761C0590EFE759F8042B0592EE
:10264000002A03DA504244F40054059044F0020496
:10265000761C30782E2816D116F8010F44F00404A9
:102660002A280DD06FF02F023078A0F13003092B0B
:1026700009D807EB870302EB4303C718761CF3E77F
:1026800059F8047B761C30786C280FD006DC4C2877
:1026900017D068280DD06A2814D104E0742810D00F
:1026A0007A280FD10DE044F400140AE044F48014B9
:1026B00001E044F440147278824202D104F580149F
:1026C000761C761C307866280BD013DC582877D01F
:1026D00009DC002875D04528F6D04628F4D04728D4
:1026E0001AD19DE118E0632835D0642879D0652897
:1026F00012D195E1702873D008DC6728F1D06928E1
:102700006FD06E280DD06F2806D1B5E073282CD07D
:10271000752875D0782874D05A46179990476D1C43
:1027200075E1C4F30250022809D003280DD0D9F86E
:10273000001004280DD00D6009F1040967E1D9F8F3
:102740000010EA17C1E90052F6E7D9F800100D8031
:10275000F2E70D70F0E719F8041B8DF80010002067
:102760008DF80100EA46012003E059F804AB4FF070
:10277000FF3061074FF0000102D40DE008F10101C4
:102780008846B9420FDA8045F8DB1AF808100029AC
:10279000F4D108E008F1010188468142FADB1AF819
:1027A00008100029F6D105985B46A0EB08072146E2
:1027B0003846179A00F094FA284400EB080507E021
:1027C0004DE029E10DE01AF8010B5A4617999047A0
:1027D000B8F10108F7D25B4621463846179A13E153
:1027E00042E00A220092C4F302524FF0000A022A89
:1027F00008D059F804CB032A4FEAEC710AD00DE057
:1028000029E02AE009F1070121F00702F2E802C1FC
:10281000914609E00FFA8CFC4FEAEC71042A03D1CF
:102820004FFA8CFC4FEAEC71002907DA0A460021C6
:10283000DCF1000C61EB02012D2202E0220504D53F
:102840002B228DF80420012203E0E20701D0202290
:10285000F7E7904659E00A2102E010220DE010212E
:102860004FF0000A00910BE010224FF0000A44F0F4
:1028700004040827009203E008224FF0000A0092A7
:10288000C4F30252022A05D059F804CB0021032ACE
:1028900008D009E009F1070121F00702F2E802C1BE
:1028A000914605E01FFA8CFC042A01D10CF0FF0CC4
:1028B0004FF00008220728D5702806D0009B83F02F
:1028C000100353EA0A0305D00EE040228DF80420DD
:1028D000012208E05CEA010206D030228DF80420D3
:1028E0008DF8050002229046009B83F0080353EA0E
:1028F0000A030AD15CEA010201D1620705D5302240
:102900008DF804204FF001087F1E582804D034A011
:1029100003900EA802900DE036A0F9E753466046FA
:10292000009AFDF78DFD84460398825C0298401E54
:10293000029002705CEA0100F0D1029806A9081A20
:1029400000F1200A600702D524F4803400E001275A
:10295000574502DDA7EB0A0000E0002000EB0A016A
:10296000009005984144401A0590E00306D45B4668
:102970002146179A059800F0B3F90544002706E0B0
:1029800001A85A46C05D179990476D1C7F1C4745AA
:10299000F6DBE0030CD55B462146179A059800F05C
:1029A0009FF9054404E030205A46179990476D1C62
:1029B0000099481E00900029F5DC08E00298029971
:1029C0005A460078491C0291179990476D1CBAF13C
:1029D0000001AAF1010AF1DC65E10000092801000B
:1029E0003031323334353637383961626364656685
:1029F0000000000030313233343536373839414247
:102A0000434445460000000000F058F90544761C98
:102A1000307800287FF4ECAD19B02846BDE8F08F7F
:102A2000620700D4062709F1070222F0070CFCE830
:102A30000223E14603F000485FEA080C02D00FF2DF
:102A4000702C0DE05FEA045C02D50FF2682C07E001
:102A50005FEAC47C02D00FF2602C01E0AFF2700C90
:102A60004FF0FF3823F00043CDF850C065280CD05C
:102A700006DC452809D046281DD047283DD13DE039
:102A8000662818D067287ED138E00021112F01DB9D
:102A9000112000E0781CCDE9000106A90EA8FFF77F
:102AA000EDFCDDE90F010E9A03910021009207F180
:102AB000010A04914DE04FF000400097CDE901106C
:102AC00006A90EA8FFF7DAFCDDE90F0203920E9BC0
:102AD00011990022DDF80CA00093049211B9791C21
:102AE00000EB010AB7EB0A0004D4C0F1FF3007F194
:102AF000010A0490AAEB0700019044E0012F00DADC
:102B000001270021112F01DD112000E03846CDE919
:102B1000000106A90EA8FFF7B1FCDDE90F010E9A2E
:102B20000391002104910092BA4621070CD4039925
:102B3000514500DA8A46BAF1010F05DD009AAAF183
:102B40000101515C302908D0B84202DA10F1040FBB
:102B500006DA0121CDE9011015E0AAF10101E9E74A
:102B6000002805DC049901440491AAEB000102E06D
:102B7000411C514500DD8A460499401A401C0190D1
:102B80004FF000400290200704D40198504501DB2B
:102B9000CDF8048000208DF84F0002980DF14F070A
:102BA000B0F1004F25D02B200E9002984FF0020874
:102BB00000280CDA404202902D200E9007E00A21F6
:102BC0000298FDF727FC3031029007F8011DB8F19B
:102BD0000001A8F10108F2DC02980028EFD1791E6B
:102BE0000E980870307800F0200040F0450007F89B
:102BF000020D12A8C01B00F107081498007800B15C
:102C0000012000EB0A01019801EBE07105984144B5
:102C1000401A401E0590E00306D45B462146179AF1
:102C2000059800F05DF805441498007818B15A46EC
:102C3000179990476D1CE00324D55B462146179AEF
:102C4000059800F04DF805441CE00498002807DBC7
:102C5000DDE90301884203DD0098405C179901E03B
:102C6000179930205A469047049805F10105401CF9
:102C700004900198401E019004D12E205A461799C5
:102C800090476D1CBAF10001AAF1010ADDDC05E0F4
:102C900017F8010B5A46179990476D1CB8F10001BF
:102CA000A8F10108F4DC5B462146179A0598ABE6CB
:102CB0002D0000002B000000200000002DE9F04155
:102CC000044600251E461746880404D405E039460C
:102CD0002020B0476D1C641EF9D52846BDE8F08160
:102CE0002DE9F041044600251E469046C80301D553
:102CF000302700E02027880404D505E04146384607
:102D0000B0476D1C641EF9D52846BDE8F0810A68FD
:102D1000531C0B601070704770B504460D46E0B24E
:102D2000FEF728FE204670BDFEF7A9F9FEF73FF931
:102D300008A0FFF76FFB4FF49670FEF72BFE0EA274
:102D400000210820FEF718FB03E0FEF781FBFEF7E9
:102D500078FBFAE7496E69742053797374656D20C6
:102D6000686173206265656E2066696E6973686567
:102D7000642E0D0A0000000050574D206176672038
:102D800068696768206C6576656C20706572696F2C
:102D900064000000000000000000000000000000CF
:102DA000000000003F400000000000000000300074
:102DB000400030004000000009000BC03D000BC087
:102DC0003D00090018C024407FE02240318000000F
:102DD000180024C01B000D803240018003801C407D
:102DE00027401C80074000401000600000000000E9
:102DF000000000000000000000001F802040402074
:102E00000000402020401F80000000000900060054
:102E10001F80060009000000040004003F80040039
:102E2000040000000010006000000000000000002E
:102E3000040004000400040004000000000000403E
:102E40000000000000000000002001C00600380063
:102E5000400000001F802040204020401F800000D4
:102E6000000010403FC000400000000018C021409A
:102E7000224024401840000010802040244024407C
:102E80001B80000002000D0011003FC00140000047
:102E90003C80244024402440238000001F802440A4
:102EA00024403440038000003000200027C0380058
:102EB000200000001B802440244024401B80000090
:102EC0001C0022C0224022401F80000000000000A1
:102ED0000840000000000000000000000460000046
:102EE00000000000000004000A00110020804040A3
:102EF0000900090009000900090000000000404025
:102F0000208011000A000400180020002340240043
:102F1000180000001F802040274029401F4000006B
:102F2000004007C039000F0001C0004020403FC0F2
:102F3000244024401B8000001F802040204020406F
:102F40003080000020403FC0204020401F80000013
:102F500020403FC024402E4030C0000020403FC0F1
:102F600024402E00300000000F001080204022403E
:102F70003380020020403FC0040004003FC02040D6
:102F8000204020403FC02040204000000060202022
:102F900020203FC02000200020403FC024400B00E4
:102FA00030C0204020403FC020400040004000C0D2
:102FB0003FC03C0003C03C003FC0000020403FC079
:102FC0000C4023003FC020001F80204020402040B4
:102FD0001F80000020403FC0244024001800000053
:102FE0001F802140214020E01FA0000020403FC062
:102FF0002440260019C0004018C02440244022402C
:1030000031800000300020403FC0204030000000F0
:1030100020003F80004000403F80200020003E0014
:1030200001C0070038002000380007C03C0007C07E
:1030300038000000204039C0060039C020400000A0
:103040002000384007C0384020000000304021C038
:103050002640384020C00000000000007FE04020F3
:1030600040200000000070000C00038000400000C1
:103070000000402040207FE0000000000000200011
:1030800040002000000000000010001000100010A0
:1030900000100010000000004000000000000000D0
:1030A000000002800540054003C0004020003FC0F2
:1030B00004400440038000000000038004400440FA
:1030C0000640000000000380044024403FC0004050
:1030D000000003800540054003400000000004405C
:1030E0001FC0244024402000000002E0055005508D
:1030F0000650042020403FC00440040003C00040AC
:103100000000044027C00040000000000010001034
:10311000041027E00000000020403FC001400700ED
:1031200004C00440204020403FC000400040000058
:1031300007C0040007C0040003C00000044007C02B
:103140000440040003C00040000003800440044029
:1031500003800000041007F00450044003800000C6
:10316000000003800440045007F00010044007C032
:103170000240040004000000000006400540054035
:1031800004C00000000004001F8004400040000054
:10319000040007800040044007C00040040007000E
:1031A00004C0018006000400060001C0070001C041
:1031B00006000000044006C0010006C004400000F4
:1031C0000410071004E00180060004000000044021
:1031D00005C00640044000000000000004007BE041
:1031E00040200000000000000000FFF00000000090
:1031F000000040207BE00400000000004000800050
:1032000040002000200040000000000000000000FE
:1032100000000000000000000000000000001FCCC3
:10322000000C0000000000000000080030006000FA
:103230000800300060000000022003FC1E20022075
:1032400003FC1E200220000000000E1811043FFFA6
:1032500010840C78000000000F0010840F3800C0AC
:10326000077818840078000000780F8410C41124B7
:103270000E9800E400840008080068007000000058
:10328000000000000000000000000000000007E057
:103290001818200440020000000040022004181802
:1032A00007E00000000000000240024001800FF033
:1032B00001800240024000000080008000800FF882
:1032C00000800080008000000001000D000E000062
:1032D000000000000000000000000080008000806E
:1032E00000800080008000800000000C000C0000C6
:1032F0000000000000000000000000060018006050
:103300000180060018002000000007F008081004E3
:103310001004080807F000000000080408041FFC5F
:10332000000400040000000000000E0C1014102423
:10333000104411840E0C000000000C18100411043D
:10334000110412880C700000000000E00320042427
:1033500008241FFC0024000000001F9810841104A2
:103360001104108810700000000007F00888110494
:10337000110418880070000000001C00100010FCF0
:1033800013001C001000000000000E3811441084CF
:10339000108411440E38000000000700088C10440F
:1033A0001044088807F00000000000000000030C33
:1033B000030C0000000000000000000000010106F6
:1033C000000000000000000000000080014002201A
:1033D000041008081004000002200220022002202D
:1033E000022002200220000000001004080804103F
:1033F000022001400080000000000E001200100CAE
:10340000106C10800F00000003E00C1813E414246B
:1034100017C4082807D000000004003C03C41C4067
:10342000074000E4001C000410041FFC11041104F8
:1034300011040E880070000003E00C181004100442
:10344000100410081C10000010041FFC10041004CD
:103450001004080807F0000010041FFC11041104F8
:1034600017C410040818000010041FFC11041100F8
:1034700017C010000800000003E00C18100410042E
:1034800010441C780040000010041FFC10840080D1
:10349000008010841FFC10040000100410041FFCA6
:1034A00010041004000000000003000110011001CE
:1034B0001FFE10001000000010041FFC1104038008
:1034C0001464181C1004000010041FFC10040004F5
:1034D00000040004000C000010041FFC1F0000FC8E
:1034E0001F001FFC1004000010041FFC0C0403004C
:1034F00000E010181FFC100007F00808100410046A
:103500001004080807F0000010041FFC108410804D
:10351000108010800F00000007F0081810241024FD
:10352000101C080A07F2000010041FFC110411000F
:1035300011C011300E0C000400000E1C1104108488
:10354000108410441C3800001800100010041FFCE8
:10355000100410001800000010001FF810040004F0
:10356000000410041FF8100010001E0011E0001CE1
:10357000007013801C0010001FC0103C00E01F00F2
:1035800000E0103C1FC000001004180C163401C0ED
:1035900001C01634180C100410001C00130400FCA9
:1035A00013041C00100000000804101C1064108498
:1035B00013041C04101800000000000000007FFE2F
:1035C0004002400240020000000030000C00038076
:1035D0000060001C000300000000400240024002A6
:1035E0007FFE0000000000000000000020004000FE
:1035F0004000400020000000000100010001000127
:103600000001000100010001000040004000200016
:1036100000000000000000000000009801240144A8
:103620000144014400FC000410001FFC0088010458
:103630000104008800700000000000700088010490
:1036400001040104008800000000007000880104EB
:10365000010411081FFC0004000000F801440144AB
:103660000144014400C800000000010401040FFCF3
:103670001104110411001800000000D601290129CD
:10368000012901C90106000010041FFC008401008B
:103690000100010400FC000400000104190419FCED
:1036A000000400040000000000000003000101010C
:1036B000190119FE0000000010041FFC0024004046
:1036C00001B4010C010400000000100410041FFCF0
:1036D0000004000400000000010401FC01040100DA
:1036E00001FC0104010000FC010401FC0084010054
:1036F0000100010400FC0004000000F801040104C2
:103700000104010400F80000010101FF008501042B
:1037100001040088007000000000007000880104AF
:103720000104010501FF00010104010401FC008402
:103730000104010001800000000000CC01240124EC
:10374000012401240198000000000100010007F895
:103750000104010400000000010001F8000400045D
:103760000004010801FC0004010001800170000C4C
:10377000001001600180010001F0010C003001C067
:103780000030010C01F0010000000104018C007404
:103790000170018C01040000010101810171000E22
:1037A000001801600180010000000184010C013457
:1037B00001440184010C0000000000000000000032
:1037C00001003EFC4002400200000000000000003A
:1037D000FFFF0000000000000000400240023EFC2D
:1037E0000100000000000000000060008000800078
:1037F0004000400020002000183800080000002091
:10380000540000005C2400086C38000854000020BC
:10381000E40800006C240008000000000000000024
:103820000000000000000000000000000000000098
:103830000000000000000000000000000000000088
:103840000102030401020304060708090204060832
:103850000000000000A24A04000000000000000078
:0C38600001020304060708090000000034
:0400000508000131BD
:00000001FF
