:020000040800F2
:100000000006002045010008E90800080107000873
:10001000E50800088D0100086313000800000000D7
:10002000000000000000000000000000290D000892
:10003000F504000800000000A1090008350E0008C2
:100040005F0100085F0100085F0100085F01000810
:100050005F0100085F0100085F0100085F01000800
:100060005F0100085F0100085F0100085F010008F0
:100070005F0100085F0100085F0100085F010008E0
:100080005F0100085F0100085F0100085F010008D0
:100090005F0100085F0100085F0100085F010008C0
:1000A0005F0100085F0100085F0100085F010008B0
:1000B0009D0E00085F0100085F0100085F01000855
:1000C0005F0100085F0100085F0100085F01000890
:1000D0005F01000831100008C91000085F01000826
:1000E0005F0100085F0100085F0100085F01000870
:1000F0005F0100085F0100085F0100085F01000860
:100100005F0100085F010008D90E00085F010008C8
:100110005F0100085F0100085F0100085F0100083F
:100120005F0100085F0100085F0100085F0100082F
:10013000DFF80CD000F018F8004800475914000808
:10014000000600200648804706480047FEE7FEE715
:10015000FEE7FEE7FEE7FEE7FEE7FEE7FEE7FEE777
:100160003D0E000831010008064C074D06E0E0682E
:1001700040F0010394E8070098471034AC42F6D3EE
:10018000FFF7DAFF98140008B814000800BFFEE774
:100190000020014908707047030000200020014939
:1001A000087070470200002008B50121102000F0FF
:1001B00037FC1020ADF8000003208DF8020010205D
:1001C0008DF8030069460D4800F0F4F90122102172
:1001D0000A4800F083FA2020ADF8000003208DF8D3
:1001E000020010208DF803006946044800F0E2F98F
:1001F00000222021014800F071FA08BD00100140E2
:1002000010B54FF4A06000F0C1FB10BD10B500F0B8
:1002100017FC4FF4803000F0D5FC00F031FD0446AF
:10022000012C24D1102000F0ABF9022000F0B6F927
:10023000002000F0BBFC002000F0F6FCA00200F063
:10024000E7FC4FF4E011200400F000FD012000F075
:10025000F7FC00BF392000F083FC0028FAD0022010
:1002600000F002FD00BF00F099FC0828FBD110BD92
:100270007FB505460C460121084600F0C1FBADF8EC
:100280000850ADF804400020ADF80A00ADF80600B3
:1002900001A94FF0804000F06DFE01221146900749
:1002A00000F05EFE1C208DF8000000208DF801009B
:1002B00003208DF8020001208DF80300684600F04D
:1002C0002DFB0121880700F02EFE7FBD7FB505467E
:1002D0000C460121082000F093FBADF80850ADF862
:1002E00004400020ADF80A00ADF8060001A90E4850
:1002F00000F040FE012211460B4800F031FE322092
:100300008DF8000000208DF8010003208DF8020018
:1003100001208DF80300684600F000FB012102482F
:1003200000F001FE7FBD0000000C004010B586B05B
:1003300004460121880300F073FB0121042000F032
:100340006FFB4FF40070ADF8140018208DF8170003
:1003500003208DF8160005A9224800F02BF94FF470
:100360008060ADF8140004208DF8170005A91D4821
:1003700000F020F901A800F0E8FF01940020ADF89A
:100380000800ADF80A00ADF80C000C20ADF80E0026
:100390000020ADF8100001A9134800F061FF2520EE
:1003A0008DF8000001208DF801008DF802008DF815
:1003B0000300684600F0B2FA012240F225510A48D3
:1003C00000F029FF012240F22771074800F023FFC7
:1003D0000121054800F0DCFE00200449087006B049
:1003E00010BD000000080140003801400800002056
:1003F00010B586B004460121480400F001FB01213C
:10040000042000F00DFB0420ADF8140018208DF836
:10041000170003208DF8160005A9224800F0CAF83D
:100420000820ADF8140004208DF8170005A91D4818
:1004300000F0C0F801A800F088FF01940020ADF89A
:100440000800ADF80A00ADF80C000C20ADF80E0065
:100450000020ADF8100001A9134800F001FF26208C
:100460008DF8000001208DF801008DF802008DF854
:100470000300684600F052FA012240F225510A4872
:1004800000F0C9FE012240F22771074800F0C3FEC8
:100490000121054800F07CFE00200449087006B0E8
:1004A00010BD000000080140004400400900002089
:1004B00030B50346002016E0B3F900509C68645D37
:1004C0000C541C88641C24B21C80B3F90040B3F99E
:1004D0000450AC4201DB00241C80441C20B2DC88A8
:1004E000641E24B2DC80B3F90640002C01DD90428A
:1004F000E2DB30BD704770B50346002016E00C5CAF
:10050000B3F902609D68AC555C88641C24B25C80C1
:10051000B3F90240B3F90450AC4201DB00245C8023
:10052000441C20B2DC88641C24B2DC80B3F9064091
:10053000B3F90450AC4201DA9042E0DB70BD000038
:1005400010B5012004490870012240F227710348C8
:1005500000F061FE10BD00000800002000380140DE
:1005600010B5012004490870012240F227710348A8
:1005700000F051FE10BD00000900002000440040C2
:100580000549096821F01001034A11601146096804
:100590000143116070470000002002400146002026
:1005A000034A106800F038000843106070470000EC
:1005B000002002402DE9F0410246002500260020DF
:1005C00000230024002791F803C00CF00F0591F8D8
:1005D00003C00CF0100CBCF1000F03D091F802C066
:1005E0004CEA050591F800C0BCF1000F31D0146849
:1005F00000202BE04FF0010C0CFA00F3B1F800C022
:100600000CEA03069E4220D183004FF00F0C0CFA37
:1006100003F7BC4305FA03FC4CEA040491F803C059
:10062000BCF1280F06D14FF0010C0CFA00FCC2F807
:1006300014C00AE091F803C0BCF1480F05D14FF097
:10064000010C0CFA00FCC2F810C0401C0828D1D3E1
:100650001460B1F800C0BCF1FF0F34DD5468002015
:100660002EE000F1080C4FF0010808FA0CF3B1F885
:1006700000C00CEA03069E4221D183004FF00F0C0C
:100680000CFA03F7BC4305FA03FC4CEA040491F8A6
:1006900003C0BCF1280F05D100F1080C08FA0CF8D2
:1006A000C2F8148091F803C0BCF1480F07D100F1E3
:1006B000080C4FF0010808FA0CF8C2F81080401C32
:1006C0000828CED35460BDE8F08102460020D368EC
:1006D0000B400BB1012000E0002070470AB101611E
:1006E00000E0416170470000014800787047000059
:1006F000030000200148007870470000020000203D
:1007000000BFFEE710B500F099FB00F02BF800F0F9
:1007100013F800F061F800F00BF800F029F84FF43E
:10072000E13000F065F84FF4165000F069F810BDA4
:1007300010B5FFF739FD10BD10B5FFF761FD10BD15
:1007400030B50B460024048044808280C4808360DE
:10075000002104E0002485686C544C1C21B29142B5
:10076000F8DB30BD10B5FFF751FD10BD704700003C
:1007700030B5164800684FF47A72B0FBF2F1B1F16F
:10078000807F01D301201DE021F07F40401E4FF00B
:10079000E022506150170F22002807DA13071D0EC0
:1007A0000B4B00F00F04241F1D5503E013071C0E14
:1007B000084B1C5400BF00204FF0E022906107203E
:1007C0001061002008B100BFFEE730BD240000200A
:1007D00018ED00E000E400E010B5472140F2E730FA
:1007E000FFF746FD472140F2E730FFF76FFD10BDF0
:1007F00010B5044600F00CF82046FFF797FD10BD39
:1008000010B5044600F024F82046FFF7F1FD10BDB6
:1008100010B5002406E0002009490855094908558B
:10082000601C04B2642CF6DB642205490648FFF71D
:1008300087FF642203490548FFF782FF10BD0000CF
:1008400054000020B80000203C0000204800002098
:1008500010B5002406E0002009490855094908554B
:10086000601C04B2642CF6DB642205490648FFF7DD
:1008700067FF642203490548FFF762FF10BD0000CF
:1008800034010020980100201C01002028010020D4
:1008900070B5044611480088401C1049088008467D
:1008A0000088A04219DB0020088010210C48FFF7C7
:1008B0000CFFC0F10100C5B22A4610210848FFF71D
:1008C0000DFF20210648FFF700FFC0F10100C5B26F
:1008D0002A4620210248FFF701FF70BD00000020DA
:1008E0000010014000BFFEE77047000000F01F024B
:1008F00001219140024A430942F823107047000049
:1009000080E200E000F01F0201219140024A430909
:1009100042F823107047000080E200E070B500212B
:1009200000230F22C47804B3154C246804F4E06457
:10093000C4F5E064210AC1F10403CA40447804FA12
:1009400003F184781440214309010E4C0678A15527
:10095000047804F01F050124AC4005786D11AD004A
:1009600005F1E025C5F8004109E0047804F01F0511
:100970000124AC40044D0678761145F8264070BD40
:100980000CED00E000E400E080E100E002490143FA
:10099000024A1160704700000000FA050CED00E00B
:1009A000704710B5FFF7A0FE08B1FFF7F1FB10BDCF
:1009B00008B5FFF79FFED0B1FA20FFF769FF03E00B
:1009C0000121684600F000FD0121684600F090F921
:1009D0000028F5D103E00121684600F0DDFC01218B
:1009E000684600F093F90028F5D1FFF7D7FB08BD62
:1009F0000146C88808B9012070470020FCE70000C4
:100A000029B1064AD2690243044BDA6104E0034A81
:100A1000D2698243014BDA61704700000010024046
:100A200029B1064A92690243044B9A6104E0034AE1
:100A300092698243014B9A617047000000100240A6
:100A40000F48006840F001000D4908600846406802
:100A50000C4908400A494860084600680A490840AD
:100A6000074908600846006820F4802008600846AE
:100A7000406820F4FE0048604FF41F008860704713
:100A8000001002400000FFF8FFFFF6FE30B5002125
:100A90000022002400232D4D6D6805F00C0121B1CA
:100AA000042905D0082923D105E0294D056022E05D
:100AB000274D05601FE0254D6D6805F47012234D2C
:100AC0006D6805F48034022505EB92421CB9214D76
:100AD000554305600BE01D4D6D6805F400351DB1F3
:100AE0001C4D5543056002E0194D5543056002E079
:100AF000174D056000BF00BF144D6D6805F0F00193
:100B00000909154D6B5C0568DD4045600F4D6D684A
:100B100005F4E061090A104D6B5C4568DD408560B5
:100B20000A4D6D6805F46051C90A0B4D6B5C456850
:100B3000DD40C560054D6D6805F44041890B074DEA
:100B40006B5CC568B5FBF3F5056130BD0010024074
:100B500000127A0000093D000A0000201A0000205F
:100B600010B501460022002300204A11012A02D1BB
:100B7000094C236806E0022A02D1074C236A01E0EF
:100B8000054C636A01F01F02012494401C400CB123
:100B9000012000E0002010BD001002400248406823
:100BA00000F00C00704700000010024001460020D9
:100BB000034A506820F0F00008435060704700007E
:100BC000001002401149096821F480310F4A116078
:100BD0001146096821F480211160B0F5803F03D0EF
:100BE000B0F5802F0ED106E00849096841F4803144
:100BF000064A116007E00549096841F4A021034A4B
:100C0000116000E000BF00BF70470000001002400C
:100C100001460020034A506820F4E0600843506019
:100C2000704700000010024001460020034A50684F
:100C300020F4605040EAC10050607047001002404C
:100C40000149086670470000000042420246002049
:100C5000044B586820F47C1042EA01031843014B0E
:100C6000586070470010024001460020034A506857
:100C700020F003000843506070470000001002405D
:100C800038B5002000900024002500BF3120FFF778
:100C900067FF05460098401C00900098B0F5A06FD3
:100CA00001D0002DF2D03120FFF75AFF08B1012406
:100CB00000E00024204638BD70B50446002501221E
:100CC00021460348FFF7F4FBC5B2284670BD00007B
:100CD0003C00002070B5044600250122214603484F
:100CE000FFF7E6FBC5B2284670BD00001C010020DE
:100CF00070B504460D4600262A4621460248FFF7F5
:100D0000D7FBC6B2304670BD4800002070B504461F
:100D10000D4600262A4621460248FFF7C9FBC6B207
:100D2000304670BD280100207047000010B5044611
:100D3000E1B2054800F005FB00BF4021024800F089
:100D400033FA0028F9D010BD0038014010B500F08A
:100D500001F810BD0CB500200190009033480068E8
:100D600040F480303149086000BF3048006800F42A
:100D7000003000900198401C0190009818B901982B
:100D8000B0F5A06FF1D12948006800F4003010B12F
:100D90000120009001E0002000900098012843D13C
:100DA0002348006840F010002149086008460068A8
:100DB00020F0030008600846006840F00200086068
:100DC0001A48406819494860084640684860084623
:100DD000406840F4806048600846406820F47C1019
:100DE00048600846406840F4E810486008460068DB
:100DF00040F08070086000BF0C48006800F0007090
:100E00000028F9D00948406820F0030007494860ED
:100E10000846406840F00200486000BF0348406850
:100E200000F00C000828F9D10CBD000000100240B1
:100E30000020024010B500F0EFF810BD10B51348C7
:100E4000006840F0010011490860084640681049F8
:100E500008400E494860084600680E4908400B49A2
:100E600008600846006820F4802008600846406852
:100E700020F4FE0048604FF41F008860FFF766FF13
:100E80004FF000600449086010BD000000100240EF
:100E90000000FFF8FFFFF6FE08ED00E010B50121AD
:100EA000880700F04CF8012803D10121800700F0E9
:100EB00037F807480088401C054908800846008824
:100EC000022804DB0020088001200249087010BDC0
:100ED000040000200200002010B501210D4800F0A0
:100EE0002EF8012803D101210A4800F019F80A4818
:100EF0000088401C00B2084908800846B0F900008C
:100F0000B0F57A7F04DB00200880012003490870D7
:100F100010BD0000000C004006000020030000206F
:100F2000CA430282704721B1028842F00102028066
:100F300004E002884FF6FE731A400280704730B515
:100F40000246002000230024158A05EA0103958942
:100F500005EA010413B10CB1012000E0002030BD0E
:100F60001AB183890B43838102E083898B43838198
:100F700070470000002202881D4B98420ED01D4B86
:100F800098420BD0B0F1804F08D01B4B984205D04F
:100F90001A4B984202D01A4B984204D14FF68F73E5
:100FA0001A404B881A43174B984207D0164B984269
:100FB00004D04FF6FF431A40CB881A4302808B8837
:100FC00083850B8803850A4B98420BD0094B9842C6
:100FD00008D00E4B984205D00D4B984202D00D4BD5
:100FE000984201D10B7A0386012383827047000067
:100FF000002C014000340140000400400008004083
:10100000000C00400010004000140040004001406F
:1010100000440140004801400448006820B10348F2
:101020000068401E01490860704700002000002051
:1010300008B50020009040F22551204800F0C1F88A
:1010400058B12520FFF752FC1C4800F075F9C0B2DA
:1010500000909DF8000000F087F90821174800F083
:10106000A3F8012806D10821144800F079F81348A4
:1010700000F062F940F22771104800F0A2F8E0B1E8
:1010800040F227710D4800F074F82520FFF72EFC80
:101090006846FFF711FE9DF80010084800F051F96E
:1010A0000748FFF7A5FC40B1002006490870002260
:1010B00040F22771014800F0AEF808BD0038014049
:1010C0003C0000200800002008B50020009040F2FD
:1010D0002551204800F075F858B12620FFF712FC82
:1010E0001C4800F029F9C0B200909DF8000000F003
:1010F00047F90821174800F057F8012806D10821C0
:10110000144800F02DF8134800F016F940F227714A
:10111000104800F056F8E0B140F227710D4800F099
:1011200028F82620FFF7EEFB6846FFF7D3FD9DF871
:101130000010084800F005F90748FFF759FC40B1D6
:10114000002006490870002240F22771014800F093
:1011500062F808BD004400401C0100200900002086
:1011600001F40072B2F5007F00D100BFCA430280D3
:10117000704710B50022002340F66A14A14200D146
:1011800000BF0A1201249440A3B2DC43048010BDC6
:1011900021B1828942F40052828104E082894DF6B5
:1011A000FF731A408281704702460020B1F5007F2C
:1011B00000D100BF13880B400BB1012000E00020DC
:1011C000704770B50246002400230025002040F639
:1011D0006A16B14200D100BFC1F3421501F01F03EE
:1011E000012606FA03F3012D02D19689334006E069
:1011F000022D02D1168A334001E0968A33400C1248
:10120000012606FA04F41688344013B10CB101200B
:1012100000E0002070BDF0B5034600240026002544
:10122000002040F66A17B94200D100BF1846C1F34A
:10123000421401F01F06012707FA06F5012C01D11F
:101240000C3004E0022C01D1103000E014301AB14F
:1012500007682F43076002E00768AF430760F0BDEF
:101260002DE9F04786B005460E460024A24600BF91
:10127000A1460027B08900B100BF2F462C8A4CF64A
:10128000FF700440F08804432C82AC894EF6F310C2
:101290000440B08831890843718908430443AC8114
:1012A000AC8A4FF6FF400440B0890443AC8201A8E9
:1012B000FFF7ECFB1F48874202D1DDF810A001E0E8
:1012C000DDF80CA0A88900F4004040B10AEBCA0088
:1012D00000EB0A1031684900B0FBF1F807E00AEBB7
:1012E000CA0000EB0A1031688900B0FBF1F86420F5
:1012F000B8FBF0F004012009642101FB1089A889E2
:1013000000F4004040B1322000EBC900B0FBF1F026
:1013100000F00700044308E0322000EB09106421CC
:10132000B0FBF1F000F00F0004432C8106B0BDE8E3
:10133000F08700000038014001468888C0F30800AB
:101340007047C1F30802828070474FF41651016064
:1013500000218180C18001810C2141810021818196
:10136000704700BFFEE7000031B500240122694646
:101370000248FFF7C0F8C4B2204638BD480000203C
:1013800031B50024012269460248FFF7B4F8C4B21F
:10139000204638BD2801002070B504460D460026C1
:1013A0002A4621460648FFF7A6F8C6B2642E04DA9C
:1013B0000448007808B9FFF7C3F8304670BD000054
:1013C0003C0000200800002070B504460D460026B1
:1013D0002A4621460648FFF78EF8C6B2642E04DA84
:1013E0000448007808B9FFF7BBF8304670BD00002C
:1013F0001C01002009000020014A024900F013B836
:10140000491400083800002002E008C8121F08C173
:10141000002AFAD170477047002001E001C1121F75
:10142000002AFBD170472DE9F04116460F460446CD
:10143000002503E03946B047641C6D1C2078002865
:10144000F8D12846BDE8F08170B504460D46E0B2FB
:10145000FFF76CFC204670BDFFF788F9FFF752F9E3
:1014600004A0FFF7C9FF03E0FFF7A2FAFFF799FA1C
:10147000FAE70000496E69742053797374656D2032
:10148000686173206265656E2066696E6973686560
:10149000642E0D0A00000000B814000800000020AF
:1014A0003C00000008140008F41400083C00002070
:1014B000C40500001814000800000000000000002F
:1014C00000000000000001020304010203040607FB
:1014D00008090204060800000000000000A24A04F7
:1014E00000000000000000000102030406070809D4
:0414F00000000000F8
:0400000508000131BD
:00000001FF
