:020000040800F2
:100000002005002045010008350E00089D0C000861
:10001000310E0008970700082B1C000800000000A4
:100020000000000000000000000000008512000831
:10003000910A000800000000D50E00089113000886
:100040005F0100085F0100085F0100085F01000810
:100050005F0100085F0100085F0100085F01000800
:100060005F0100085F0100085F0100085F010008F0
:100070005F0100085F0100085F0100085F010008E0
:100080005F0100085F0100085F0100085F010008D0
:100090005F0100085F0100085F0100085F010008C0
:1000A0005F0100085F0100085F0100085F010008B0
:1000B000391600085F0100085F0100085F010008B1
:1000C0005F0100085F0100085F0100085F01000890
:1000D0005F010008911900085F0100085F01000836
:1000E0005F0100085F0100085F0100085F01000870
:1000F0005F0100085F0100085F0100085F01000860
:100100005F0100085F010008A11600085F010008F8
:100110005F0100085F0100085F0100085F0100083F
:100120005F0100085F0100085F0100085F0100082F
:10013000DFF80CD000F0ECFA004800472D2500084D
:10014000200500200648804706480047FEE7FEE7F6
:10015000FEE7FEE7FEE7FEE7FEE7FEE7FEE7FEE777
:1001600099130008310100082DE9F04D81EA0304DC
:1001700004F0004B21F0004514464FF0000A23F034
:10018000004150EA050220D054EA01021DD0C5F317
:100190000A570246C5F31303C1F31300C1F30A560D
:1001A00040F4801543F48013A7EB0608101BD646D5
:1001B00008F2FD3873EB050002D308F1010801E0F5
:1001C00092185B41B8F1000F03DA00200146BDE848
:1001D000F08D00204FF48011064684460EE0171B78
:1001E00073EB050705D3121B63EB050306434CEACB
:1001F000010C49084FEA300092185B4150EA0107B0
:10020000EDD152EA030012D082EA040083EA05012C
:10021000084305D0101BAB4106D20122002306E0A3
:1002200000224FF0004302E06FF0010253101AEB7E
:1002300006004CEB085110EB0A0041EB0B01BDE846
:10024000F04D00F0BEB80EB5C10F80EAE070084472
:10025000CA07002140F233438DE80E000A460B46E0
:1002600000F0BEF803B000BD00F0004230F00040E6
:100270000AD0C10D01F56071C0F3160042EA0151C8
:10028000C20840071143704700200146704701F043
:10029000004330B421F0004150EA010206D00A0DBB
:1002A000A2F56072C1F31301002A02DC30BC002009
:1002B0007047440F44EAC104C100E01830BC00EBB1
:1002C000C25000F047B830B50B460146002020224E
:1002D000012409E021FA02F59D4205D303FA02F553
:1002E000491B04FA02F52844151EA2F10102F1DCB3
:1002F00030BD2DE9F05F0546002092469B468846BA
:100300000646814640241BE0284641464746224691
:1003100000F01FFA53465A46C01A914110D31146B5
:100320001846224600F006FA2D1A67EB01084F46E0
:1003300022460120002100F0FDF917EB00094E4193
:10034000201EA4F10104DFDC484631462A4643461C
:10035000BDE8F09F0029A8BF7047401C490008BFB6
:1003600020F00100704710B4B0FA80FC00FA0CF0E5
:1003700050EA010404BF10BC704749B1CCF120041D
:1003800021FA04F411FA0CF118BF012121430843AA
:10039000A3EB0C01CB1D4FEA00614FEA102042BFD6
:1003A000002010BC704700EBC35010440029A4BFCC
:1003B00010BC7047401C490008BF20F0010010BC71
:1003C000704710B5141E73F1000408DA401C41F1A7
:1003D000000192185B411A4301D120F0010010BDC9
:1003E0002DE9F04D92469B4611B1B1FA81F202E03F
:1003F000B0FA80F22032904600F09CF904460F4695
:1004000040EA0A0041EA0B0153465A46084313D01A
:10041000114653EA010019D0C8F14002504600F0DD
:1004200098F905460E4650465946424600F082F974
:10043000084305D0012004E020463946BDE8F08D90
:100440000020054346EAE0762C4337430A986305CB
:10045000E40AA0EB08000022FD0A44EA47540A30EF
:1004600002D500200146E9E7010510196941DDE9DF
:10047000084500196941BDE8F04DA2E72DE9FE4F9E
:10048000804681EA0300C00F0C46009021F0004135
:1004900023F00045B8EB0200A94105D240462146B1
:1004A00090461C460B46024623F00040104347D0BE
:1004B000270DC7F30A00C3F30A510290401A0190B6
:1004C00040286BDAC3F3130040F4801B0098924677
:1004D00020B10023D2EB030A63EB0B0B01985946C2
:1004E000C0F14002504600F025F906460D46504640
:1004F0005946019A00F03DF910EB080061410024D3
:1005000087EA115284EAE7731A4340D0009A62B333
:10051000019A012A4FEA075215DC001B61EB020128
:100520004FF0004202EA0752CDE90042001C41F5BB
:10053000801132462B46FFF753FF03B0BDE8F08F22
:1005400040462146F9E7001B61EB0201001C41F522
:10055000801300185B412018A2F5001747EB030138
:1005600040EAD570B6196D4111E06D084FEA3606C4
:1005700045EAC0754FEA0752001B61EB0201001CFF
:1005800041F5801149084FEA3000001951413246C7
:100590002B4603B0BDE8F04FFFF713BF00980122D0
:1005A00040000023D0EB020263EBE0730098214689
:1005B0004FEAE074B8EB000061EB0401E9E783F077
:1005C00000435BE781F0004158E72DE9FE4F81EAE7
:1005D000030404F0004421F0004100944FF0000BAC
:1005E00023F0004350EA01045ED052EA03045BD0DA
:1005F000C3F30A54C1F30A552C44A4F2F334019412
:10060000A0FB0254C1F3130141F48011C3F313039F
:1006100043F4801301FB024400FB034E840A970A53
:1006200044EA815447EA8357A4FB076802958D0A80
:1006300005FB07854FEA932C04FB0C542705029D0C
:100640004FEA065847EA1637B5EB08056EEB070C7C
:10065000870E920E47EA811742EA8312A7FB020136
:10066000B6EB0B0164EB00042B0D43EA0C335E1870
:1006700044EB1C50DA465146E7FB0201C5F3130474
:100680004FEA0B3343EA14534FEA0432019C43EA26
:100690000603A4F10C040294009CCDE900B4FFF71A
:1006A0009FFE03B0BDE8F08F00200146F9E7C1F3DB
:1006B0000A52C1F3130140F2FF3341F480119A4210
:1006C00002DA00200146704740F233439A42A2F218
:1006D000334202DC524200F03CB800F02BB800007C
:1006E00030B5041E71F1000404DB4FF000444042B9
:1006F00064EB0101141E73F1000405DB1C464FF08E
:100700000043524263EB0403994208BF904230BD5C
:10071000064C074D06E0E06840F0010394E807004E
:1007200098471034AC42F6D3FFF706FD6C2500085D
:100730008C250008202A04DB203A00FA02F1002070
:1007400070479140C2F1200320FA03F3194390400F
:100750007047202A04DB203A21FA02F0002170477A
:1007600021FA02F3D040C2F1200291400843194619
:100770007047202A06DBCB17203A41FA02F043EA01
:10078000E07306E041FA02F3D040C2F1200291404A
:1007900008431946704700BFFEE7000000200149EA
:1007A000087070470500002000200149087070475C
:1007B0000400002008B50121102000F009FC1020E1
:1007C000ADF8000003208DF8020010208DF8030022
:1007D00069460D4800F09CF9012210210A4800F0FA
:1007E0002DFA2020ADF8000003208DF80200102023
:1007F0008DF803006946044800F08AF900222021A0
:10080000014800F01BFA08BD0010014010B54FF47C
:10081000A06000F055FB10BD10B500F0E9FB4FF4EF
:10082000803000F0A7FC00F003FD0446012C24D129
:10083000102000F053F9022000F05EF9002000F0D3
:100840008DFC002000F0C8FCA00200F0B9FC4FF4C1
:10085000E011200400F0D2FC012000F0C9FC00BF30
:10086000392000F055FC0028FAD0022000F0D4FC1A
:1008700000BF00F06BFC0828FBD110BD30B589B07B
:1008800005460C460121082000F092FB01210420BE
:1008900000F09EFB0120ADF8200048208DF82300D9
:1008A00008A9204800F034F901211E4800F0C4F9DD
:1008B000ADF81850ADF814400020ADF81A00ADF8AE
:1008C000160005A9184801F005F80020ADF8080049
:1008D0000220ADF80A000120ADF80C000020ADF8B0
:1008E0000E000820ADF8100002A90F4800F05CFFD0
:1008F00032208DF8040002208DF8050000208DF8CC
:10090000060001208DF8070001A800F0A1FA0122DD
:100910000321054800F09EFF0121034800F023FF5A
:1009200009B030BD00080140000C00407FB505460D
:100930000C460121084600F03BFBADF80850ADF82D
:1009400004400020ADF80A00ADF8060001A94FF000
:10095000804000F0BFFF01221146900700F07AFFAF
:100960001C208DF8000000208DF8010003208DF878
:10097000020001208DF80300684600F069FA0121A9
:10098000880700F0F0FE7FBD10B586B00446012157
:10099000880300F01DFB0121042000F019FB4FF437
:1009A0000070ADF8140018208DF8170003208DF8A2
:1009B000160005A9224800F0ABF84FF48060ADF8AE
:1009C000140004208DF8170005A91D4800F0A0F8B8
:1009D00001A801F01EF901940020ADF80800ADF85F
:1009E0000A00ADF80C000C20ADF80E000020ADF8A8
:1009F000100001A9134801F097F825208DF8000098
:100A000001208DF801008DF802008DF80300684682
:100A100000F01EFA012240F225510A4801F05FF869
:100A2000012240F22771074801F059F801210548D9
:100A300001F012F800200449087006B010BD000053
:100A400000080140003801400A00002030B503468C
:100A5000002016E0B3F900509C68645D0C541C88BB
:100A6000641C24B21C80B3F90040B3F90450AC42BA
:100A700001DB00241C80441C20B2DC88641E24B2EC
:100A8000DC80B3F90640002C01DD9042E2DB30BD92
:100A9000704770B50346002016E00C5CB3F90260A5
:100AA0009D68AC555C88641C24B25C80B3F902403C
:100AB000B3F90450AC4201DB00245C80441C20B23A
:100AC000DC88641C24B2DC80B3F90640B3F904501E
:100AD000AC4201DA9042E0DB70BD000005490968D4
:100AE00021F01001034A11601146096801431160A9
:100AF000704700000020024001460020034A1068B1
:100B000000F03800084310607047000000200240E9
:100B10002DE9F04102460025002600200023002494
:100B2000002791F803C00CF00F0591F803C00CF0FA
:100B3000100CBCF1000F03D091F802C04CEA05057F
:100B400091F800C0BCF1000F31D0146800202BE0F8
:100B50004FF0010C0CFA00F3B1F800C00CEA0306E8
:100B60009E4220D183004FF00F0C0CFA03F7BC43D8
:100B700005FA03FC4CEA040491F803C0BCF1280F09
:100B800006D14FF0010C0CFA00FCC2F814C00AE0C8
:100B900091F803C0BCF1480F05D14FF0010C0CFADD
:100BA00000FCC2F810C0401C0828D1D31460B1F872
:100BB00000C0BCF1FF0F34DD546800202EE000F1CE
:100BC000080C4FF0010808FA0CF3B1F800C00CEA69
:100BD00003069E4221D183004FF00F0C0CFA03F75D
:100BE000BC4305FA03FC4CEA040491F803C0BCF1D1
:100BF000280F05D100F1080C08FA0CF8C2F814808F
:100C000091F803C0BCF1480F07D100F1080C4FF078
:100C1000010808FA0CF8C2F81080401C0828CED34E
:100C20005460BDE8F08102460020D3680B400BB150
:100C3000012000E000207047016170470AB10161A6
:100C400000E04161704700000148007870470000F3
:100C500005000020014800787047000004000020D3
:100C6000014600200B4A127802F0800282B1012076
:100C7000084A127802F03F020A600A8812040A60E9
:100C8000054B1B880A681A440A600022014B1A703F
:100C9000704700000C0000200E00002000BFFEE79F
:100CA00010B547214FF6FF70FFF7E8FD10BD10B5F6
:100CB00000F072FB00F029F800F011F84FF4E13079
:100CC00000F063F800F05AF800F005F800F022F8A0
:100CD000FFF7E6FF10BD10B5FFF76CFD10BD10B5B6
:100CE000FFF794FD10BD30B50B460024048044800E
:100CF0008280C4808360002104E0002485686C54F5
:100D00004C1C21B29142F8DB30BD10B5FFF784FDD9
:100D100010BD704730B5164800684FF47A72B0FBCA
:100D2000F2F1B1F1807F01D301201DE021F07F407D
:100D3000401E4FF0E022506150170F22002807DAC2
:100D400013071D0E0B4B00F00F04241F1D5503E06D
:100D500013071C0E084B1C5400BF00204FF0E0226C
:100D6000906107201061002008B100BFFEE730BD90
:100D70002800002018ED00E000E400E010B5472155
:100D800040F2E730FFF7D2FD10BD10B5044600F089
:100D900005F82046FFF7F8FD10BD000010B500244F
:100DA00006E000200949085509490855601C04B2AD
:100DB000642CF6DB642205490648FFF794FF6422A1
:100DC00003490548FFF78FFF10BD000058000020C1
:100DD000BC000020400000204C00002070B50446FC
:100DE00011480088401C1049088008460088A0422D
:100DF00019DB0020088010210C48FFF714FFC0F118
:100E00000100C5B22A4610210848FFF717FF20212C
:100E10000648FFF708FFC0F10100C5B22A462021AD
:100E20000248FFF70BFF70BD0200002000100140D8
:100E300000BFFEE77047000000F01F020121914053
:100E4000024A430942F823107047000080E200E0A4
:100E500070B5002100230F22C47804B3154C246818
:100E600004F4E064C4F5E064210AC1F10403CA405B
:100E7000447804FA03F184781440214309010E4CAC
:100E80000678A155047804F01F050124AC400578CC
:100E90006D11AD0005F1E025C5F8004109E00478C9
:100EA00004F01F050124AC40044D0678761145F886
:100EB000264070BD0CED00E000E400E080E100E0C1
:100EC00002490143024A1160704700000000FA0520
:100ED0000CED00E07047000010B5FFF7B5FE20B143
:100EE00002A000F0B1FEFFF759FC10BD5468697311
:100EF0002069732074686520666972737420535486
:100F00004D3332463130332050726F6A6563742C32
:100F1000206279205A68616E6773616E0D0A000065
:100F20002DE9F843FFF796FE00282CD0FA20FFF7B2
:100F300055FF1648B0F9000004281CDB6846FFF78F
:100F40008FFEA0B10098FFF77EF905460022104BF6
:100F5000FFF70AF90746FFF79AF904462046FFF71C
:100F600083F905462A460B460AA000F06DFE0020D4
:100F70000649088005E005480088401C00B2034986
:100F80000880FFF711FCBDE8F88300000000002096
:100F900000408F40482D25302E32666D730D0A00BB
:100FA0000146C88808B9012070470020FCE700000E
:100FB00029B1064AD2690243044BDA6104E0034ACC
:100FC000D2698243014BDA61704700000010024091
:100FD00029B1064A92690243044B9A6104E0034A2C
:100FE00092698243014B9A617047000000100240F1
:100FF0000F48006840F001000D490860084640684D
:101000000C4908400A494860084600680A490840F7
:10101000074908600846006820F4802008600846F8
:10102000406820F4FE0048604FF41F00886070475D
:10103000001002400000FFF8FFFFF6FE30B500216F
:101040000022002400232D4D6D6805F00C0121B114
:10105000042905D0082923D105E0294D056022E0A7
:10106000274D05601FE0254D6D6805F47012234D76
:101070006D6805F48034022505EB92421CB9214DC0
:10108000554305600BE01D4D6D6805F400351DB13D
:101090001C4D5543056002E0194D5543056002E0C3
:1010A000174D056000BF00BF144D6D6805F0F001DD
:1010B0000909154D6B5C0568DD4045600F4D6D6895
:1010C00005F4E061090A104D6B5C4568DD40856000
:1010D0000A4D6D6805F46051C90A0B4D6B5C45689B
:1010E000DD40C560054D6D6805F44041890B074D35
:1010F0006B5CC568B5FBF3F5056130BD00100240BF
:1011000000127A0000093D0010000020200000209D
:1011100010B501460022002300204A11012A02D105
:10112000094C236806E0022A02D1074C236A01E039
:10113000054C636A01F01F02012494401C400CB16D
:10114000012000E0002010BD00100240024840686D
:1011500000F00C0070470000001002400146002023
:10116000034A506820F0F0000843506070470000C8
:10117000001002401149096821F480310F4A1160C2
:101180001146096821F480211160B0F5803F03D039
:10119000B0F5802F0ED106E00849096841F480318E
:1011A000064A116007E00549096841F4A021034A95
:1011B000116000E000BF00BF704700000010024057
:1011C00001460020034A506820F4E0600843506064
:1011D000704700000010024001460020034A50689A
:1011E00020F4605040EAC100506070470010024097
:1011F0000149086670470000000042420246002094
:10120000044B586820F47C1042EA01031843014B58
:10121000586070470010024001460020034A5068A1
:1012200020F00300084350607047000000100240A7
:1012300038B5002000900024002500BF3120FFF7C2
:1012400067FF05460098401C00900098B0F5A06F1D
:1012500001D0002DF2D03120FFF75AFF08B1012450
:1012600000E00024204638BD70B504460025012268
:1012700021460348FFF7EAFBC5B2284670BD0000CF
:10128000400000207047000010B50446E1B2054858
:1012900000F0BBFC00BF4021024800F0E9FB002841
:1012A000F9D010BD0038014010B500F001F810BDB4
:1012B0000CB50020019000903348006840F4803065
:1012C0003149086000BF3048006800F400300090E9
:1012D0000198401C0190009818B90198B0F5A06FD2
:1012E000F1D12948006800F4003010B101200090CD
:1012F00001E0002000900098012843D123480068B5
:1013000040F01000214908600846006820F0030002
:1013100008600846006840F0020008601A4840680B
:10132000194948600846406848600846406840F4EB
:10133000806048600846406820F47C104860084699
:10134000406840F4E81048600846006840F080704B
:10135000086000BF0C48006800F000700028F9D059
:101360000948406820F00300074948600846406883
:1013700040F00200486000BF0348406800F00C00E5
:101380000828F9D10CBD00000010024000200240E6
:1013900010B500F0F1FA10BD10B51348006840F028
:1013A00001001149086008464068104908400E498C
:1013B0004860084600680E4908400B490860084626
:1013C000006820F4802008600846406820F4FE0091
:1013D00048604FF41F008860FFF766FF4FF0006021
:1013E0000449086010BD0000001002400000FFF832
:1013F000FFFFF6FE08ED00E0F0B50C4615460022B2
:101400000021068C4FF6FE773E400684028B018C4D
:101410004FF60C7632407E1C06EA03162E4332430A
:10142000104EB0420ED0104EB0420BD0B0F1804FF3
:1014300008D00E4EB04205D00D4EB04202D00D4E37
:10144000B04206D14FF6FD76314044F001063143FB
:1014500005E04FF6F576314044F001063143028352
:101460000184F0BD002C0140003401400004004024
:1014700000080040000C0040F0B50C461546002264
:1014800000210026078C4FF6EF7C07EA0C07078443
:10149000028B018C4FF6FF7707EA041640F6FF47F0
:1014A0003A404FF6FF7707EA03373A434FF6FF77A4
:1014B00007EA05273A43114FB8420ED0104FB84201
:1014C0000BD0B0F1804F08D00E4FB84205D00E4F70
:1014D000B84202D00D4FB84206D14FF6DF773940FF
:1014E00046F01007394305E04FF65F77394044F086
:1014F0001007394302830184F0BD0000002C014035
:10150000003401400004004000080040000C00408E
:10151000F0B50C461546002200210026078C4FF638
:10152000FF6C07EA0C070784828B018C4FF6FF776C
:1015300007EA04264FF60C773A404FF6FF7707EAA2
:1015400003172F433A43114FB8420ED0104FB84201
:101550000BD0B0F1804F08D00E4FB84205D00E4FDF
:10156000B84202D00D4FB84206D14FF6FF5739406E
:1015700046F48077394305E04FF2FF57394044F491
:101580008077394382830184F0BD0000002C014044
:10159000003401400004004000080040000C0040FE
:1015A000F0B50C461546002200210026078C4EF6A9
:1015B000FF7C07EA0C070784828B018C4FF6FF77CC
:1015C00007EA043640F6FF473A404FF6FF7707EA4E
:1015D00005273A434FF6FF7707EA03373A43114F9F
:1015E000B8420ED0104FB8420BD0B0F1804F08D0A7
:1015F0000E4FB84205D00E4FB84202D00D4FB84240
:1016000006D14DF6FF77394046F48057394305E05F
:1016100047F6FF57394044F48057394382830184A9
:10162000F0BD0000002C01400034014000040040E7
:1016300000080040000C004010B50121880700F0B0
:10164000A1F8012803D10121800700F089F8104892
:101650000088401C0E4908800E480088401C0D4937
:1016600008800B480088022805DB00200849088014
:1016700001200949087007480088B0F57A7F05DB2A
:1016800000200449088001200449087010BD0000B2
:1016900006000020080000200400002005000020B3
:1016A00010B52C48007800F0800000284CD10121B2
:1016B000294800F067F8D0B12648007800F04000D3
:1016C000A8B12448007800F03F003F280AD1214803
:1016D000007840F080001F4908704FF6FF701F49E6
:1016E000088004E01B480078401C1A490870022159
:1016F000194800F047F838B31648007800F0400069
:1017000078B11448007840F08000124908701248FF
:1017100000F035F81149088002210F4800F0A3F8C5
:1017200012E000200B4908700C49088000210A488B
:1017300000F0A2F80748007840F040000549087022
:101740000021054800F08FF80321034800F008F855
:1017500010BD00000C000020000C00400E00002016
:10176000CA430282704721B1028842F0010202801E
:1017700004E002884FF6FE731A400280704701466B
:10178000888E704730B50246002000230024158A59
:1017900005EA0103958905EA010413B10CB10120A2
:1017A00000E0002030BD000070B505460C4624481E
:1017B00085420ED0234885420BD0B5F1804F08D02A
:1017C0002148854205D02148854202D020488542E3
:1017D00000D100E000BF208850B92389A288618829
:1017E0002846FFF709FEE188284600F047F825E083
:1017F000208804280AD12389A28861882846FFF717
:101800003BFEE188284600F042F817E020880828CF
:101810000AD12389A28861882846FFF779FEE188EA
:10182000284600F041F809E02389A288618828460B
:10183000FFF7B6FEE188284600F03FF870BD0000D3
:10184000002C01400034014000040040000800402A
:10185000000C00401AB183890B43838102E0838925
:101860008B43838170470A460021018C4FF6FD733C
:10187000194011430184704781847047028B4FF6F1
:10188000F3731A400283028B0A4302837047028B70
:101890004FF2FF331A400283028B4FF6FF7303EAC5
:1018A00001231A4302837047828B4FF6F3731A4069
:1018B0008283828B0A4382837047828B4FF2FF338D
:1018C0001A408283828B4FF6FF7303EA01231A4387
:1018D00082837047002202881D4B98420ED01D4B18
:1018E00098420BD0B0F1804F08D01B4B984205D0E6
:1018F0001A4B984202D01A4B984204D14FF68F737C
:101900001A404B881A43174B984207D0164B9842FF
:1019100004D04FF6FF431A40CB881A4302808B88CD
:1019200083850B8803850A4B98420BD0094B98425C
:1019300008D00E4B984205D00D4B984202D00D4B6B
:10194000984201D10B7A03860123838270470000FD
:10195000002C014000340140000400400008004019
:10196000000C004000100040001400400040014006
:1019700000440140004801400448006820B1034889
:101980000068401E014908607047000024000020E4
:1019900008B50020009040F22551204800F075F86D
:1019A00058B12520FFF748FA1C4800F029F9C0B2C9
:1019B00000909DF8000000F03BF90821174800F066
:1019C00057F8012806D10821144800F02DF81348D3
:1019D00000F016F940F22771104800F056F8E0B117
:1019E00040F227710D4800F028F82520FFF724FA6F
:1019F0006846FFF739FC9DF80010084800F005F92B
:101A00000748FFF7CDFA40B10020064908700022D0
:101A100040F22771014800F062F808BD003801402B
:101A2000400000200A00002001F40072B2F5007F9F
:101A300000D100BFCA430280704710B500220023C6
:101A400040F66A14A14200D100BF0A12012494405A
:101A5000A3B2DC43048010BD21B1828942F400525C
:101A6000828104E082894DF6FF731A4082817047BB
:101A700002460020B1F5007F00D100BF13880B4063
:101A80000BB1012000E00020704770B50246002431
:101A900000230025002040F66A16B14200D100BFA5
:101AA000C1F3421501F01F03012606FA03F3012DCD
:101AB00002D19689334006E0022D02D1168A3340C6
:101AC00001E0968A33400C12012606FA04F41688C7
:101AD000344013B10CB1012000E0002070BDF0B51E
:101AE0000346002400260025002040F66A17B9426C
:101AF00000D100BF1846C1F3421401F01F060127B0
:101B000007FA06F5012C01D10C3004E0022C01D1BA
:101B1000103000E014301AB107682F43076002E06C
:101B20000768AF430760F0BD2DE9F04786B0054672
:101B30000E460024A24600BFA1460027B08900B18E
:101B400000BF2F462C8A4CF6FF700440F0880443F7
:101B50002C82AC894EF6F3100440B08831890843DA
:101B6000718908430443AC81AC8A4FF6FF400440BE
:101B7000B0890443AC8201A8FFF760FA1F4887428E
:101B800002D1DDF810A001E0DDF80CA0A88900F476
:101B9000004040B10AEBCA0000EB0A10316849006E
:101BA000B0FBF1F807E00AEBCA0000EB0A1031685D
:101BB0008900B0FBF1F86420B8FBF0F004012009C3
:101BC000642101FB1089A88900F4004040B1322053
:101BD00000EBC900B0FBF1F000F00700044308E09F
:101BE000322000EB09106421B0FBF1F000F00F008F
:101BF00004432C8106B0BDE8F087000000380140A6
:101C000001468888C0F308007047C1F3080282804B
:101C100070474FF41651016000218180C18001811D
:101C20000C21418100218181704700BFFEE7000047
:101C300031B50024012269460248FEF72AFFC4B2EA
:101C4000204638BD4C0000200FB4054B10B503A949
:101C5000044A029800F0CAF810BC5DF814FB0000BA
:101C60001B2500083C00002002E008C8121F08C124
:101C7000002AFAD170477047002001E001C1121F0D
:101C8000002AFBD1704700002DE9FF5FDDE902204B
:101C9000010DDDF838B0024318D044F61050A1F21F
:101CA000FF3141430D140F98012820D0A5EB0B0004
:101CB000401C5FEA000A4FF00004474EDFF81C9119
:101CC000A046504616D5CAF1000728E00F98012417
:101CD00043A2012808D0002100980F9BC0E90021F1
:101CE000C0E90243BDE8FF9F6FEA0B01F4E7CBF1C7
:101CF0000000DEE7074612E0F80707D02246334629
:101D000040464946FEF761FC8046894622463346F6
:101D100010461946FEF759FC04460E467F10002F68
:101D2000EAD1DDE90201BAF1000F42464B4602DA80
:101D3000FEF74BFC01E0FEF717FA04460E460022C0
:101D4000284BFEF7CDFC03D84FF0FF30014607E0EB
:101D50000022254B20463146FEF790FBFEF7A7FCFC
:101D6000102409E0002C0ADB0A220023FEF7C1FA46
:101D7000019B30321A55641E50EA0102F2D1641CF4
:101D8000019AC4F1110314440F9A012A03D00122CD
:101D900008430DD10AE0084304D000204FF0110B96
:101DA0000F9080E7A3EB0B056D1E0DE05B4504DD96
:101DB0004FF0000205F1010504E003DA4FF00002E4
:101DC000A5F10105002AECD000980F99C0E9023175
:101DD000C0E9004586E70000000024400000F03F15
:101DE000300000000000F0430000E03F2DE9FF4F0D
:101DF00095B09B468946064600250FE2252877D1F7
:101E000000242746F84A0121059400E0044316F80F
:101E1000013F203B01FA03F01042F7D130782A2825
:101E200011D06FF02F033078A0F13002092A16D8B4
:101E3000059A44F0020402EB820203EB42021044D2
:101E4000761C0590EFE759F8042B0592002A03DA77
:101E5000504244F40054059044F00204761C30785B
:101E60002E2816D116F8010F44F004042A280DD0AC
:101E70006FF02F023078A0F13003092B09D807EB5F
:101E8000870302EB4303C718761CF3E759F8047B7A
:101E9000761C30786C280FD006DC4C2817D06828C8
:101EA0000DD06A2814D104E0742810D07A280FD1FC
:101EB0000DE044F400140AE044F4801401E044F41A
:101EC00040147278824202D104F58014761C761C8C
:101ED000307866280BD013DC582877D009DC00282E
:101EE00075D04528F6D04628F4D047281AD19DE170
:101EF00018E0632835D0642879D0652812D195E19F
:101F0000702873D008DC6728F1D069286FD06E285C
:101F10000DD06F2806D1B5E073282CD0752875D068
:101F2000782874D05A46179990476D1C75E1C4F310
:101F30000250022809D003280DD0D9F80010042837
:101F40000DD00D6009F1040967E1D9F80010EA1716
:101F5000C1E90052F6E7D9F800100D80F2E70D70E4
:101F6000F0E719F8041B8DF8001000208DF801002F
:101F7000EA46012003E059F804AB4FF0FF30610757
:101F80004FF0000102D40DE008F101018846B9428A
:101F90000FDA8045F8DB1AF808100029F4D108E0C0
:101FA00008F1010188468142FADB1AF8081000297D
:101FB000F6D105985B46A0EB080721463846179AEC
:101FC00000F094FA284400EB080507E04DE029E111
:101FD0000DE01AF8010B5A4617999047B8F101081D
:101FE000F7D25B4621463846179A13E142E00A22AF
:101FF0000092C4F302524FF0000A022A08D059F8A6
:1020000004CB032A4FEAEC710AD00DE029E02AE064
:1020100009F1070121F00702F2E802C1914609E047
:102020000FFA8CFC4FEAEC71042A03D14FFA8CFCB6
:102030004FEAEC71002907DA0A460021DCF1000CB6
:1020400061EB02012D2202E0220504D52B228DF83E
:102050000420012203E0E20701D02022F7E79046A6
:1020600059E00A2102E010220DE010214FF0000A91
:1020700000910BE010224FF0000A44F004040827FE
:10208000009203E008224FF0000A0092C4F30252CB
:10209000022A05D059F804CB0021032A08D009E010
:1020A00009F1070121F00702F2E802C1914605E0BB
:1020B0001FFA8CFC042A01D10CF0FF0C4FF0000831
:1020C000220728D5702806D0009B83F0100353EA1E
:1020D0000A0305D00EE040228DF80420012208E01A
:1020E0005CEA010206D030228DF804208DF805004C
:1020F00002229046009B83F0080353EA0A030AD1A8
:102100005CEA010201D1620705D530228DF8042076
:102110004FF001087F1E582804D034A003900EA869
:1021200002900DE036A0F9E753466046009AFEF7AC
:10213000E0F884460398825C0298401E0290027088
:102140005CEA0100F0D1029806A9081A00F1200A01
:10215000600702D524F4803400E00127574502DDF2
:10216000A7EB0A0000E0002000EB0A0100900598B0
:102170004144401A0590E00306D45B462146179A75
:10218000059800F0B3F90544002706E001A85A4677
:10219000C05D179990476D1C7F1C4745F6DBE00337
:1021A0000CD55B462146179A059800F09FF9054427
:1021B00004E030205A46179990476D1C0099481E3C
:1021C00000900029F5DC08E0029802995A46007850
:1021D000491C0291179990476D1CBAF10001AAF1B0
:1021E000010AF1DC65E100000928010030313233D9
:1021F0003435363738396162636465660000000043
:10220000303132333435363738394142434445462C
:102210000000000000F058F90544761C30780028D2
:102220007FF4ECAD19B02846BDE8F08F620700D40A
:10223000062709F1070222F0070CFCE80223E14619
:1022400003F000485FEA080C02D00FF2702C0DE09A
:102250005FEA045C02D50FF2682C07E05FEAC47CF9
:1022600002D00FF2602C01E0AFF2700C4FF0FF389B
:1022700023F00043CDF850C065280CD006DC45287B
:1022800009D046281DD047283DD13DE0662818D00A
:1022900067287ED138E00021112F01DB112000E0FA
:1022A000781CCDE9000106A90EA8FFF7EDFCDDE9D9
:1022B0000F010E9A03910021009207F1010A049187
:1022C0004DE04FF000400097CDE9011006A90EA89F
:1022D000FFF7DAFCDDE90F0203920E9B1199002251
:1022E000DDF80CA00093049211B9791C00EB010AEF
:1022F000B7EB0A0004D4C0F1FF3007F1010A0490E3
:10230000AAEB0700019044E0012F00DA0127002129
:10231000112F01DD112000E03846CDE9000106A9AA
:102320000EA8FFF7B1FCDDE90F010E9A0391002121
:1023300004910092BA4621070CD40399514500DA62
:102340008A46BAF1010F05DD009AAAF10101515C3C
:10235000302908D0B84202DA10F1040F06DA012160
:10236000CDE9011015E0AAF10101E9E7002805DC3B
:10237000049901440491AAEB000102E0411C51457B
:1023800000DD8A460499401A401C01904FF000403D
:102390000290200704D40198504501DBCDF8048059
:1023A00000208DF84F0002980DF14F07B0F1004F5B
:1023B00025D02B200E9002984FF0020800280CDA4E
:1023C000404202902D200E9007E00A210298FDF76E
:1023D0007AFF3031029007F8011DB8F10001A8F131
:1023E0000108F2DC02980028EFD1791E0E980870DF
:1023F000307800F0200040F0450007F8020D12A8E8
:10240000C01B00F107081498007800B1012000EB10
:102410000A01019801EBE07105984144401A401E01
:102420000590E00306D45B462146179A059800F014
:102430005DF805441498007818B15A4617999047EA
:102440006D1CE00324D55B462146179A059800F0E1
:102450004DF805441CE00498002807DBDDE9030182
:10246000884203DD0098405C179901E017993020FD
:102470005A469047049805F10105401C04900198C4
:10248000401E019004D12E205A46179990476D1C8A
:10249000BAF10001AAF1010ADDDC05E017F8010B31
:1024A0005A46179990476D1CB8F10001A8F1010830
:1024B000F4DC5B462146179A0598ABE62D00000038
:1024C0002B000000200000002DE9F041044600250B
:1024D0001E461746880404D405E039462020B0473C
:1024E0006D1C641EF9D52846BDE8F0812DE9F04148
:1024F000044600251E469046C80301D5302700E05B
:102500002027880404D505E041463846B0476D1CB5
:10251000641EF9D52846BDE8F08170B504460D4625
:10252000E0B2FEF7B1FE204670BD0000FEF7F1FB01
:10253000FEF7BDFB04A0FFF787FB03E0FEF7F0FC0E
:10254000FEF7CAFCFAE70000496E697420537973FC
:1025500074656D20686173206265656E2066696EC2
:1025600069736865642E0D0A000000008C25000860
:102570000000002040000000681C0008CC25000876
:1025800040000020E0040000781C0008000000006B
:10259000000000000000000000000000000000003B
:1025A00001020304010203040607080902040608E5
:1025B0000000000000A24A0400000000000000002B
:0C25C000010203040607080900000000E7
:0400000508000131BD
:00000001FF
