:020000040800F2
:100000002805002045010008DD07000885060008D6
:10001000D9070008E50100089F1100080000000052
:10002000000000000000000000000000F10B0008CC
:10003000350400080000000089080008090D0008C8
:100040005F0100085F0100085F0100085F01000810
:100050005F0100085F0100085F0100085F01000800
:100060005F0100085F0100085F0100085F010008F0
:100070005F0100085F0100085F0100085F010008E0
:100080005F0100085F0100085F0100085F010008D0
:100090005F0100085F0100085F0100085F010008C0
:1000A0005F0100085F0100085F0100085F010008B0
:1000B000710D00085F0100085F0100085F01000882
:1000C0005F0100085F0100085F0100085F01000890
:1000D0005F010008050F00085F0100085F010008CC
:1000E0005F0100085F0100085F0100085F01000870
:1000F0005F0100085F0100085F0100085F01000860
:100100005F0100085F010008AD0D00085F010008F5
:100110005F0100085F0100085F0100085F0100083F
:100120005F0100085F0100085F0100085F0100082F
:10013000DFF80CD000F044F800480047D51600085E
:10014000280500200648804706480047FEE7FEE7EE
:10015000FEE7FEE7FEE7FEE7FEE7FEE7FEE7FEE777
:10016000110D000831010008004870473C180008D4
:1001700040EA01039B0703D009E008C9121F08C029
:10018000042AFAD203E011F8013B00F8013B521EA9
:10019000F9D2704730B50B460146002020220124D9
:1001A00009E021FA02F59D4205D303FA02F5491B45
:1001B00004FA02F52844151EA2F10102F1DC30BD5B
:1001C000064C074D06E0E06840F0010394E80700A4
:1001D00098471034AC42F6D3FFF7AEFF781800080A
:1001E0009818000800BFFEE700200149087070471A
:1001F0000D00002000200149087070470C0000200D
:1002000010B54FF4A06000F02FFB10BD10B500F04A
:1002100079FB4FF4803000F037FC00F093FC04468B
:10022000012C24D1102000F075F9022000F080F993
:10023000002000F01DFC002000F058FCA00200F09F
:1002400049FC4FF4E011200400F062FC012000F0B2
:1002500059FC00BF392000F0E5FB0028FAD002204D
:1002600000F064FC00BF00F0FBFB0828FBD110BDD0
:100270007FB505460C460121084600F023FBADF88A
:100280000850ADF804400020ADF80A00ADF80600B3
:1002900001A94FF0804000F0D7FD012211469007E0
:1002A00000F0C8FD1C208DF8000000208DF8010032
:1002B00003208DF8020001208DF80300684600F04D
:1002C0009BFA0121880700F098FD7FBD7FB50546A8
:1002D0000C460121082000F0F5FAADF80850ADF801
:1002E00004400020ADF80A00ADF8060001A90E4850
:1002F00000F0AAFD012211460B4800F09BFD3220C0
:100300008DF8000000208DF8010003208DF8020018
:1003100001208DF80300684600F06EFA01210248C2
:1003200000F06BFD7FBD0000000C004010B586B0F2
:1003300004460121880300F0D5FA0121042000F0D1
:10034000D1FA4FF40070ADF8140018208DF81700A2
:1003500003208DF8160005A9224800F0F5F84FF4A7
:100360008060ADF8140004208DF8170005A91D4821
:1003700000F0EAF801A800F006FF01940020ADF8B3
:100380000800ADF80A00ADF80C000C20ADF80E0026
:100390000020ADF8100001A9134800F07FFE2520D1
:1003A0008DF8000001208DF801008DF802008DF815
:1003B0000300684600F020FA012240F225510A4865
:1003C00000F047FE012240F22771074800F041FE8D
:1003D0000121054800F0FAFD00200449087006B02C
:1003E00010BD00000008014000380140120000204C
:1003F00030B50346002016E0B3F900509C68645DF8
:100400000C541C88641C24B21C80B3F90040B3F95E
:100410000450AC4201DB00241C80441C20B2DC8868
:10042000641E24B2DC80B3F90640002C01DD90424A
:10043000E2DB30BD704700002DE9F04194B0054685
:1004400030221A4908A8FFF793FE1C2217493031C1
:1004500001A8FFF78DFE0024A81C072190FBF1F2F4
:1004600001FB120007B24FF001082E4600BF0FE05B
:1004700008A850F82400B04203DB601C0FFA80F893
:1004800008E008A830F82400301A06B2601C04B254
:100490000C2CEDDB00BF01A850F827303246414656
:1004A00003A000F08BFE14B0BDE8F0816C170008CB
:1004B000BDF1CCECCAC732303235C4EA253264D43F
:1004C000C2253264C8D52C25730A000070B50346D6
:1004D000002016E00C5CB3F902609D68AC555C88A6
:1004E000641C24B25C80B3F90240B3F90450AC42FE
:1004F00001DB00245C80441C20B2DC88641C24B234
:10050000DC80B3F90640B3F90450AC4201DA904202
:10051000E0DB70BD0549096821F01001034A116054
:100520001146096801431160704700000020024035
:1005300001460020034A106800F0380008431060AC
:1005400070470000002002402DE9F04102460025DE
:100550000026002000230024002791F803C00CF09F
:100560000F0591F803C00CF0100CBCF1000F03D084
:1005700091F802C04CEA050591F800C0BCF1000FEB
:1005800031D0146800202BE04FF0010C0CFA00F37E
:10059000B1F800C00CEA03069E4220D183004FF060
:1005A0000F0C0CFA03F7BC4305FA03FC4CEA0404F5
:1005B00091F803C0BCF1280F06D14FF0010C0CFAE2
:1005C00000FCC2F814C00AE091F803C0BCF1480F67
:1005D00005D14FF0010C0CFA00FCC2F810C0401C11
:1005E0000828D1D31460B1F800C0BCF1FF0F34DD8E
:1005F000546800202EE000F1080C4FF0010808FAC2
:100600000CF3B1F800C00CEA03069E4221D183002E
:100610004FF00F0C0CFA03F7BC4305FA03FC4CEA4D
:10062000040491F803C0BCF1280F05D100F1080CB7
:1006300008FA0CF8C2F8148091F803C0BCF1480F16
:1006400007D100F1080C4FF0010808FA0CF8C2F8C5
:100650001080401C0828CED35460BDE8F081000013
:1006600001480078704700000D0000200148007824
:10067000704700000C0000200149B1F900007047EC
:100680000600002000BFFEE710B500F041FB00F0BF
:1006900021F800F009F84FF4E13000F075F800F0AF
:1006A00067F800F031F810BD10B5FFF7A9FD10BDD7
:1006B00030B50B460024048044808280C48083606F
:1006C000002104E0002485686C544C1C21B2914246
:1006D000F8DB30BD10B5FFF799FD10BD00200449CF
:1006E000088004490880044908800449088070474C
:1006F000000000200200002004000020060000206E
:1007000010B5FFF7EBFF10BD30B5164800684FF489
:100710007A72B0FBF2F1B1F1807F01D301201DE0CC
:1007200021F07F40401E4FF0E022506150170F2211
:10073000002807DA13071D0E0B4B00F00F04241FCF
:100740001D5503E013071C0E084B1C5400BF00206E
:100750004FF0E022906107201061002008B100BF37
:10076000FEE730BD2800002018ED00E000E400E0C6
:1007700010B5472140F2E730FFF77AFD472140F2FC
:10078000E730FFF7A3FD10BD10B5044600F004F8F4
:100790002046FFF7CBFD10BD10B5002406E0002079
:1007A0000949085509490855601C04B2642CF6DB58
:1007B000642205490648FFF77BFF64220349054888
:1007C000FFF776FF10BD00005C000020C000002095
:1007D000440000205000002000BFFEE770470000EA
:1007E00000F01F0201219140024A430942F8231000
:1007F0007047000080E200E070B5002100230F2266
:10080000C47804B3154C246804F4E064C4F5E064CF
:10081000210AC1F10403CA40447804FA03F1847840
:100820001440214309010E4C0678A155047804F0C8
:100830001F050124AC4005786D11AD0005F1E025E0
:10084000C5F8004109E0047804F01F050124AC401C
:10085000044D0678761145F8264070BD0CED00E099
:1008600000E400E080E100E002490143024A116037
:10087000704700000000FA050CED00E00149087027
:100880007047000008000020704710B5FFF7E8FE31
:1008900038B1FFF7F1FE04462046FFF7CDFDFFF724
:1008A000A3FC10BD10B5FFF7E1FE18B100F074F91C
:1008B000FFF7A0FC10BD0146C88808B901207047A9
:1008C0000020FCE729B1064AD2690243044BDA61F1
:1008D00004E0034AD2698243014BDA6170470000A9
:1008E0000010024029B1064A92690243044B9A6102
:1008F00004E0034A92698243014B9A617047000009
:10090000001002400F48006840F001000D490860E7
:10091000084640680C4908400A4948600846006893
:100920000A490840074908600846006820F480200A
:1009300008600846406820F4FE0048604FF41F003D
:1009400088607047001002400000FFF8FFFFF6FECD
:1009500030B500210022002400232D4D6D6805F0E4
:100960000C0121B1042905D0082923D105E0294D26
:10097000056022E0274D05601FE0254D6D6805F4F8
:100980007012234D6D6805F48034022505EB924208
:100990001CB9214D554305600BE01D4D6D6805F4F4
:1009A00000351DB11C4D5543056002E0194D5543FE
:1009B000056002E0174D056000BF00BF144D6D6873
:1009C00005F0F0010909154D6B5C0568DD404560D7
:1009D0000F4D6D6805F4E061090A104D6B5C4568C8
:1009E000DD4085600A4D6D6805F46051C90A0B4D04
:1009F0006B5C4568DD40C560054D6D6805F44041A0
:100A0000890B074D6B5CC568B5FBF3F5056130BD1F
:100A10000010024000127A0000093D00130000207F
:100A20002300002010B501460022002300204A11B7
:100A3000012A02D1094C236806E0022A02D1074CA0
:100A4000236A01E0054C636A01F01F02012494400F
:100A50001C400CB1012000E0002010BD001002403D
:100A60000248406800F00C0070470000001002408F
:100A700001460020034A506820F0F000084350600F
:100A800070470000001002401149096821F48031CC
:100A90000F4A11601146096821F480211160B0F5F8
:100AA000803F03D0B0F5802F0ED106E008490968D9
:100AB00041F48031064A116007E00549096841F4B4
:100AC000A021034A116000E000BF00BF7047000092
:100AD0000010024001460020034A506820F4E06004
:100AE000084350607047000000100240014600209B
:100AF000034A506820F4605040EAC10050607047DB
:100B000000100240014908667047000000004242A0
:100B100002460020044B586820F47C1042EA01038E
:100B20001843014B586070470010024001460020F6
:100B3000034A506820F003000843506070470000EB
:100B40000010024038B5002000900024002500BFAE
:100B50003120FFF767FF05460098401C0090009881
:100B6000B0F5A06F01D0002DF2D03120FFF75AFF71
:100B700008B1012400E00024204638BD70B50446C9
:100B80000025012221460348FFF732FCC5B2284662
:100B900070BD0000440000201248B0F9000040F28F
:100BA000F311884217DB10480078A0B90F48B0F95C
:100BB000000040F26D11884206DA0C480088401CA3
:100BC00000B20A49088002E001200849088000209C
:100BD0000449088005E003480088401C00B2014930
:100BE000088070470A00002008000020060000204E
:100BF0007047000010B50446E1B2054800F0BFFAA6
:100C000000BF4021024800F0EDF90028F9D010BDE6
:100C10000038014010B500F001F810BD0CB50020FF
:100C2000019000903348006840F4803031490860FA
:100C300000BF3048006800F4003000900198401C6C
:100C40000190009818B90198B0F5A06FF1D129482A
:100C5000006800F4003010B10120009001E0002095
:100C600000900098012843D12348006840F010000C
:100C7000214908600846006820F003000860084623
:100C8000006840F0020008601A484068194948604E
:100C90000846406848600846406840F48060486004
:100CA0000846406820F47C1048600846406840F4DC
:100CB000E81048600846006840F08070086000BF97
:100CC0000C48006800F000700028F9D0094840681E
:100CD00020F00300074948600846406840F00200E1
:100CE000486000BF0348406800F00C000828F9D1B4
:100CF0000CBD0000001002400020024001490880A5
:100D0000704700000600002010B500F0EFF810BD9D
:100D100010B51348006840F001001149086008460A
:100D20004068104908400E494860084600680E496E
:100D300008400B4908600846006820F480200860DD
:100D40000846406820F4FE0048604FF41F008860A9
:100D5000FFF760FF4FF000600449086010BD00001D
:100D6000001002400000FFF8FFFFF6FE08ED00E073
:100D700010B50121880700F04CF8012803D10121AA
:100D8000800700F037F807480088401C05490880B4
:100D900008460088022804DB002008800120024960
:100DA000087010BD0E0000200C00002010B50121BD
:100DB0000D4800F02EF8012803D101210A4800F067
:100DC00019F80A480088401C00B208490880084603
:100DD000B0F90000B0F57A7F04DB00200880012024
:100DE0000349087010BD0000000C004010000020F6
:100DF0000D000020CA430282704721B1028842F0F0
:100E00000102028004E002884FF6FE731A4002805D
:100E1000704730B50246002000230024158A05EAF9
:100E20000103958905EA010413B10CB1012000E02A
:100E3000002030BD1AB183890B43838102E083898E
:100E40008B43838170470000002202881D4B98422B
:100E50000ED01D4B98420BD0B0F1804F08D01B4BE9
:100E6000984205D01A4B984202D01A4B984204D1AE
:100E70004FF68F731A404B881A43174B984207D08E
:100E8000164B984204D04FF6FF431A40CB881A43C2
:100E900002808B8883850B8803850A4B98420BD090
:100EA000094B984208D00E4B984205D00D4B984202
:100EB00002D00D4B984201D10B7A03860123838225
:100EC00070470000002C0140003401400004004045
:100ED00000080040000C00400010004000140040DA
:100EE00000400140004401400048014004480068BF
:100EF00020B103480068401E0149086070470000A7
:100F00003C00002008B50020009040F22551204808
:100F100000F075F858B12520FFF762FC1C4800F07E
:100F200029F9C0B200909DF8000000F03BF90821BB
:100F3000174800F057F8012806D10821144800F09E
:100F40002DF8134800F016F940F22771104800F010
:100F500056F8E0B140F227710D4800F028F825203E
:100F6000FFF73EFC6846FFF709FE9DF800100848B1
:100F700000F005F90748FFF79EFC40B10020064944
:100F80000870002240F22771014800F062F808BDA5
:100F900000380140440000201200002001F40072DB
:100FA000B2F5007F00D100BFCA430280704710B580
:100FB0000022002340F66A14A14200D100BF0A12A9
:100FC00001249440A3B2DC43048010BD21B1828986
:100FD00042F40052828104E082894DF6FF731A4088
:100FE0008281704702460020B1F5007F00D100BF2A
:100FF00013880B400BB1012000E00020704770B552
:101000000246002400230025002040F66A16B14263
:1010100000D100BFC1F3421501F01F03012606FAFB
:1010200003F3012D02D19689334006E0022D02D14F
:10103000168A334001E0968A33400C12012606FAE4
:1010400004F41688344013B10CB1012000E00020F4
:1010500070BDF0B50346002400260025002040F6B0
:101060006A17B94200D100BF1846C1F3421401F01B
:101070001F06012707FA06F5012C01D10C3004E008
:10108000022C01D1103000E014301AB107682F4350
:10109000076002E00768AF430760F0BD2DE9F04745
:1010A00086B005460E460024A24600BFA146002792
:1010B000B08900B100BF2F462C8A4CF6FF70044067
:1010C000F08804432C82AC894EF6F3100440B088BB
:1010D00031890843718908430443AC81AC8A4FF6D7
:1010E000FF400440B0890443AC8201A8FFF730FC04
:1010F0001F48874202D1DDF810A001E0DDF80CA006
:10110000A88900F4004040B10AEBCA0000EB0A10C5
:1011100031684900B0FBF1F807E00AEBCA0000EBC8
:101120000A1031688900B0FBF1F86420B8FBF0F0D8
:1011300004012009642101FB1089A88900F4004002
:1011400040B1322000EBC900B0FBF1F000F0070025
:10115000044308E0322000EB09106421B0FBF1F0F9
:1011600000F00F0004432C8106B0BDE8F0870000BA
:101170000038014001468888C0F308007047C1F379
:101180000802828070474FF416510160002181806F
:10119000C18001810C21418100218181704700BF04
:1011A000FEE7000031B50024012269460248FFF73E
:1011B0008DF9C4B2204638BD500000200FB4054B55
:1011C00010B503A9044A029800F018F810BC5DF8A5
:1011D00014FB0000C51600084000002002E008C80B
:1011E000121F08C1002AFAD170477047002001E0A1
:1011F00001C1121F002AFBD1704700002DE9FF4FEB
:101200008BB088460546002606E025280BD0DDE990
:101210000D1290476D1C761C28780028F5D10FB070
:101220003046BDE8F08F0024A146A2460122AE4917
:1012300000E0044315F8013F203B02FA03F00842A6
:10124000F7D128782A2810D06FF02F022878A0F143
:101250003001092915D809EB890102EB410144F05D
:10126000020400EB01096D1CF0E758F8041B5FEA6B
:10127000010903D544F40054C9F1000944F0020403
:101280006D1C28782E2817D115F8010F44F004049E
:101290002A280ED06FF02F022878A0F130010929FA
:1012A0000AD80AEB8A0102EB410100EB010A6D1C2E
:1012B000F2E758F804AB6D1C28786C280FD006DCD8
:1012C0004C2817D068280DD06A2814D104E074285F
:1012D00010D07A280FD10DE044F400140AE044F451
:1012E000801401E044F440146978814202D104F58D
:1012F00080146D1C6D1C2878692865D006DC0028D8
:101300008DD0632827D0642806D15DE06E2808D0F0
:1013100073282AD0752877D0DDE90D129047761C06
:10132000E0E0C4F30250022809D003280DD0D8F819
:10133000001004280DD00E6008F10408D2E0D8F89F
:101340000010F217C1E90062F6E7D8F800100E802D
:10135000F2E70E70F0E718F8041B8DF8001000207B
:101360008DF80100EB46012003E058F804BB4FF074
:10137000FF3061074FF0000701D40AE07F1C57459A
:101380000DDA8742FADB1BF807100029F6D106E0D8
:101390007F1C8742FCDB1BF807100029F8D1DDE930
:1013A0000D23A9EB07008146214600F0B1F8304437
:1013B000C61904E0DDE90D121BF8010B90477F1EF2
:1013C000F8D22146484688E058F8040BC4F302518D
:1013D0004FF00A0B032900D100B2042900D140B21A
:1013E000002802DA40422D2102E0210505D52B21FB
:1013F0008DF82410012104E006E0E10710D020213F
:10140000F6E708AF089113E058F8040BC4F3025153
:101410004FF00A0B032900D180B2042900D1C0B2D9
:101420000021EEE75946FEF7B5FE303107F8011D01
:101430000028F7D1ADEB070000F1200B600702D5C3
:1014400024F4803401E04FF0010ADA4502DDAAEB12
:101450000B0000E00020824600EB0B0108980144DD
:10146000A9EB01000A90E00306D4DDE90D23214633
:101470000A9800F04DF806444FF0000908E009A969
:1014800011F80900DDE90D12904709F10109761CF8
:1014900008998945F3DBE0030CD5DDE90D232146EE
:1014A0000A9800F035F8064404E0DDE90D1230201A
:1014B0009047761CBAF10001AAF1010AF5DC05E0BB
:1014C000DDE90D1217F8010B9047761CBBF1000106
:1014D000ABF1010BF4DC0A982146DDE90D2300F0A5
:1014E00005F806446D1C97E6092801002DE9F04136
:1014F000044600251E461746880404D405E03946F4
:101500002020B0476D1C641EF9D52846BDE8F08147
:101510002DE9F041044600251E469046C80301D53A
:10152000302700E02027880404D505E041463846EE
:10153000B0476D1C641EF9D52846BDE8F081000057
:101540003EB504460BA0FFF739FE6B4601AA02A97F
:10155000204600F039F810B14FF0FF303EBD0EA02C
:10156000DDE90021FFF72AFEDDE9001000F01AF89E
:10157000F4E70000496E69742053797374656D2037
:10158000686173206265656E2066696E697368655F
:10159000642E0D0A000000002564D4C22564C8D55D
:1015A0000A00000010B502460B461846012100BF94
:1015B00004E0044C54F821402044491C9142F8DBDB
:1015C00010BD0000381700082DE9F05F05460E46F3
:1015D000174698462C464FF00009CA46CB4634A021
:1015E000FFF7ECFD00E0641C207830B1FEF7BCFD95
:1015F00000682178405C2028F5D1207818B94FF098
:10160000FF30BDE8F09F06E014F8010B303809EB1D
:10161000890100EB4109FEF7A7FD00682178405CD5
:101620002028F1D000E0641C207830B1FEF79CFD4A
:1016300000682178405C2028F5D1207810B94FF05F
:10164000FF30DEE706E014F8010B30380AEB8A01C0
:1016500000EB410AFEF788FD00682178405C2028F5
:10166000F1D000E0641C207830B1FEF77DFD006809
:101670002178405C2028F5D1207810B94FF0FF3058
:10168000BFE706E014F8010B30380BEB8B0100EBE1
:10169000410BFEF769FD00682178405C2028F1D0FD
:1016A000C6F80090C7F800A0C8F800B00020A8E76E
:1016B000D4DA657874726163745F646174652E0D49
:1016C0000A00000070B504460D46E0B2FFF792FA3A
:1016D000204670BDFFF714F8FEF7D6FF09A0FFF70C
:1016E0006DFD11A42046FFF72BFF05460020FFF7F4
:1016F000C5F828B2FFF702FB03E0FFF7D3F8FFF7C6
:10170000C4F8FAE7496E69742053797374656D20E3
:10171000686173206265656E2066696E69736865CD
:10172000642E0D0A0000000032303235C4EA37D48E
:10173000C23232C8D5000000000000001F000000C7
:101740001C0000001F0000001E0000001F00000021
:101750001E0000001F0000001F0000001E0000000F
:101760001F0000001E0000001F0000001F000000FE
:101770001C0000001F0000001E0000001F000000F1
:101780001E0000001F0000001F0000001E000000DF
:101790001F0000001E0000001F000000501800087D
:1017A0004018000870180008681800084818000859
:1017B0005818000860180008004040404040404071
:1017C0004040414141414140404040404040404014
:1017D00040404040404040404005020202020202B8
:1017E0000202020202020202022020202020202007
:1017F000202020020202020202029090909090901B
:1018000010101010101010101010101010101010D8
:10181000101010100202020202028888888888884C
:101820000808080808080808080808080808080838
:10183000080808080202020240000000B917000868
:10184000D0C7C6DAD2BB0000D0C7C6DACBC400000E
:10185000D0C7C6DAC8D50000D0C7C6DACEE50000CA
:10186000D0C7C6DAC1F90000D0C7C6DAC8FD00008B
:10187000D0C7C6DAB6FE00009818000800000020A5
:1018800044000000DC110008DC18000844000020BF
:10189000E4040000EC11000800000000000000005B
:1018A0000000000000000000000000000000000137
:1018B00002030401020304060708090204060800E3
:1018C00000A24A040000000000000000010203041E
:0C18D000060708090000000000000000EE
:0400000508000131BD
:00000001FF
