:020000040800F2
:100000002811002045010008590B00089D0900082F
:10001000550B00082F020008071B00080000000015
:10002000000000000000000000000000B114000803
:100030007D06000800000000690E00087116000827
:100040005F0100085F0100085F0100085F01000810
:100050005F0100085F0100085F0100085F01000800
:100060005F0100085F0100085F0100085F010008F0
:100070005F0100085F0100085F0100085F010008E0
:100080005F0100085F0100085F0100085F010008D0
:100090005F0100085F0100085F0100085F010008C0
:1000A0005F0100085F0100085F0100085F010008B0
:1000B000D91600085F0100085F0100085F01000811
:1000C0005F0100085F0100085F0100085F01000890
:1000D0005F0100086D1800085F0100085F0100085B
:1000E0005F0100085F0100085F0100085F01000870
:1000F0005F0100085F0100085F0100085F01000860
:100100005F0100085F010008151700085F01000883
:100110005F0100085F0100085F0100085F0100083F
:100120005F0100085F0100085F0100085F0100082F
:10013000DFF80CD000F04AF800480047052000081E
:10014000281100200648804706480047FEE7FEE7E2
:10015000FEE7FEE7FEE7FEE7FEE7FEE7FEE7FEE777
:1001600079160008310100082DE9F05F05460020EE
:1001700092469B4688460646814640241BE0284618
:1001800041464746224600F042F853465A46C01AB6
:10019000914110D311461846224600F029F82D1A35
:1001A00067EB01084F4622460120002100F020F8AD
:1001B00017EB00094E41201EA4F10104DFDC484684
:1001C00031462A464346BDE8F09F0000064C074DE5
:1001D00006E0E06840F0010394E807009847103417
:1001E000AC42F6D3FFF7A8FFD02A0008F02A000897
:1001F000202A04DB203A00FA02F1002070479140E7
:10020000C2F1200320FA03F3194390407047202ADB
:1002100004DB203A21FA02F00021704721FA02F3B0
:10022000D040C2F12002914008431946704700BFF8
:10023000FEE7000000200149087070470D00002013
:1002400000200149087070470C00002008B501210A
:10025000042000F03FFF0121102000F03BFF0220AE
:10026000ADF8000048208DF8030069460B4800F007
:10027000F0FA0420ADF8000048208DF8030069462C
:10028000064800F0E6FA0120ADF8000048208DF89D
:1002900003006946024800F0DCFA08BD0010014086
:1002A0000008014010B54FF4A06000F09BFC10BDA9
:1002B00008B50121082000F00DFF0121102000F0F9
:1002C00009FF4FF40050ADF8000010208DF8030036
:1002D00003208DF802006946294800F0BAFA4FF46D
:1002E0000051274800F04BFB4FF40040ADF80000F0
:1002F00010208DF8030003208DF802006946204885
:1003000000F0A7FA4FF400411D4800F038FB4FF40D
:100310008040ADF8000010208DF8030003208DF818
:1003200002006946164800F094FA4FF480411448E0
:1003300000F025FB4FF48050ADF8000010208DF840
:10034000030003208DF8020069460D4800F081FA91
:100350004FF480510A4800F012FB0820ADF800006D
:1003600010208DF8030003208DF80200694605482F
:1003700000F06FFA0821034800F001FB08BD0000FF
:10038000000C01400010014010B50021AE2000F02B
:1003900029FD0021D52000F025FD0021502000F08E
:1003A00021FD0021A82000F01DFD00213F2000F0CC
:1003B00019FD0021D32000F015FD0021084600F0B2
:1003C00011FD0021402000F00DFD00218D2000F0E6
:1003D00009FD0021142000F005FD0021202000F07F
:1003E00001FD0021022000F0FDFC0021A12000F011
:1003F000F9FC0021C02000F0F5FC0021DA2000F01B
:10040000F1FC0021122000F0EDFC0021812000F021
:10041000E9FC0021EF2000F0E5FC0021D92000F0EC
:10042000E1FC0021F12000F0DDFC0021DB2000F0E8
:10043000D9FC0021302000F0D5FC0021A42000F0E0
:10044000D1FC0021A62000F0CDFC0021AF2000F05F
:10045000C9FC10BD10B500F04DFE4FF4803000F027
:100460000BFF00F067FF0446012C24D1102000F0A0
:1004700081F9022000F0C2F9002000F0F1FE002016
:1004800000F02CFFA00200F01DFF4FF4E01120044B
:1004900000F036FF012000F02DFF00BF392000F0F2
:1004A000B9FE0028FAD0022000F038FF00BF00F0AB
:1004B000CFFE0828FBD110BD7FB505460C460121B3
:1004C000084600F0F7FDADF80850ADF804400020F4
:1004D000ADF80A00ADF8060001A94FF0804001F028
:1004E00067F901221146900701F058F91C208DF898
:1004F000000000208DF8010003208DF8020001208B
:100500008DF80300684600F035FB0121880701F0F3
:1005100028F97FBD7FB505460C460121082000F073
:10052000C9FDADF80850ADF804400020ADF80A0050
:10053000ADF8060001A90E4801F03AF90122114672
:100540000B4801F02BF932208DF8000000208DF8C7
:10055000010003208DF8020001208DF80300684699
:1005600000F008FB0121024801F0FBF87FBD00000C
:10057000000C004010B586B004460121880300F04D
:10058000A9FD0121042000F0A5FD4FF40070ADF895
:10059000140018208DF8170003208DF8160005A907
:1005A000224800F056F94FF48060ADF814000420A2
:1005B0008DF8170005A91D4800F04BF901A801F0BE
:1005C00096FA01940020ADF80800ADF80A00ADF8E5
:1005D0000C000C20ADF80E000020ADF8100001A9B1
:1005E000134801F00FFA25208DF8000001208DF846
:1005F00001008DF802008DF80300684600F0BAFA99
:10060000012240F225510A4801F0D7F9012240F2B7
:100610002771074801F0D1F90121054801F08AF955
:1006200000200449087006B010BD00000008014019
:10063000003801401200002030B50346002016E0CB
:10064000B3F900509C68645D0C541C88641C24B28F
:100650001C80B3F90040B3F90450AC4201DB002424
:100660001C80441C20B2DC88641E24B2DC80B3F9F8
:100670000640002C01DD9042E2DB30BD70470000F7
:1006800001B504490098086000BF024800680028CE
:10069000FBD108BD2800002070B50346002016E0FD
:1006A0000C5CB3F902609D68AC555C88641C24B294
:1006B0005C80B3F90240B3F90450AC4201DB002482
:1006C0005C80441C20B2DC88641C24B2DC80B3F95A
:1006D0000640B3F90450AC4201DA9042E0DB70BD51
:1006E00030B5044604254FF4302000F09FF805464D
:1006F000042D17D10C48006940F002000A49086136
:1007000008464461006940F0400008614FF4302021
:1007100000F08CF805460448006941F6FD71084078
:1007200001490861284630BD0020024004200B49E1
:10073000C96801F0010109B101200EE00749C9684B
:1007400001F0040109B1022007E00449C96801F081
:10075000100109B1032000E004207047002002408E
:100760000348006940F080000149086170470000BB
:10077000002002400549096821F01001034A116078
:1007800011460968014311607047000000200240D3
:1007900078B506460C46042500200090E80200F0DB
:1007A00045F80546042D24D11348006940F00100A6
:1007B000114908613480E80200F038F80546042D3C
:1007C00010D1B01C0090200C00990880E80200F0C5
:1007D0002DF805460848006941F6FE7108400649B3
:1007E000086106E00448006941F6FE7108400249CC
:1007F0000861284678BD0000002002400146002024
:10080000034A106800F03800084310607047000089
:10081000002002400248034948600348486070478E
:100820002301674500200240AB89EFCD00B50246A9
:100830000423FFF77BFF034603E0FFF777FF034640
:10084000521E012B01D1002AF7D102B90523184607
:1008500000BD2DE9F04102460025002600200023BE
:100860000024002791F803C00CF00F0591F803C095
:100870000CF0100CBCF1000F03D091F802C04CEA50
:10088000050591F800C0BCF1000F31D014680020BC
:100890002BE04FF0010C0CFA00F3B1F800C00CEAA9
:1008A00003069E4220D183004FF00F0C0CFA03F791
:1008B000BC4305FA03FC4CEA040491F803C0BCF104
:1008C000280F06D14FF0010C0CFA00FCC2F814C03E
:1008D0000AE091F803C0BCF1480F05D14FF0010CBC
:1008E0000CFA00FCC2F810C0401C0828D1D31460D8
:1008F000B1F800C0BCF1FF0F34DD546800202EE0D9
:1009000000F1080C4FF0010808FA0CF3B1F800C030
:100910000CEA03069E4221D183004FF00F0C0CFA23
:1009200003F7BC4305FA03FC4CEA040491F803C046
:10093000BCF1280F05D100F1080C08FA0CF8C2F838
:10094000148091F803C0BCF1480F07D100F1080CE6
:100950004FF0010808FA0CF8C2F81080401C082873
:10096000CED35460BDE8F0810246002093680B406E
:100970000BB1012000E00020704741617047016128
:100980007047000001480078704700000D0000200B
:1009900001480078704700000C00002000BFFEE70F
:1009A000704710B500F068FE00F066F800F01EF821
:1009B0004FF4E13000F0A6F800F098F800F062F88B
:1009C00000F018F800F006F800F02EF8FFF7E8FF46
:1009D00010BD000010B5FFF739FC00200249087077
:1009E0004870887010BD00000200002010B5FFF7AD
:1009F00059FC10BD10B5FFF75BFC4FF4804109486E
:100A0000FFF7BBFF0A20FFF73BFE4FF4804105488C
:100A1000FFF7B5FF0A20FFF733FEFFF7B5FC00F044
:100A2000EBF810BD000C014010B502220549064844
:100A300000F0C2FC05A20021082000F0A3F900F09C
:100A400027F910BD5C20000800C000084C6F636BE4
:100A50006564210030B50B46002404804480828008
:100A6000C4808360002104E0002485686C544C1C21
:100A700021B29142F8DB30BD10B5FFF7EBFC10BDA1
:100A80007047000030B5164800684FF47A72B0FB2A
:100A9000F2F1B1F1807F01D301201DE021F07F4010
:100AA000401E4FF0E022506150170F22002807DA55
:100AB00013071D0E0B4B00F00F04241F1D5503E000
:100AC00013071C0E084B1C5400BF00204FF0E022FF
:100AD000906107201061002008B100BFFEE730BD23
:100AE0002C00002018ED00E000E400E010B54721E4
:100AF00040F2E730FFF7E0FC472140F2E730FFF734
:100B000009FD10BD10B5044600F004F82046FFF7BB
:100B100031FD10BD10B5002406E00020094908553C
:100B200009490855601C04B2642CF6DB64220549AF
:100B30000648FFF78FFF642203490548FFF78AFF45
:100B400010BD00005C040020C0040020440400200C
:100B50005004002000BFFEE77047000000F01F02B5
:100B600001219140024A430942F8231070470000D6
:100B700080E200E070B5002100230F22C47804B3A6
:100B8000154C246804F4E064C4F5E064210AC1F162
:100B90000403CA40447804FA03F1847814402143E2
:100BA00009010E4C0678A155047804F01F050124B4
:100BB000AC4005786D11AD0005F1E025C5F80041A8
:100BC00009E0047804F01F050124AC40044D0678C8
:100BD000761145F8264070BD0CED00E000E400E021
:100BE00080E100E002490143024A116070470000C1
:100BF0000000FA050CED00E070B500240CE00025C3
:100C000006E00020074901EBC5010855681CC5B284
:100C1000802DF6DB601CC4B2082CF0DB00F038F845
:100C200070BD000044000020F0B5144600267F2867
:100C300001DC3F2900DDF0BD0B46CF1701EB5777F4
:100C4000FF10C7F10707FAB2CF1701EB5777FF1074
:100C5000A1EBC707FDB2C5F107070123BB40DEB218
:100C60004CB10A4B03EBC0039B5C3343074F07EBCC
:100C7000C007BB5408E0054B03EBC0039B5CB343C8
:100C8000024F07EBC007BB5400BFD4E7440000206D
:100C900070B500241CE004F1B001C8B2002100F0DE
:100CA000A1F80021084600F09DF80021102000F076
:100CB00099F8002508E0084901EBC501085D01210C
:100CC00000F090F8681CC5B2802DF4DB601CC4B243
:100CD000082CE0DB70BD0000440000202DE9F05F2F
:100CE00080460C4615461E46A346A5F12000C5B217
:100CF00000273EE00C2E07D105EB45001F4901EB14
:100D0000800010F8079004E01D4800EB051010F873
:100D100007904FF0000A26E009F0800028B1214634
:100D200040460A9AFFF780FF09E00A9808B90120B7
:100D300000E00020024621464046FFF775FF4FEADB
:100D400049604FEA1069601CC4B2A4EB0B00B042CA
:100D500005D15C4608F1010000F0FF0806E00AF149
:100D6000010000F0FF0ABAF1080FD5DB00BF781CC4
:100D7000C7B2B742BEDBBDE8F09F00006C200008A0
:100D8000E0240008F8B505460E46144610A000F011
:100D9000DFFE18E07A2D03DD002506F11000C6B253
:100DA0003A2E04DD002005460646FFF725FF012008
:100DB00000902278102331462846FFF78FFF05F177
:100DC0000800C5B2641C20780028E3D1F8BD0000FB
:100DD000696E204F4C454453686F77537472696E47
:100DE000670D0A0070B504460D4625B908211C4858
:100DF000FFF7C3FD05E0012D03D108211848FFF7D7
:100E0000BEFD4FF480511748FFF7B7FD00261BE0E9
:100E10004FF400511348FFF7B0FD04F0800028B1F3
:100E20004FF400410F48FFF7AAFD04E04FF40041E2
:100E30000C48FFF7A2FD4FF400510A48FFF79FFD51
:100E40006006040E701C06B2082EE1DB4FF48051E0
:100E50000448FFF794FD08210148FFF790FD70BD9D
:100E600000100140000C0140704710B5FFF78AFDEB
:100E700008B1FFF7DFF910BD10B5FFF789FDF8B134
:100E80001048B0F90000042812DB0F4A0F49002077
:100E900000F010FB0E4A0F49012000F00BFB0E4A38
:100EA0000E49022000F006FB00200649088005E0FC
:100EB00004480088401C00B202490880FFF7C0F9CE
:100EC00010BD000000000020E10E0008A110000885
:100ED000410F0008A3100008A10F0008A51000088A
:100EE00010B502220749084800F066FA07A210214F
:100EF0001820FFF747FFFFF7CBFE08A000F028FE01
:100F000010BD00005C20000800D00008456E74652C
:100F10007265642050776431000000005772697474
:100F20006520466C6173683A307831323334353637
:100F300037382C307846464646464646460D0A0027
:100F400010B502220749084800F036FA07A210211E
:100F50001820FFF717FFFFF79BFE08A000F0F8FD31
:100F600010BD00006420000800D00008456E7465C4
:100F70007265642050776432000000005772697413
:100F80006520466C6173683A3078383736353433CB
:100F900032312C307846464646464646460D0A00D3
:100FA00030B5ADF5497D012529A000F0D1FD022223
:100FB00065A92B4800F0EBF9022201A9294800F0AD
:100FC000E6F900240BE065A850F8240001A951F8C7
:100FD0002410884201D0002503E0601C04B2022CDA
:100FE000F1DB00BF45B120A220210846FFF7CAFE71
:100FF00020A000F0ADFD07E021A220210846FFF768
:10100000C1FE22A000F0A4FDFFF742FE002407E08D
:1010100065A850F8241020A000F09AFD601C04B2CE
:10102000022CF5DB15A000F093FD002407E001A8D9
:1010300050F8241018A000F08BFD601C04B2022CA4
:10104000F5DB0EA000F084FD0DF5497D30BD0000FC
:101050005265616420466C6173680D0A00000000EF
:1010600000C0000800D000085375636365737321E6
:101070000000000053756363657373210D0A00005F
:101080004661696C75726521000000004661696CFB
:10109000757265210D0A00002530387800000000C7
:1010A0007047704770470146C88808B901207047EB
:1010B0000020FCE729B1064AD2690243044BDA61F9
:1010C00004E0034AD2698243014BDA6170470000B1
:1010D0000010024029B1064A92690243044B9A610A
:1010E00004E0034A92698243014B9A617047000011
:1010F000001002400F48006840F001000D490860F0
:10110000084640680C4908400A494860084600689B
:101110000A490840074908600846006820F4802012
:1011200008600846406820F4FE0048604FF41F0045
:1011300088607047001002400000FFF8FFFFF6FED5
:1011400030B500210022002400232D4D6D6805F0EC
:101150000C0121B1042905D0082923D105E0294D2E
:10116000056022E0274D05601FE0254D6D6805F400
:101170007012234D6D6805F48034022505EB924210
:101180001CB9214D554305600BE01D4D6D6805F4FC
:1011900000351DB11C4D5543056002E0194D554306
:1011A000056002E0174D056000BF00BF144D6D687B
:1011B00005F0F0010909154D6B5C0568DD404560DF
:1011C0000F4D6D6805F4E061090A104D6B5C4568D0
:1011D000DD4085600A4D6D6805F46051C90A0B4D0C
:1011E0006B5C4568DD40C560054D6D6805F44041A8
:1011F000890B074D6B5CC568B5FBF3F5056130BD28
:101200000010024000127A0000093D001300002087
:101210002300002010B501460022002300204A11BF
:10122000012A02D1094C236806E0022A02D1074CA8
:10123000236A01E0054C636A01F01F020124944017
:101240001C400CB1012000E0002010BD0010024045
:101250000248406800F00C00704700000010024097
:1012600001460020034A506820F0F0000843506017
:1012700070470000001002401149096821F48031D4
:101280000F4A11601146096821F480211160B0F500
:10129000803F03D0B0F5802F0ED106E008490968E1
:1012A00041F48031064A116007E00549096841F4BC
:1012B000A021034A116000E000BF00BF704700009A
:1012C0000010024001460020034A506820F4E0600C
:1012D00008435060704700000010024001460020A3
:1012E000034A506820F4605040EAC10050607047E3
:1012F00000100240014908667047000000004242A9
:1013000002460020044B586820F47C1042EA010396
:101310001843014B586070470010024001460020FE
:10132000034A506820F003000843506070470000F3
:101330000010024038B5002000900024002500BFB6
:101340003120FFF767FF05460098401C0090009889
:10135000B0F5A06F01D0002DF2D03120FFF75AFF79
:1013600008B1012400E00024204638BD70B50446D1
:101370000025012221460348FFF75EF9C5B2284641
:1013800070BD0000440400200146086870472DE944
:10139000F04105460E461746A846002408E04046A0
:1013A000FFF7F2FF46F8240008F10408601C84B23D
:1013B000BC42F4DBBDE8F0812DE9F74F8246D04610
:1013C000029FB8F1006F02D33548804504D335A0A1
:1013D00000F0BEFBBDE8FE8FFFF71CFAA8F1006B22
:1013E0004FEADB26CBF38809C9F50074A74200DC7D
:1013F0003C464FE04FF0006101EBC6208A142B49B8
:10140000FFF7C5FF002509E009EB0500274951F862
:101410002000401C00B103E0681C85B2A542F3DB4C
:1014200000BFA5421CDA4FF0006101EBC620FFF7B8
:1014300057F9002509E0019850F8250009EB05014E
:101440001A4A42F82100681C85B2A542F3DB4FF02E
:10145000006101EBC6208A14144900F063FB04E02C
:1014600022464046019900F05DFBA74200D112E000
:10147000761C4FF00009019800EB8400019008EB06
:101480008408381B87B2B7F5007F02DD4FF4007483
:1014900000E03C46AEE700BFFFF762F900BF99E706
:1014A000FCFF03086572726F720D0A0024050020AC
:1014B0007047000070B504460D4616462548005D8D
:1014C0004006000E2349085524B1012C0CD0022CF3
:1014D0001ED113E002212048FFF746FA1D49095D9D
:1014E00008431C49085514E004211B48FFF73CFA47
:1014F0001849095D0843174908550AE001211748B2
:10150000FFF732FA1349095D08431249085500E014
:1015100000BF00BF0F48005D1149095D884208D136
:101520001048005D012804D1B04700200D4908553E
:101530000EE00848005D0A49095DC943C9B2884206
:1015400006D10848005D18B9A8470120054908558B
:1015500070BD00000500002000100140000801409F
:10156000020000200800002010B50446E1B2054842
:1015700000F0B9FA00BF4021024800F0E7F9002866
:10158000F9D010BD0038014010B500F001F810BDD1
:101590000CB50020019000903348006840F4803082
:1015A0003149086000BF3048006800F40030009006
:1015B0000198401C0190009818B90198B0F5A06FEF
:1015C000F1D12948006800F4003010B101200090EA
:1015D00001E0002000900098012843D123480068D2
:1015E00040F01000214908600846006820F0030020
:1015F00008600846006840F0020008601A48406829
:10160000194948600846406848600846406840F408
:10161000806048600846406820F47C1048600846B6
:10162000406840F4E81048600846006840F0807068
:10163000086000BF0C48006800F000700028F9D076
:101640000948406820F003000749486008464068A0
:1016500040F00200486000BF0348406800F00C0002
:101660000828F9D10CBD0000001002400020024003
:1016700010B500F0EFF810BD10B51348006840F049
:1016800001001149086008464068104908400E49A9
:101690004860084600680E4908400B490860084643
:1016A000006820F4802008600846406820F4FE00AE
:1016B00048604FF41F008860FFF766FF4FF000603E
:1016C0000449086010BD0000001002400000FFF84F
:1016D000FFFFF6FE08ED00E010B50121880700F0DD
:1016E0004CF8012803D10121800700F037F80748A2
:1016F0000088401C0549088008460088022804DB51
:101700000020088001200249087010BD0E00002052
:101710000C00002010B501210D4800F02EF8012822
:1017200003D101210A4800F019F80A480088401C3A
:1017300000B2084908800846B0F90000B0F57A7F89
:1017400004DB0020088001200349087010BD000060
:10175000000C0040100000200D000020CA4302824F
:10176000704721B1028842F00102028004E0028841
:101770004FF6FE731A400280704730B502460020D3
:1017800000230024158A05EA0103958905EA01046E
:1017900013B10CB1012000E0002030BD1AB18389E3
:1017A0000B43838102E083898B4383817047000070
:1017B000002202881D4B98420ED01D4B98420BD040
:1017C000B0F1804F08D01B4B984205D01A4B98427D
:1017D00002D01A4B984204D14FF68F731A404B88AF
:1017E0001A43174B984207D0164B984204D04FF635
:1017F000FF431A40CB881A4302808B8883850B886D
:1018000003850A4B98420BD0094B984208D00E4BE7
:10181000984205D00D4B984202D00D4B984201D111
:101820000B7A03860123838270470000002C01405D
:10183000003401400004004000080040000C00405B
:1018400000100040001400400040014000440140EE
:10185000004801400448006820B103480068401E69
:1018600001490860704700002800002008B50020EA
:10187000009040F22551204800F075F858B125201D
:10188000FFF76CF91C4800F029F9C0B200909DF8F0
:10189000000000F03BF90821174800F057F8012834
:1018A00006D10821144800F02DF8134800F016F96D
:1018B00040F22771104800F056F8E0B140F227716D
:1018C0000D4800F028F82520FFF748F96846FFF793
:1018D0004DFD9DF80010084800F005F90748FFF796
:1018E000E2FB40B1002006490870002240F2277157
:1018F000014800F062F808BD0038014044040020AF
:101900001200002001F40072B2F5007F00D100BF88
:10191000CA430280704710B50022002340F66A14C3
:10192000A14200D100BF0A1201249440A3B2DC43BB
:10193000048010BD21B1828942F40052828104E00A
:1019400082894DF6FF731A4082817047024600205B
:10195000B1F5007F00D100BF13880B400BB101200F
:1019600000E00020704770B50246002400230025E7
:10197000002040F66A16B14200D100BFC1F3421503
:1019800001F01F03012606FA03F3012D02D1968907
:10199000334006E0022D02D1168A334001E0968AD8
:1019A00033400C12012606FA04F41688344013B1B1
:1019B0000CB1012000E0002070BDF0B5034600240A
:1019C00000260025002040F66A17B94200D100BF6A
:1019D0001846C1F3421401F01F06012707FA06F565
:1019E000012C01D10C3004E0022C01D1103000E0B8
:1019F00014301AB107682F43076002E00768AF434D
:101A00000760F0BD2DE9F04786B005460E4600247C
:101A1000A24600BFA1460027B08900B100BF2F46F3
:101A20002C8A4CF6FF700440F08804432C82AC8969
:101A30004EF6F3100440B088318908437189084399
:101A40000443AC81AC8A4FF6FF400440B0890443A4
:101A5000AC8201A8FFF774FB1F48874202D1DDF872
:101A600010A001E0DDF80CA0A88900F4004040B10E
:101A70000AEBCA0000EB0A1031684900B0FBF1F82C
:101A800007E00AEBCA0000EB0A1031688900B0FBDE
:101A9000F1F86420B8FBF0F004012009642101FB97
:101AA0001089A88900F4004040B1322000EBC90041
:101AB000B0FBF1F000F00700044308E0322000EB37
:101AC00009106421B0FBF1F000F00F0004432C81F9
:101AD00006B0BDE8F0870000003801400146888864
:101AE000C0F308007047C1F30802828070474FF4CA
:101AF0001651016000218180C18001810C2141814A
:101B000000218181704700BFFEE7000031B500244D
:101B1000012269460248FEF7BFFDC4B2204638BD27
:101B2000500400202DE9F04105460E461746A84610
:101B3000002408E056F824104046FEF729FE08F17C
:101B40000408601C84B2BC42F4DBBDE8F0810000F4
:101B50000FB4054B10B503A9044A029800F018F819
:101B600010BC5DF814FB0000F31F000840000020CB
:101B700002E008C8121F08C1002AFAD17047704756
:101B8000002001E001C1121F002AFBD170470000B4
:101B90002DE9FF4F8DB00F460546002606E02528AB
:101BA0000BD0DDE90F1290476D1C761C28780028B9
:101BB000F5D111B03046BDE8F08F0024A246A14611
:101BC0000122EC4900E0044315F8013F203B02FAF2
:101BD00003F00842F7D128782A2810D06FF02F029E
:101BE0002878A0F13001092914D80AEB8A0102EB08
:101BF000410144F0020400EB010A6D1CF0E701CF43
:101C00005FEA000A03D544F40054CAF1000A44F024
:101C100002046D1C28782E2817D115F8010F44F006
:101C200004042A280ED06FF02F022878A0F130018A
:101C300009290AD809EB890102EB410100EB0109EE
:101C40006D1CF2E757F8049B6D1C28786C280FD0A8
:101C500006DC4C2817D068280DD06A2814D104E07F
:101C6000742810D07A280FD10DE044F400140AE053
:101C700044F4801401E044F440146978814202D1B4
:101C800004F580146D1C6D1C2A786E2A1FD00CDCA4
:101C9000632A31D004DC002A8BD0582A11D1A3E06A
:101CA000642A68D0692A0CD165E0732A2ED004DC3E
:101CB0006F2A73D0702A04D19BE0752A6FD0782ADE
:101CC0006ED01046DDE90F129047761C50E1C4F348
:101CD0000250022806D0032809D0042801CF09D0D9
:101CE000066045E101CFF117C0E9006140E101CF95
:101CF00006803DE106703BE117F8040B8DF800000B
:101D000000208DF80100EB46012003E057F804BBEA
:101D10004FF0FF3061074FF0000102D40DE008F1F1
:101D20000101884649450FDA8045F8DB1BF80810A9
:101D30000029F4D108E008F1010188468142FADB6C
:101D40001BF808100029F6D1DDE90F23AAEB0800E3
:101D50008146214600F036F9304400EB080604E0E5
:101D6000DDE90F121BF8010B9047B8F10108F7D21B
:101D700021464846F7E00A21C4F302534FF0000B16
:101D80000891022B04D001CFC117032B09D00AE020
:101D9000FF1D27F00707F7E8020108E032E01FE027
:101DA00020E000B2C117042B01D140B2C117031EBD
:101DB00071F1000307DA4FF0000CD0EB0C006CEB74
:101DC00001012D2302E0230504D52B238DF82430B7
:101DD000012303E0E30701D02023F7E7984658E00A
:101DE0000A2110E010210EE010204FF0000B0890A7
:101DF0000CE010214FF0000B44F004044FF00809F0
:101E0000089103E008214FF0000B0891C4F302533E
:101E1000022B04D001CF0021032B06D006E0FF1DCA
:101E200027F00707F7E8020103E080B2042B00D196
:101E3000C0B24FF0000823072BD5702A07D0DDF879
:101E400020C08CF0100C5CEA0B0C05D00EE0402397
:101E50008DF82430012308E050EA010306D0302336
:101E60008DF824308DF8252002239846DDF820C017
:101E70008CF0080C5CEA0B0C0BD150EA010301D189
:101E8000630706D530238DF824304FF00108A9F1FF
:101E90000109582A04D038A20B9208AA0A920BE032
:101EA0003AA2F9E75B46089AFEF75EF90B9B9B5C4A
:101EB0000A9A521E0A92137050EA0102F2D10A984D
:101EC000ADEB000000F1200B600702D524F4803454
:101ED00001E04FF00109D94502DDA9EB0B0000E05C
:101EE000002000EB0B0141440890AAEB010AE0033B
:101EF00006D4DDE90F232146504600F063F806447E
:101F00004FF0000908E009A911F80900DDE90F12F6
:101F1000904709F10109761CC145F4DBE0030CD5BB
:101F2000DDE90F232146504600F04CF8064404E05A
:101F3000DDE90F1230209047761C0899481E089062
:101F40000029F5DC08E00A980A990078491C0A91F2
:101F5000DDE90F129047761CBBF10001ABF1010BDC
:101F6000F1DC21465046DDE90F2300F019F8064464
:101F70006D1C1BE609280100303132333435363709
:101F800038396162636465660000000030313233C5
:101F90003435363738394142434445460000000065
:101FA0002DE9F041044600251E461746880404D456
:101FB00005E039462020B0476D1C641EF9D528463F
:101FC000BDE8F0812DE9F041044600251E4690460B
:101FD000C80301D5302700E02027880404D505E098
:101FE00041463846B0476D1C641EF9D52846BDE809
:101FF000F08170B504460D46E0B2FFF7B5FA204611
:1020000070BD0000FEF73CFDFEF7CBFC07A0FFF71C
:102010009FFD0FA230211820FEF7B4FEFEF738FE18
:1020200003E0FEF729FFFEF720FFFAE7496E697427
:102030002053797374656D20686173206265656EE5
:102040002066696E69736865642E0D0A00000000E1
:102050004348454E204D494E4A4945007856341272
:10206000FFFFFFFF21436587FFFFFFFF0000000028
:102070000000000000000000000000003F400000E1
:102080000000000000003000400030004000000070
:1020900009000BC03D000BC03D00090018C02440E2
:1020A0007FE0224031800000180024C01B000D801A
:1020B0003240018003801C4027401C8007400040C4
:1020C00010006000000000000000000000000000A0
:1020D00000001F80204040200000402020401F8042
:1020E00000000000090006001F8006000900000033
:1020F000040004003F8004000400000000100060A1
:1021000000000000000000000400040004000400BF
:10211000040000000000004000000000000000007B
:10212000002001C006003800400000001F80204051
:10213000204020401F800000000010403FC00040B1
:102140000000000018C02140224024401840000038
:1021500010802040244024401B80000002000D001D
:1021600011003FC0014000003C8024402440244036
:10217000238000001F80244024403440038000005E
:102180003000200027C03800200000001B802440C1
:10219000244024401B8000001C0022C0224022401A
:1021A0001F80000000000000084000000000000048
:1021B00000000000046000000000000000000400B7
:1021C0000A001100208040400900090009000900B0
:1021D0000900000000004040208011000A000400B7
:1021E0001800200023402400180000001F80204019
:1021F000274029401F400000004007C039000F0061
:1022000001C0004020403FC0244024401B8000000B
:102210001F802040204020403080000020403FC0F0
:10222000204020401F80000020403FC024402E401E
:1022300030C0000020403FC024402E00300000008D
:102240000F001080204022403380020020403FC019
:10225000040004003FC02040204020403FC02040F8
:10226000204000000060202020203FC020002000EF
:1022700020403FC024400B0030C0204020403FC0E1
:1022800020400040004000C03FC03C0003C03C0074
:102290003FC0000020403FC00C4023003FC0200052
:1022A0001F802040204020401F80000020403FC071
:1022B00024402400180000001F802140214020E01D
:1022C0001FA0000020403FC02440260019C000404D
:1022D00018C02440244022403180000030002040BB
:1022E0003FC020403000000020003F800040004000
:1022F0003F80200020003E0001C007003800200081
:10230000380007C03C0007C038000000204039C03A
:10231000060039C0204000002000384007C0384087
:1023200020000000304021C02640384020C000007E
:10233000000000007FE0402040200000000070000E
:102340000C000380004000000000402040207FE09F
:1023500000000000000020004000200000000000FD
:10236000001000100010001000100010000000000D
:102370004000000000000000000002800540054011
:1023800003C0004020003FC0044004400380000020
:102390000000038004400440064000000000038069
:1023A000044024403FC00040000003800540054039
:1023B00003400000000004401FC0244024402000CF
:1023C000000002E0055005500650042020403FC0A8
:1023D0000440040003C000400000044027C0004047
:1023E0000000000000100010041027E000000000B2
:1023F00020403FC00140070004C00440204020406E
:102400003FC000400040000007C0040007C00400B7
:1024100003C00000044007C00440040003C00040A3
:10242000000003800440044003800000041007F013
:102430000450044003800000000003800440045066
:1024400007F00010044007C0024004000400000030
:10245000000006400540054004C0000000000400E4
:102460001F8004400040000004000780004004403A
:1024700007C000400400070004C0018006000400FB
:10248000060001C0070001C006000000044006C0AD
:10249000010006C0044000000410071004E00180A1
:1024A000060004000000044005C00640044000008F
:1024B0000000000004007BE040200000000000005D
:1024C0000000FFF000000000000040207BE004005E
:1024D000000000004000800040002000200040007C
:1024E00000000000000000000000000000000000EC
:1024F0000000000000001FCC000C000000000000E5
:10250000000008003000600008003000600000009B
:10251000022003FC1E20022003FC1E2002200000DB
:1025200000000E1811043FFF10840C78000000001A
:102530000F0010840F3800C007781884007800005E
:1025400000780F8410C411240E9800E40084000861
:10255000080068007000000000000000000000009B
:1025600000000000000007E01818200440020000EE
:10257000000040022004181807E0000000000000DE
:102580000240024001800FF0018002400240000042
:102590000080008000800FF8008000800080000034
:1025A0000001000D000E000000000000000000000F
:1025B000000000800080008000800080008000809B
:1025C0000000000C000C00000000000000000000F3
:1025D00000000006001800600180060018002000BE
:1025E000000007F0080810041004080807F00000B5
:1025F0000000080408041FFC0004000400000000A0
:1026000000000E0C10141024104411840E0C000055
:1026100000000C1810041104110412880C70000042
:10262000000000E00320042408241FFC0024000014
:1026300000001F981084110411041088107000000D
:10264000000007F0088811041104188800700000C9
:1026500000001C00100010FC13001C001000000003
:1026600000000E3811441084108411440E3800000C
:1026700000000700088C10441044088807F0000090
:10268000000000000000030C030C0000000000002C
:102690000000000000010106000000000000000032
:1026A000000000800140022004100808100400000F
:1026B000022002200220022002200220022000002C
:1026C00000001004080804100220014000800000EF
:1026D00000000E001200100C106C10800F000000A3
:1026E00003E00C1813E4142417C4082807D00000D2
:1026F0000004003C03C41C40074000E4001C00042C
:1027000010041FFC1104110411040E880070000055
:1027100003E00C1810041004100410081C10000032
:1027200010041FFC100410041004080807F0000037
:1027300010041FFC1104110417C410040818000031
:1027400010041FFC1104110017C010000800000045
:1027500003E00C181004100410441C780040000022
:1027600010041FFC10840080008010841FFC1004E3
:102770000000100410041FFC1004100400000000EE
:1027800000030001100110011FFE100010000000E6
:1027900010041FFC110403801464181C10040000B2
:1027A00010041FFC1004000400040004000C0000CE
:1027B00010041FFC1F0000FC1F001FFC1004000081
:1027C00010041FFC0C04030000E010181FFC100094
:1027D00007F00808100410041004080807F00000AF
:1027E00010041FFC10841080108010800F00000067
:1027F00007F0081810241024101C080A07F2000023
:1028000010041FFC1104110011C011300E0C000443
:1028100000000E1C11041084108410441C380000A9
:102820001800100010041FFC100410001800000015
:1028300010001FF810040004000410041FF810001A
:1028400010001E0011E0001C007013801C0010001E
:102850001FC0103C00E01F0000E0103C1FC0000043
:102860001004180C163401C001C01634180C1004E2
:1028700010001C00130400FC13041C0010000000D6
:102880000804101C1064108413041C0410180000A9
:102890000000000000007FFE4002400240020000F5
:1028A000000030000C0003800060001C00030000EA
:1028B00000004002400240027FFE000000000000D5
:1028C0000000000020004000400040002000000008
:1028D00000010001000100010001000100010001F0
:1028E0000000400040002000000000000000000048
:1028F00000000098012401440144014400FC00044C
:1029000010001FFC00880104010400880070000012
:102910000000007000880104010401040088000028
:102920000000007000880104010411081FFC00046D
:10293000000000F8014401440144014400C80000C3
:102940000000010401040FFC11041104110018001F
:10295000000000D601290129012901C90106000052
:1029600010041FFC008401000100010400FC0004AD
:1029700000000104190419FC000400040000000018
:102980000000000300010101190119FE0000000010
:1029900010041FFC0024004001B4010C01040000DD
:1029A0000000100410041FFC0004000400000000DC
:1029B000010401FC0104010001FC0104010000FC10
:1029C000010401FC008401000100010400FC00047A
:1029D000000000F8010401040104010400F80000F3
:1029E000010101FF0085010401040088007000005E
:1029F00000000070008801040104010501FF0001CE
:102A00000104010401FC00840104010001800000B4
:102A1000000000CC012401240124012401980000BD
:102A200000000100010007F801040104000000009B
:102A3000010001F8000400040004010801FC000486
:102A4000010001800170000C001001600180010094
:102A500001F0010C003001C00030010C01F0010058
:102A600000000104018C00740170018C010400005D
:102A7000010101810171000E001801600180010057
:102A800000000184010C013401440184010C0000A8
:102A9000000000000000000001003EFC4002400277
:102AA0000000000000000000FFFF00000000000028
:102AB0000000400240023EFC010000000000000057
:102AC00000006000800080004000400020002000E6
:102AD000F02A00080000002044000000701B0008DD
:102AE000342B000844000020E4100000801B000884
:102AF00000000000000000000000000000000000D6
:102B000000000000000000010203040102030406AB
:102B100007080902040608000000000000A24A0499
:102B2000000000000000000001020304060708097D
:042B300000000000A1
:0400000508000131BD
:00000001FF
