:020000040800F2
:100000002005002045010008C50700083506000846
:10001000C10700088D0100084B1100080000000016
:10002000000000000000000000000000A90B000814
:10003000350400080000000065080008B50C000841
:100040005F0100085F0100085F0100085F01000810
:100050005F0100085F0100085F0100085F01000800
:100060005F0100085F0100085F0100085F010008F0
:100070005F0100085F0100085F0100085F010008E0
:100080005F0100085F0100085F0100085F010008D0
:100090005F0100085F0100085F0100085F010008C0
:1000A0005F0100085F0100085F0100085F010008B0
:1000B0001D0D00085F0100085F0100085F010008D6
:1000C0005F0100085F0100085F0100085F01000890
:1000D0005F010008B10E00085F0100085F01000821
:1000E0005F0100085F0100085F0100085F01000870
:1000F0005F0100085F0100085F0100085F01000860
:100100005F0100085F010008590D00085F01000849
:100110005F0100085F0100085F0100085F0100083F
:100120005F0100085F0100085F0100085F0100082F
:10013000DFF80CD000F018F800480047C91100089B
:10014000200500200648804706480047FEE7FEE7F6
:10015000FEE7FEE7FEE7FEE7FEE7FEE7FEE7FEE777
:10016000BD0C000831010008064C074D06E0E068B0
:1001700040F0010394E8070098471034AC42F6D3EE
:10018000FFF7DAFF441200086412000800BFFEE720
:100190000020014908707047030000200020014939
:1001A000087070470200002008B50121102000F0FF
:1001B000A1FB1020ADF8000003208DF802001020F4
:1001C0008DF8030069460D4800F08EF901221021D8
:1001D0000A4800F01DFA2020ADF8000003208DF839
:1001E000020010208DF803006946044800F07CF9F5
:1001F00000222021014800F00BFA08BD0010014048
:1002000010B54FF4A06000F023FB10BD10B500F056
:1002100081FB4FF4803000F03FFC00F09BFC044673
:10022000012C24D1102000F045F9022000F050F9F3
:10023000002000F025FC002000F060FCA00200F08F
:1002400051FC4FF4E011200400F06AFC012000F0A2
:1002500061FC00BF392000F0EDFB0028FAD002203D
:1002600000F06CFC00BF00F003FC0828FBD110BDBF
:100270007FB505460C460121084600F02BFBADF882
:100280000850ADF804400020ADF80A00ADF80600B3
:1002900001A94FF0804000F0ADFD0122114690070A
:1002A00000F09EFD1C208DF8000000208DF801005C
:1002B00003208DF8020001208DF80300684600F04D
:1002C0008FFA0121880700F06EFD7FBD7FB50546DE
:1002D0000C460121082000F0FDFAADF80850ADF8F9
:1002E00004400020ADF80A00ADF8060001A90E4850
:1002F00000F080FD012211460B4800F071FD322014
:100300008DF8000000208DF8010003208DF8020018
:1003100001208DF80300684600F062FA01210248CE
:1003200000F041FD7FBD0000000C004010B586B01C
:1003300004460121880300F0DDFA0121042000F0C9
:10034000D9FA4FF40070ADF8140018208DF817009A
:1003500003208DF8160005A9224800F0C5F84FF4D7
:100360008060ADF8140004208DF8170005A91D4821
:1003700000F0BAF801A800F0DCFE01940020ADF80E
:100380000800ADF80A00ADF80C000C20ADF80E0026
:100390000020ADF8100001A9134800F055FE2520FB
:1003A0008DF8000001208DF801008DF802008DF815
:1003B0000300684600F014FA012240F225510A4871
:1003C00000F01DFE012240F22771074800F017FEE1
:1003D0000121054800F0D0FD00200449087006B056
:1003E00010BD000000080140003801400800002056
:1003F00030B50346002016E0B3F900509C68645DF8
:100400000C541C88641C24B21C80B3F90040B3F95E
:100410000450AC4201DB00241C80441C20B2DC8868
:10042000641E24B2DC80B3F90640002C01DD90424A
:10043000E2DB30BD7047000001B504490098086058
:1004400000BF024800680028FBD108BD340000202E
:1004500001B5009806E0002101E04A1C91B207298D
:10046000FBDB401E0028F6D108BD70B50346002016
:1004700016E00C5CB3F902609D68AC555C88641CA6
:1004800024B25C80B3F90240B3F90450AC4201DB02
:1004900000245C80441C20B2DC88641C24B2DC8014
:1004A000B3F90640B3F90450AC4201DA9042E0DB04
:1004B00070BD00000549096821F01001034A116070
:1004C0001146096801431160704700000020024096
:1004D00001460020034A106800F03800084310600D
:1004E00070470000002002402DE9F041024600253F
:1004F0000026002000230024002791F803C00CF000
:100500000F0591F803C00CF0100CBCF1000F03D0E4
:1005100091F802C04CEA050591F800C0BCF1000F4B
:1005200031D0146800202BE04FF0010C0CFA00F3DE
:10053000B1F800C00CEA03069E4220D183004FF0C0
:100540000F0C0CFA03F7BC4305FA03FC4CEA040455
:1005500091F803C0BCF1280F06D14FF0010C0CFA42
:1005600000FCC2F814C00AE091F803C0BCF1480FC7
:1005700005D14FF0010C0CFA00FCC2F810C0401C71
:100580000828D1D31460B1F800C0BCF1FF0F34DDEE
:10059000546800202EE000F1080C4FF0010808FA22
:1005A0000CF3B1F800C00CEA03069E4221D183008F
:1005B0004FF00F0C0CFA03F7BC4305FA03FC4CEAAE
:1005C000040491F803C0BCF1280F05D100F1080C18
:1005D00008FA0CF8C2F8148091F803C0BCF1480F77
:1005E00007D100F1080C4FF0010808FA0CF8C2F826
:1005F0001080401C0828CED35460BDE8F08102462C
:100600000020D3680B400BB1012000E000207047B0
:100610000AB1016100E041617047000001480078C3
:100620007047000003000020014800787047000078
:100630000200002000BFFEE710B500F03FFB00F015
:1006400027F800F00FF84FF4E13000F067F800F001
:1006500059F800F003F800F021F810BD10B5FFF7CD
:10066000A3FD10BD10B5FFF7CBFD10BD30B50B4697
:100670000024048044808280C4808360002104E0E0
:10068000002485686C544C1C21B29142F8DB30BDCB
:1006900010B5FFF7BBFD10BD7047000030B5164820
:1006A00000684FF47A72B0FBF2F1B1F1807F01D3B0
:1006B00001201DE021F07F40401E4FF0E0225061FC
:1006C00050170F22002807DA13071D0E0B4B00F0FE
:1006D0000F04241F1D5503E013071C0E084B1C5468
:1006E00000BF00204FF0E022906107201061002041
:1006F00008B100BFFEE730BD2000002018ED00E08B
:1007000000E400E010B5472140F2E730FFF7B0FD0C
:10071000472140F2E730FFF7D9FD10BD10B5044680
:1007200000F004F82046FFF701FE10BD10B50024CC
:1007300006E000200949085509490855601C04B223
:10074000642CF6DB642205490648FFF78FFF64221C
:1007500003490548FFF78AFF10BD00005400002040
:10076000B80000203C0000204800002070B504467E
:1007700011480088401C1049088008460088A042A3
:1007800019DB0020088010210C48FFF738FFC0F16A
:100790000100C5B22A4610210848FFF739FF202181
:1007A0000648FFF72CFFC0F10100C5B22A46202100
:1007B0000248FFF72DFF70BD00000020001001402F
:1007C00000BFFEE77047000000F01F0201219140CA
:1007D000024A430942F823107047000080E200E01B
:1007E00070B5002100230F22C47804B3154C24688F
:1007F00004F4E064C4F5E064210AC1F10403CA40D2
:10080000447804FA03F184781440214309010E4C22
:100810000678A155047804F01F050124AC40057842
:100820006D11AD0005F1E025C5F8004109E004783F
:1008300004F01F050124AC40044D0678761145F8FC
:10084000264070BD0CED00E000E400E080E100E037
:1008500002490143024A1160704700000000FA0596
:100860000CED00E07047000010B5FFF7D7FE20B197
:1008700002A000F079FCFFF78BFC10BD546869738F
:1008800020697320746865206669727374205354FC
:100890004D3332463130332050726F6A6563742CA9
:1008A000206279205A68616E6773616E0D0A0000DC
:1008B00010B5FFF7B9FE20B1FA20FFF757FFFFF799
:1008C0006DFC10BD0146C88808B9012070470020A2
:1008D000FCE7000029B1064AD2690243044BDA6101
:1008E00004E0034AD2698243014BDA617047000099
:1008F0000010024029B1064A92690243044B9A61F2
:1009000004E0034A92698243014B9A6170470000F8
:10091000001002400F48006840F001000D490860D7
:10092000084640680C4908400A4948600846006883
:100930000A490840074908600846006820F48020FA
:1009400008600846406820F4FE0048604FF41F002D
:1009500088607047001002400000FFF8FFFFF6FEBD
:1009600030B500210022002400232D4D6D6805F0D4
:100970000C0121B1042905D0082923D105E0294D16
:10098000056022E0274D05601FE0254D6D6805F4E8
:100990007012234D6D6805F48034022505EB9242F8
:1009A0001CB9214D554305600BE01D4D6D6805F4E4
:1009B00000351DB11C4D5543056002E0194D5543EE
:1009C000056002E0174D056000BF00BF144D6D6863
:1009D00005F0F0010909154D6B5C0568DD404560C7
:1009E0000F4D6D6805F4E061090A104D6B5C4568B8
:1009F000DD4085600A4D6D6805F46051C90A0B4DF4
:100A00006B5C4568DD40C560054D6D6805F440418F
:100A1000890B074D6B5CC568B5FBF3F5056130BD0F
:100A20000010024000127A0000093D000900002079
:100A30001900002010B501460022002300204A11B1
:100A4000012A02D1094C236806E0022A02D1074C90
:100A5000236A01E0054C636A01F01F0201249440FF
:100A60001C400CB1012000E0002010BD001002402D
:100A70000248406800F00C0070470000001002407F
:100A800001460020034A506820F0F00008435060FF
:100A900070470000001002401149096821F48031BC
:100AA0000F4A11601146096821F480211160B0F5E8
:100AB000803F03D0B0F5802F0ED106E008490968C9
:100AC00041F48031064A116007E00549096841F4A4
:100AD000A021034A116000E000BF00BF7047000082
:100AE0000010024001460020034A506820F4E060F4
:100AF000084350607047000000100240014600208B
:100B0000034A506820F4605040EAC10050607047CA
:100B10000010024001490866704700000000424290
:100B200002460020044B586820F47C1042EA01037E
:100B30001843014B586070470010024001460020E6
:100B4000034A506820F003000843506070470000DB
:100B50000010024038B5002000900024002500BF9E
:100B60003120FFF767FF05460098401C0090009871
:100B7000B0F5A06F01D0002DF2D03120FFF75AFF61
:100B800008B1012400E00024204638BD70B50446B9
:100B90000025012221460348FFF72AFCC5B228465A
:100BA00070BD00003C0000207047000010B50446F6
:100BB000E1B2054800F0B9FA00BF4021024800F058
:100BC000E7F90028F9D010BD0038014010B500F059
:100BD00001F810BD0CB5002001900090334800686A
:100BE00040F480303149086000BF3048006800F4AC
:100BF000003000900198401C0190009818B90198AD
:100C0000B0F5A06FF1D12948006800F4003010B1B0
:100C10000120009001E0002000900098012843D1BD
:100C20002348006840F01000214908600846006829
:100C300020F0030008600846006840F002000860E9
:100C40001A484068194948600846406848600846A4
:100C5000406840F4806048600846406820F47C109A
:100C600048600846406840F4E8104860084600685C
:100C700040F08070086000BF0C48006800F0007011
:100C80000028F9D00948406820F00300074948606F
:100C90000846406840F00200486000BF03484068D2
:100CA00000F00C000828F9D10CBD00000010024033
:100CB0000020024010B500F0EFF810BD10B5134849
:100CC000006840F00100114908600846406810497A
:100CD00008400E494860084600680E4908400B4924
:100CE00008600846006820F48020086008464068D4
:100CF00020F4FE0048604FF41F008860FFF766FF95
:100D00004FF000600449086010BD00000010024070
:100D10000000FFF8FFFFF6FE08ED00E010B501212E
:100D2000880700F04CF8012803D10121800700F06A
:100D300037F807480088401C0549088008460088A5
:100D4000022804DB0020088001200249087010BD41
:100D5000040000200200002010B501210D4800F021
:100D60002EF8012803D101210A4800F019F80A4899
:100D70000088401C00B2084908800846B0F900000D
:100D8000B0F57A7F04DB0020088001200349087059
:100D900010BD0000000C00400600002003000020F1
:100DA000CA430282704721B1028842F001020280E8
:100DB00004E002884FF6FE731A400280704730B597
:100DC0000246002000230024158A05EA01039589C4
:100DD00005EA010413B10CB1012000E0002030BD90
:100DE0001AB183890B43838102E083898B4383811A
:100DF00070470000002202881D4B98420ED01D4B08
:100E000098420BD0B0F1804F08D01B4B984205D0D0
:100E10001A4B984202D01A4B984204D14FF68F7366
:100E20001A404B881A43174B984207D0164B9842EA
:100E300004D04FF6FF431A40CB881A4302808B88B8
:100E400083850B8803850A4B98420BD0094B984247
:100E500008D00E4B984205D00D4B984202D00D4B56
:100E6000984201D10B7A03860123838270470000E8
:100E7000002C014000340140000400400008004004
:100E8000000C0040001000400014004000400140F1
:100E900000440140004801400448006820B1034874
:100EA0000068401E014908607047000034000020BF
:100EB00008B50020009040F22551204800F075F858
:100EC00058B12520FFF780FC1C4800F029F9C0B27A
:100ED00000909DF8000000F03BF90821174800F051
:100EE00057F8012806D10821144800F02DF81348BE
:100EF00000F016F940F22771104800F056F8E0B102
:100F000040F227710D4800F028F82520FFF75CFC1F
:100F10006846FFF73BFE9DF80010084800F005F911
:100F20000748FFF7CFFC40B10020064908700022B7
:100F300040F22771014800F062F808BD0038014016
:100F40003C0000200800002001F40072B2F5007F90
:100F500000D100BFCA430280704710B500220023B1
:100F600040F66A14A14200D100BF0A120124944045
:100F7000A3B2DC43048010BD21B1828942F4005247
:100F8000828104E082894DF6FF731A4082817047A6
:100F900002460020B1F5007F00D100BF13880B404E
:100FA0000BB1012000E00020704770B5024600241C
:100FB00000230025002040F66A16B14200D100BF90
:100FC000C1F3421501F01F03012606FA03F3012DB8
:100FD00002D19689334006E0022D02D1168A3340B1
:100FE00001E0968A33400C12012606FA04F41688B2
:100FF000344013B10CB1012000E0002070BDF0B509
:101000000346002400260025002040F66A17B94256
:1010100000D100BF1846C1F3421401F01F0601279A
:1010200007FA06F5012C01D10C3004E0022C01D1A5
:10103000103000E014301AB107682F43076002E057
:101040000768AF430760F0BD2DE9F04786B005465D
:101050000E460024A24600BFA1460027B08900B179
:1010600000BF2F462C8A4CF6FF700440F0880443E2
:101070002C82AC894EF6F3100440B08831890843C5
:10108000718908430443AC81AC8A4FF6FF400440A9
:10109000B0890443AC8201A8FFF762FC1F48874275
:1010A00002D1DDF810A001E0DDF80CA0A88900F461
:1010B000004040B10AEBCA0000EB0A103168490059
:1010C000B0FBF1F807E00AEBCA0000EB0A10316848
:1010D0008900B0FBF1F86420B8FBF0F004012009AE
:1010E000642101FB1089A88900F4004040B132203E
:1010F00000EBC900B0FBF1F000F00700044308E08A
:10110000322000EB09106421B0FBF1F000F00F0079
:1011100004432C8106B0BDE8F08700000038014090
:1011200001468888C0F308007047C1F30802828036
:1011300070474FF41651016000218180C180018108
:101140000C21418100218181704700BFFEE7000032
:1011500031B50024012269460248FFF786F9C4B27E
:10116000204638BD48000020014A024900F013B86B
:10117000B91100083800002002E008C8121F08C199
:10118000002AFAD170477047002001E001C1121F08
:10119000002AFBD170472DE9F04116460F46044660
:1011A000002503E03946B047641C6D1C20780028F8
:1011B000F8D12846BDE8F08170B504460D46E0B28E
:1011C000FFF7F4FC204670BDFFF766FAFFF734FA2C
:1011D00011A0FFF7C9FF1EE0FFF76AFBFFF744FB12
:1011E000012210211548FFF713FA0022202113488D
:1011F000FFF70EFA4FF47A70FFF71EF90022102164
:101200000E48FFF705FA012220210C48FFF700FAEB
:101210000B48FFF71DF9DFE7496E697420537973B6
:1012200074656D20686173206265656E2066696E05
:1012300069736865642E0D0A00000000001001400B
:1012400040420F0064120008000000203C00000033
:1012500078110008A01200083C000020E4040000FF
:1012600088110008000000000000000000000000DD
:101270000001020304010203040607080902040630
:101280000800000000A24A04000000000000000066
:101290000102030406070809000000000000000026
:0400000508000131BD
:00000001FF
