:020000040800F2
:1000000028090020450100081D090008B50700085F
:1000100019090008B9010008FF15000800000000D8
:100020000000000000000000000000002D1000088B
:10003000AD05000800000000390C00086911000837
:100040005F0100085F0100085F0100085F01000810
:100050005F0100085F0100085F0100085F01000800
:100060005F0100085F0100085F0100085F010008F0
:100070005F0100085F0100085F0100085F010008E0
:100080005F0100085F0100085F0100085F010008D0
:100090005F0100085F0100085F0100085F010008C0
:1000A0005F0100085F0100085F0100085F010008B0
:1000B000D11100085F0100085F0100085F0100081E
:1000C0005F0100085F0100085F0100085F01000890
:1000D0005F010008651300085F0100085F01000868
:1000E0005F0100085F0100085F0100085F01000870
:1000F0005F0100085F0100085F0100085F01000860
:100100005F0100085F0100080D1200085F01000890
:100110005F0100085F0100085F0100085F0100083F
:100120005F0100085F0100085F0100085F0100082F
:10013000DFF80CD000F02EF800480047ED19000859
:10014000280900200648804706480047FEE7FEE7EA
:10015000FEE7FEE7FEE7FEE7FEE7FEE7FEE7FEE777
:10016000711100083101000830B50B46014600202E
:100170002022012409E021FA02F59D4205D303FA69
:1001800002F5491B04FA02F52844151EA2F10102EA
:10019000F1DC30BD064C074D06E0E06840F001039D
:1001A00094E8070098471034AC42F6D3FFF7C4FF39
:1001B000F42400081425000800BFFEE700200149D0
:1001C000087070470B00002000200149087070473C
:1001D0000A00002010B54FF4A06000F0E5FB10BD50
:1001E00008B50121082000F079FD0121102000F060
:1001F00075FD4FF40050ADF8000010208DF803009D
:1002000003208DF802006946294800F01BFA4FF4DC
:100210000051274800F0A3FA4FF40040ADF8000069
:1002200010208DF8030003208DF802006946204855
:1002300000F008FA4FF400411D4800F090FA4FF426
:100240008040ADF8000010208DF8030003208DF8E9
:1002500002006946164800F0F5F94FF48041144851
:1002600000F07DFA4FF48050ADF8000010208DF8BA
:10027000030003208DF8020069460D4800F0E2F902
:100280004FF480510A4800F06AFA0820ADF80000E7
:1002900010208DF8030003208DF802006946054800
:1002A00000F0D0F90821034800F059FA08BD000019
:1002B000000C01400010014010B50021AE2000F0FC
:1002C00073FC0021D52000F06FFC0021502000F0CD
:1002D0006BFC0021A82000F067FC00213F2000F00B
:1002E00063FC0021D32000F05FFC0021084600F0F1
:1002F0005BFC0021402000F057FC00218D2000F025
:1003000053FC0021142000F04FFC0021202000F0BD
:100310004BFC0021022000F047FC0021A12000F04E
:1003200043FC0021C02000F03FFC0021DA2000F057
:100330003BFC0021122000F037FC0021812000F05E
:1003400033FC0021EF2000F02FFC0021D92000F029
:100350002BFC0021F12000F027FC0021DB2000F025
:1003600023FC0021302000F01FFC0021A42000F01D
:100370001BFC0021A62000F017FC0021AF2000F09C
:1003800013FC10BD10B500F0B9FC4FF4803000F044
:1003900077FD00F0D3FD0446012C24D1102000F09D
:1003A00037F9022000F042F9002000F05DFD002046
:1003B00000F098FDA00200F089FD4FF4E011200448
:1003C00000F0A2FD012000F099FD00BF392000F0EF
:1003D00025FD0028FAD0022000F0A4FD00BF00F0A7
:1003E0003BFD0828FBD110BD7FB505460C46012119
:1003F000084600F063FCADF80850ADF8044000205A
:10040000ADF80A00ADF8060001A94FF0804000F0F9
:100410004BFF01221146900700F03CFF1C208DF895
:10042000000000208DF8010003208DF8020001205B
:100430008DF80300684600F07FFA0121880700F07C
:100440000CFF7FBD7FB505460C460121082000F05A
:1004500035FCADF80850ADF804400020ADF80A00B6
:10046000ADF8060001A90E4800F01EFF012211465A
:100470000B4800F00FFF32208DF8000000208DF8AF
:10048000010003208DF8020001208DF8030068466A
:1004900000F052FA0121024800F0DFFE7FBD0000AB
:1004A000000C004010B586B004460121880300F01E
:1004B00015FC0121042000F011FC4FF40070ADF890
:1004C000140018208DF8170003208DF8160005A9D8
:1004D000224800F0B7F84FF48060ADF81400042013
:1004E0008DF8170005A91D4800F0ACF801A801F02F
:1004F0007AF801940020ADF80800ADF80A00ADF8D4
:100500000C000C20ADF80E000020ADF8100001A981
:10051000134800F0F3FF25208DF8000001208DF82E
:1005200001008DF802008DF80300684600F004FA1F
:10053000012240F225510A4800F0BBFF012240F29F
:100540002771074800F0B5FF0121054800F06EFF54
:1005500000200449087006B010BD000000080140EA
:10056000003801401000002030B50346002016E09E
:10057000B3F900509C68645D0C541C88641C24B260
:100580001C80B3F90040B3F90450AC4201DB0024F5
:100590001C80441C20B2DC88641E24B2DC80B3F9C9
:1005A0000640002C01DD9042E2DB30BD70470000C8
:1005B00001B504490098086000BF0248006800289F
:1005C000FBD108BD2800002070B50346002016E0CE
:1005D0000C5CB3F902609D68AC555C88641C24B265
:1005E0005C80B3F90240B3F90450AC4201DB002453
:1005F0005C80441C20B2DC88641C24B2DC80B3F92B
:100600000640B3F90450AC4201DA9042E0DB70BD21
:100610000549096821F01001034A11601146096873
:100620000143116070470000002002400146002095
:10063000034A106800F0380008431060704700005B
:10064000002002402DE9F04102460025002600204E
:1006500000230024002791F803C00CF00F0591F847
:1006600003C00CF0100CBCF1000F03D091F802C0D5
:100670004CEA050591F800C0BCF1000F31D01468B8
:1006800000202BE04FF0010C0CFA00F3B1F800C091
:100690000CEA03069E4220D183004FF00F0C0CFAA7
:1006A00003F7BC4305FA03FC4CEA040491F803C0C9
:1006B000BCF1280F06D14FF0010C0CFA00FCC2F877
:1006C00014C00AE091F803C0BCF1480F05D14FF007
:1006D000010C0CFA00FCC2F810C0401C0828D1D351
:1006E0001460B1F800C0BCF1FF0F34DD5468002085
:1006F0002EE000F1080C4FF0010808FA0CF3B1F8F5
:1007000000C00CEA03069E4221D183004FF00F0C7B
:100710000CFA03F7BC4305FA03FC4CEA040491F815
:1007200003C0BCF1280F05D100F1080C08FA0CF841
:10073000C2F8148091F803C0BCF1480F07D100F152
:10074000080C4FF0010808FA0CF8C2F81080401CA1
:100750000828CED35460BDE8F08141617047016143
:100760007047000001480078704700000B0000202F
:1007700001480078704700000A000020014621B1BE
:10078000012906D002290CD107E0074AB2F900007E
:1007900008E0064AB2F9000004E0054AB2F9000098
:1007A00000E000BF00BF70470000002002000020F2
:1007B0000400002000BFFEE710B500F0D9FC00F0F7
:1007C0003DF800F00BF84FF4E13000F07DF800F058
:1007D0006FF800F039F800F005F810BD10B5FFF71C
:1007E000F9FC10BD10B5FFF7FBFC4FF48041094840
:1007F000FFF7B3FF0A20FFF7DBFE4FF48041054807
:10080000FFF7ADFF0A20FFF7D3FEFFF755FD00F01D
:10081000D5F810BD000C014030B50B460024048013
:1008200044808280C4808360002104E000248568C5
:100830006C544C1C21B29142F8DB30BD10B5FFF76F
:10084000A1FD10BD7047000030B5164800684FF498
:100850007A72B0FBF2F1B1F1807F01D301201DE08B
:1008600021F07F40401E4FF0E022506150170F22D0
:10087000002807DA13071D0E0B4B00F00F04241F8E
:100880001D5503E013071C0E084B1C5400BF00202D
:100890004FF0E022906107201061002008B100BFF6
:1008A000FEE730BD2C00002018ED00E000E400E081
:1008B00010B5472140F2E730FFF796FD472140F29F
:1008C000E730FFF7BFFD10BD10B5044600F004F897
:1008D0002046FFF7E7FD10BD10B5002406E000201C
:1008E0000949085509490855601C04B2642CF6DB17
:1008F000642205490648FFF78FFF64220349054833
:10090000FFF78AFF10BD00005C040020C004002037
:10091000440400205004002000BFFEE770470000A0
:1009200000F01F0201219140024A430942F82310BE
:100930007047000080E200E070B5002100230F2224
:10094000C47804B3154C246804F4E064C4F5E0648E
:10095000210AC1F10403CA40447804FA03F18478FF
:100960001440214309010E4C0678A155047804F087
:100970001F050124AC4005786D11AD0005F1E0259F
:10098000C5F8004109E0047804F01F050124AC40DB
:10099000044D0678761145F8264070BD0CED00E058
:1009A00000E400E080E100E002490143024A1160F6
:1009B000704700000000FA050CED00E070B500245F
:1009C0000CE0002506E00020074901EBC5010855B1
:1009D000681CC5B2802DF6DB601CC4B2082CF0DBAD
:1009E00000F038F870BD000044000020F0B5144657
:1009F00000267F2801DC3F2900DDF0BD0B46CF1724
:100A000001EB5777FF10C7F10707FAB2CF1701EBD9
:100A10005777FF10A1EBC707FDB2C5F10707012308
:100A2000BB40DEB24CB10A4B03EBC0039B5C3343CB
:100A3000074F07EBC007BB5408E0054B03EBC003AF
:100A40009B5CB343024F07EBC007BB5400BFD4E726
:100A50004400002070B500241CE004F1B001C8B2CD
:100A6000002100F0A1F80021084600F09DF80021C7
:100A7000102000F099F8002508E0084901EBC501B5
:100A8000085D012100F090F8681CC5B2802DF4DBF0
:100A9000601CC4B2082CE0DB70BD000044000020E4
:100AA0002DE9F05F80460C4615461E46A346A5F18B
:100AB0002000C5B200273EE00C2E07D105EB450013
:100AC0001F4901EB800010F8079004E01D4800EB7F
:100AD000051010F807904FF0000A26E009F080009A
:100AE00028B1214640460A9AFFF780FF09E00A989C
:100AF00008B9012000E00020024621464046FFF7E9
:100B000075FF4FEA49604FEA1069601CC4B2A4EB5C
:100B10000B00B04205D15C4608F1010000F0FF086F
:100B200006E00AF1010000F0FF0ABAF1080FD5DB78
:100B300000BF781CC7B2B742BEDBBDE8F09F000023
:100B4000901A0008041F0008F8B505460E46144622
:100B500010A000F063FD18E07A2D03DD002506F1FA
:100B60001000C6B23A2E04DD002005460646FFF707
:100B700025FF012000902278102331462846FFF7F8
:100B80008FFF05F10800C5B2641C20780028E3D16E
:100B9000F8BD0000696E204F4C454453686F775391
:100BA0007472696E670D0A0070B504460D4625B96A
:100BB00008211C48FFF7D1FD05E0012D03D10821D4
:100BC0001848FFF7CCFD4FF480511748FFF7C5FDDB
:100BD00000261BE04FF400511348FFF7BEFD04F060
:100BE000800028B14FF400410F48FFF7B8FD04E042
:100BF0004FF400410C48FFF7B0FD4FF400510A4894
:100C0000FFF7ADFD6006040E701C06B2082EE1DB96
:100C10004FF480510448FFF7A2FD08210148FFF777
:100C20009EFD70BD00100140000C0140014908709C
:100C300070470000060000207047000070B58AB0C1
:100C4000FFF790FDF8B10020FFF798FD0646012060
:100C5000FFF794FD04460220FFF790FD054633465A
:100C60000AA2202102A8CDE9004500F0E7FC02A875
:100C700000F0D4FC02AA20210846FFF765FFFFF729
:100C8000E9FEFFF79BFA0AB070BD00002530326420
:100C90002D253032642D25303264000010B5FFF769
:100CA00067FD18B100F074F9FFF78EFA10BD014628
:100CB000C88808B9012070470020FCE729B1064A1E
:100CC000D2690243044BDA6104E0034AD2698243E9
:100CD000014BDA61704700000010024029B1064A5A
:100CE00092690243044B9A6104E0034A9269824389
:100CF000014B9A6170470000001002400F480068E5
:100D000040F001000D490860084640680C49084061
:100D10000A494860084600680A49084007490860CF
:100D20000846006820F4802008600846406820F4E7
:100D3000FE0048604FF41F008860704700100240BA
:100D40000000FFF8FFFFF6FE30B50021002200246E
:100D500000232D4D6D6805F00C0121B1042905D04B
:100D6000082923D105E0294D056022E0274D0560C3
:100D70001FE0254D6D6805F47012234D6D6805F474
:100D80008034022505EB92421CB9214D5543056084
:100D90000BE01D4D6D6805F400351DB11C4D55432C
:100DA000056002E0194D5543056002E0174D0560EE
:100DB00000BF00BF144D6D6805F0F0010909154D25
:100DC0006B5C0568DD4045600F4D6D6805F4E061C2
:100DD000090A104D6B5C4568DD4085600A4D6D6801
:100DE00005F46051C90A0B4D6B5C4568DD40C56078
:100DF000054D6D6805F44041890B074D6B5CC56876
:100E0000B5FBF3F5056130BD0010024000127A0019
:100E100000093D00110000202100002010B501460E
:100E20000022002300204A11012A02D1094C236824
:100E300006E0022A02D1074C236A01E0054C636AEE
:100E400001F01F02012494401C400CB1012000E07D
:100E5000002010BD001002400248406800F00C0065
:100E6000704700000010024001460020034A50680D
:100E700020F0F0000843506070470000001002406E
:100E80001149096821F480310F4A1160114609683F
:100E900021F480211160B0F5803F03D0B0F5802FA0
:100EA0000ED106E00849096841F48031064A116014
:100EB00007E00549096841F4A021034A116000E0F8
:100EC00000BF00BF70470000001002400146002034
:100ED000034A506820F4E060084350607047000007
:100EE0000010024001460020034A506820F4605080
:100EF00040EAC10050607047001002400149086696
:100F0000704700000000424202460020044B58682F
:100F100020F47C1042EA01031843014B58607047EB
:100F20000010024001460020034A506820F00300F0
:100F300008435060704700000010024038B50020A0
:100F400000900024002500BF3120FFF767FF054611
:100F50000098401C00900098B0F5A06F01D0002DC3
:100F6000F2D03120FFF75AFF08B1012400E000243D
:100F7000204638BD70B504460025012221460348AD
:100F8000FFF7F2FAC5B2284670BD00004404002005
:100F90002148B0F9000040F2F311884234DB1F48C9
:100FA000007880BB1E48B0F900003B2821DB1D48BB
:100FB000B0F900003B2812DB1B48B0F900001728ED
:100FC00003DB00201849088005E017480088401C12
:100FD00000B21549088000201249088005E0114838
:100FE0000088401C00B20F49088000200C4908808E
:100FF00005E00B480088401C00B209490880002029
:101000000549088006E0FFE703480088401C00B25D
:1010100001490880704700000800002006000020F9
:1010200004000020020000200000002070470000A3
:1010300010B50446E1B2054800F0D1FA00BF4021E6
:10104000024800F0FFF90028F9D010BD0038014037
:1010500010B500F001F810BD0CB500200190009013
:101060003348006840F480303149086000BF3048A0
:10107000006800F4003000900198401C0190009836
:1010800018B90198B0F5A06FF1D12948006800F4B3
:10109000003010B10120009001E000200090009885
:1010A000012843D12348006840F01000214908601E
:1010B0000846006820F0030008600846006840F019
:1010C000020008601A4840681949486008464068AC
:1010D00048600846406840F48060486008464068C0
:1010E00020F47C1048600846406840F4E8104860EE
:1010F0000846006840F08070086000BF0C48006837
:1011000000F000700028F9D00948406820F0030082
:10111000074948600846406840F00200486000BF48
:101120000348406800F00C000828F9D10CBD00000D
:10113000001002400020024020B1012805D0022802
:1011400009D105E0054A118006E0054A118003E057
:10115000044A118000E000BF00BF7047000000207B
:10116000020000200400002010B500F0EFF810BDD0
:1011700010B51348006840F00100114908600846A6
:101180004068104908400E494860084600680E490A
:1011900008400B4908600846006820F48020086079
:1011A0000846406820F4FE0048604FF41F00886045
:1011B000FFF74EFF4FF000600449086010BD0000CB
:1011C000001002400000FFF8FFFFF6FE08ED00E00F
:1011D00010B50121880700F04CF8012803D1012146
:1011E000800700F037F807480088401C0549088050
:1011F00008460088022804DB0020088001200249FC
:10120000087010BD0C0000200A00002010B501215C
:101210000D4800F02EF8012803D101210A4800F002
:1012200019F80A480088401C00B20849088008469E
:10123000B0F90000B0F57A7F04DB002008800120BF
:101240000349087010BD0000000C00400E00002093
:101250000B000020CA430282704721B1028842F08D
:101260000102028004E002884FF6FE731A400280F9
:10127000704730B50246002000230024158A05EA95
:101280000103958905EA010413B10CB1012000E0C6
:10129000002030BD1AB183890B43838102E083892A
:1012A0008B43838170470000002202881D4B9842C7
:1012B0000ED01D4B98420BD0B0F1804F08D01B4B85
:1012C000984205D01A4B984202D01A4B984204D14A
:1012D0004FF68F731A404B881A43174B984207D02A
:1012E000164B984204D04FF6FF431A40CB881A435E
:1012F00002808B8883850B8803850A4B98420BD02C
:10130000094B984208D00E4B984205D00D4B98429D
:1013100002D00D4B984201D10B7A038601238382C0
:1013200070470000002C01400034014000040040E0
:1013300000080040000C0040001000400014004075
:10134000004001400044014000480140044800685A
:1013500020B103480068401E014908607047000042
:101360002800002008B50020009040F225512048B8
:1013700000F075F858B12520FFF7D2FA1C4800F0AC
:1013800029F9C0B200909DF8000000F03BF9082157
:10139000174800F057F8012806D10821144800F03A
:1013A0002DF8134800F016F940F22771104800F0AC
:1013B00056F8E0B140F227710D4800F028F82520DA
:1013C000FFF7AEFA6846FFF7D5FD9DF80010084814
:1013D00000F005F90748FFF76AFC40B10020064914
:1013E0000870002240F22771014800F062F808BD41
:1013F00000380140440400201000002001F4007275
:10140000B2F5007F00D100BFCA430280704710B51B
:101410000022002340F66A14A14200D100BF0A1244
:1014200001249440A3B2DC43048010BD21B1828921
:1014300042F40052828104E082894DF6FF731A4023
:101440008281704702460020B1F5007F00D100BFC5
:1014500013880B400BB1012000E00020704770B5ED
:101460000246002400230025002040F66A16B142FF
:1014700000D100BFC1F3421501F01F03012606FA97
:1014800003F3012D02D19689334006E0022D02D1EB
:10149000168A334001E0968A33400C12012606FA80
:1014A00004F41688344013B10CB1012000E0002090
:1014B00070BDF0B50346002400260025002040F64C
:1014C0006A17B94200D100BF1846C1F3421401F0B7
:1014D0001F06012707FA06F5012C01D10C3004E0A4
:1014E000022C01D1103000E014301AB107682F43EC
:1014F000076002E00768AF430760F0BD2DE9F047E1
:1015000086B005460E460024A24600BFA14600272D
:10151000B08900B100BF2F462C8A4CF6FF70044002
:10152000F08804432C82AC894EF6F3100440B08856
:1015300031890843718908430443AC81AC8A4FF672
:10154000FF400440B0890443AC8201A8FFF7FCFBD4
:101550001F48874202D1DDF810A001E0DDF80CA0A1
:10156000A88900F4004040B10AEBCA0000EB0A1061
:1015700031684900B0FBF1F807E00AEBCA0000EB64
:101580000A1031688900B0FBF1F86420B8FBF0F074
:1015900004012009642101FB1089A88900F400409E
:1015A00040B1322000EBC900B0FBF1F000F00700C1
:1015B000044308E0322000EB09106421B0FBF1F095
:1015C00000F00F0004432C8106B0BDE8F087000056
:1015D0000038014001468888C0F308007047C1F315
:1015E0000802828070474FF416510160002181800B
:1015F000C18001810C21418100218181704700BFA0
:10160000FEE7000031B50024012269460248FEF7DA
:10161000DBFFC4B2204638BD500400200FB4054B98
:1016200010B503A9044A029800F02CF810BC5DF82C
:1016300014FB0000DD190008400000200FB41CB5A9
:101640000A46521ECDE9000207A9054B6A460698D4
:1016500000F018F8009A002111701CBC5DF814FB12
:10166000C719000802E008C8121F08C1002AFAD1F1
:1016700070477047002001E001C1121F002AFBD112
:10168000704700002DE9FF4F8BB0884605460026C5
:1016900006E025280BD0DDE90D1290476D1C761C65
:1016A00028780028F5D10FB03046BDE8F08F00242F
:1016B000A146A2460122AE4900E0044315F8013FCD
:1016C000203B02FA03F00842F7D128782A2810D0EC
:1016D0006FF02F022878A0F13001092915D809EB05
:1016E000890102EB410144F0020400EB01096D1C89
:1016F000F0E758F8041B5FEA010903D544F40054ED
:10170000C9F1000944F002046D1C28782E2817D175
:1017100015F8010F44F004042A280ED06FF02F02B0
:101720002878A0F1300109290AD80AEB8A0102EBD6
:10173000410100EB010A6D1CF2E758F804AB6D1C87
:1017400028786C280FD006DC4C2817D068280DD0DC
:101750006A2814D104E0742810D07A280FD10DE043
:1017600044F400140AE044F4801401E044F440140A
:101770006978814202D104F580146D1C6D1C2878B3
:10178000692865D006DC00288DD0632827D064281E
:1017900006D15DE06E2808D073282AD0752877D04E
:1017A000DDE90D129047761CE0E0C4F302500228F8
:1017B00009D003280DD0D8F8001004280DD00E60F1
:1017C00008F10408D2E0D8F80010F217C1E900626D
:1017D000F6E7D8F800100E80F2E70E70F0E718F880
:1017E000041B8DF8001000208DF80100EB4601204D
:1017F00003E058F804BB4FF0FF3061074FF00007DB
:1018000001D40AE07F1C57450DDA8742FADB1BF84A
:1018100007100029F6D106E07F1C8742FCDB1BF88D
:1018200007100029F8D1DDE90D23A9EB0700814657
:10183000214600F0B1F83044C61904E0DDE90D128C
:101840001BF8010B90477F1EF8D22146484688E0DE
:1018500058F8040BC4F302514FF00A0B032900D1CE
:1018600000B2042900D140B2002802DA40422D2102
:1018700002E0210505D52B218DF82410012104E07B
:1018800006E0E10710D02021F6E708AF089113E049
:1018900058F8040BC4F302514FF00A0B032900D18E
:1018A00080B2042900D1C0B20021EEE75946FEF70C
:1018B0005BFC303107F8011D0028F7D1ADEB0700C4
:1018C00000F1200B600702D524F4803401E04FF0D2
:1018D000010ADA4502DDAAEB0B0000E00020824697
:1018E00000EB0B0108980144A9EB01000A90E0030A
:1018F00006D4DDE90D2321460A9800F04DF8064490
:101900004FF0000908E009A911F80900DDE90D12FE
:10191000904709F10109761C08998945F3DBE0033A
:101920000CD5DDE90D2321460A9800F035F8064470
:1019300004E0DDE90D1230209047761CBAF1000179
:10194000AAF1010AF5DC05E0DDE90D1217F8010B3B
:101950009047761CBBF10001ABF1010BF4DC0A9857
:101960002146DDE90D2300F005F806446D1C97E6DD
:10197000092801002DE9F041044600251E461746BE
:10198000880404D405E039462020B0476D1C641E4D
:10199000F9D52846BDE8F0812DE9F041044600253F
:1019A0001E469046C80301D5302700E02027880452
:1019B00004D505E041463846B0476D1C641EF9D594
:1019C0002846BDE8F0814A68002A06D00A68531C00
:1019D0000B6010704868401E4860704770B5044640
:1019E0000D46E0B2FFF724FB204670BDFEF72AFF4C
:1019F000FEF7E2FE13A0FFF711FE0020FFF716F935
:101A000017210020FFF798FB3B210120FFF794FBF3
:101A100032210220FFF790FB13A200210820FFF7DC
:101A200093F815A210211820FFF78EF815A2302187
:101A30001820FFF789F803E0FFF730F9FFF7FEF809
:101A4000FAE70000496E69742053797374656D205C
:101A5000686173206265656E2066696E697368658A
:101A6000642E0D0A0000000053544D3332463130CD
:101A700033426F6172640000323032352D30372DC1
:101A8000333100004348454E204D494E4A494500F8
:101A90000000000000000000000000000000000046
:101AA0003F40000000000000000030004000300017
:101AB0004000000009000BC03D000BC03D000900C4
:101AC00018C024407FE0224031800000180024C06C
:101AD0001B000D803240018003801C4027401C8089
:101AE00007400040100060000000000000000000FF
:101AF0000000000000001F80204040200000402027
:101B000020401F8000000000090006001F80060022
:101B100009000000040004003F80040004000000ED
:101B2000001000600000000000000000040004003D
:101B30000400040004000000000000400000000059
:101B400000000000002001C0060038004000000036
:101B50001F802040204020401F80000000001040D7
:101B60003FC000400000000018C021402240244037
:101B70001840000010802040244024401B800000BA
:101B800002000D0011003FC0014000003C802440D5
:101B900024402440238000001F80244024403440FF
:101BA000038000003000200027C038002000000023
:101BB0001B802440244024401B8000001C0022C0C5
:101BC000224022401F80000000000000084000006A
:101BD00000000000000000000460000000000000A1
:101BE000000004000A0011002080404009000900A4
:101BF0000900090009000000000040402080110099
:101C00000A000400180020002340240018000000EF
:101C10001F802040274029401F400000004007C08F
:101C200039000F0001C0004020403FC02440244044
:101C30001B8000001F80204020402040308000009A
:101C400020403FC0204020401F80000020403FC077
:101C500024402E4030C0000020403FC024402E00D1
:101C6000300000000F00108020402240338002002E
:101C700020403FC0040004003FC0204020402040DE
:101C80003FC02040204000000060202020203FC0B6
:101C90002000200020403FC024400B0030C02040E6
:101CA00020403FC020400040004000C03FC03C00FA
:101CB00003C03C003FC0000020403FC00C40230058
:101CC0003FC020001F802040204020401F80000097
:101CD00020403FC024402400180000001F80214005
:101CE000214020E01FA0000020403FC024402600EB
:101CF00019C0004018C02440244022403180000018
:101D0000300020403FC020403000000020003F80D5
:101D1000004000403F80200020003E0001C007003E
:101D200038002000380007C03C0007C03800000021
:101D3000204039C0060039C0204000002000384053
:101D400007C0384020000000304021C02640384005
:101D500020C00000000000007FE040204020000084
:101D6000000070000C0003800040000000004020D4
:101D700040207FE000000000000020004000200024
:101D800000000000001000100010001000100010F3
:101D90000000000040000000000000000000028081
:101DA0000540054003C0004020003FC004400440FF
:101DB000038000000000038004400440064000004F
:101DC00000000380044024403FC000400000038026
:101DD0000540054003400000000004401FC02440AF
:101DE00024402000000002E0055005500650042069
:101DF00020403FC00440040003C0004000000440F5
:101E000027C000400000000000100010041027E070
:101E10000000000020403FC00140070004C0044013
:101E2000204020403FC000400040000007C00400A8
:101E300007C0040003C00000044007C004400400C1
:101E400003C0004000000380044004400380000001
:101E5000041007F0045004400380000000000380D9
:101E60000440045007F00010044007C00240040082
:101E700004000000000006400540054004C00000CA
:101E8000000004001F8004400040000004000780A0
:101E90000040044007C000400400070004C0018067
:101EA00006000400060001C0070001C00600000093
:101EB000044006C0010006C00440000004100710E2
:101EC00004E00180060004000000044005C0064054
:101ED000044000000000000004007BE040200000FF
:101EE000000000000000FFF00000000000004020A3
:101EF0007BE0040000000000400080004000200063
:101F00002000400000000000000000000000000071
:101F1000000000000000000000001FCC000C0000CA
:101F200000000000000008003000600008003000E1
:101F300060000000022003FC1E20022003FC1E2083
:101F40000220000000000E1811043FFF10840C78DE
:101F5000000000000F0010840F3800C007781884BC
:101F60000078000000780F8410C411240E9800E45B
:101F700000840008080068007000000000000000F5
:101F80000000000000000000000007E01818200416
:101F900040020000000040022004181807E0000082
:101FA000000000000240024001800FF0018002406A
:101FB000024000000080008000800FF80080008058
:101FC000008000000001000D000E00000000000075
:101FD0000000000000000080008000800080008081
:101FE000008000800000000C000C000000000000D9
:101FF00000000000000000060018006001800600DC
:1020000018002000000007F0080810041004080859
:1020100007F000000000080408041FFC000400048E
:102020000000000000000E0C101410241044118455
:102030000E0C000000000C1810041104110412888A
:102040000C700000000000E00320042408241FFCA2
:102050000024000000001F9810841104110410884F
:1020600010700000000007F008881104110418889F
:102070000070000000001C00100010FC13001C0089
:102080001000000000000E38114410841084114428
:102090000E38000000000700088C10441044088827
:1020A00007F00000000000000000030C030C00001B
:1020B0000000000000000000000101060000000018
:1020C0000000000000000080014002200410080809
:1020D0001004000002200220022002200220022020
:1020E0000220000000001004080804100220014033
:1020F0000080000000000E001200100C106C108018
:102100000F00000003E00C1813E4142417C408287F
:1021100007D000000004003C03C41C40074000E45A
:10212000001C000410041FFC1104110411040E888B
:102130000070000003E00C181004100410041008D4
:102140001C10000010041FFC1004100410040808E8
:1021500007F0000010041FFC1104110417C4100440
:102160000818000010041FFC1104110017C0100013
:102170000800000003E00C181004100410441C7840
:102180000040000010041FFC1084008000801084B8
:102190001FFC10040000100410041FFC10041004A5
:1021A0000000000000030001100110011FFE1000DC
:1021B0001000000010041FFC110403801464181C9C
:1021C0001004000010041FFC1004000400040004AC
:1021D000000C000010041FFC1F0000FC1F001FFC6F
:1021E0001004000010041FFC0C04030000E0101891
:1021F0001FFC100007F00808100410041004080861
:1022000007F0000010041FFC108410801080108064
:102210000F00000007F0081810241024101C080AF2
:1022200007F2000010041FFC1104110011C011304E
:102230000E0C000400000E1C1104108410841044C5
:102240001C3800001800100010041FFC10041000BF
:102250001800000010001FF810040004000410040F
:102260001FF8100010001E0011E0001C0070138009
:102270001C0010001FC0103C00E01F0000E0103CDC
:102280001FC000001004180C163401C001C0163421
:10229000180C100410001C00130400FC13041C0094
:1022A000100000000804101C1064108413041C04A7
:1022B000101800000000000000007FFE40024002F5
:1022C00040020000000030000C0003800060001C91
:1022D0000003000000004002400240027FFE0000B8
:1022E000000000000000000020004000400040000E
:1022F00020000000000100010001000100010001B8
:10230000000100010000400040002000000000002B
:102310000000000000000098012401440144014431
:1023200000FC000410001FFC008801040104008868
:102330000070000000000070008801040104010426
:1023400000880000000000700088010401041108EA
:102350001FFC0004000000F8014401440144014452
:1023600000C800000000010401040FFC1104110466
:1023700011001800000000D601290129012901C916
:102380000106000010041FFC00840100010001048C
:1023900000FC000400000104190419FC00040004FE
:1023A000000000000000000300010101190119FEF6
:1023B0000000000010041FFC0024004001B4010CC8
:1023C000010400000000100410041FFC00040004BD
:1023D00000000000010401FC0104010001FC0104F3
:1023E000010000FC010401FC008401000100010463
:1023F00000FC0004000000F80104010401040104D1
:1024000000F80000010101FF0085010401040088BB
:102410000070000000000070008801040104010544
:1024200001FF00010104010401FC0084010401001A
:1024300001800000000000CC0124012401240124BB
:102440000198000000000100010007F801040104E8
:1024500000000000010001F800040004000401086D
:1024600001FC0004010001800170000C00100160FB
:102470000180010001F0010C003001C00030010CAE
:1024800001F0010000000104018C00740170018C56
:1024900001040000010101810171000E00180160BA
:1024A0000180010000000184010C01340144018419
:1024B000010C0000000000000000000001003EFCD4
:1024C000400240020000000000000000FFFF00008A
:1024D000000000000000400240023EFC010000003D
:1024E000000000000000600080008000400040000C
:1024F00020002000142500080000002044000000F7
:10250000641600085825000844000020E408000074
:102510007416000800000000000000000000000029
:10252000000000000000000000010203040102039B
:102530000406070809020406080000000000000065
:1025400000A24A0400000000000000000102030491
:08255000060708090000000065
:0400000508000131BD
:00000001FF
