:020000040800F2
:10000000600D00204501000881170008B1140008A8
:100010007D170008350700083F2C0008000000008D
:10002000000000000000000000000000192200088D
:100030003B12000800000000311B0008BD2400082E
:100040005F0100085F0100085F0100085F01000810
:100050005F0100085F0100085F0100085F01000800
:100060005F0100085F0100085F0100085F010008F0
:100070005F0100085F0100085F0100085F010008E0
:100080005F0100085F0100085F0100085F010008D0
:100090005F0100085F0100085F0100085F010008C0
:1000A0005F0100085F0100085F0100085F010008B0
:1000B00025250008612500085F0100085F01000890
:1000C0005F0100085F0100085F0100085F01000890
:1000D0005F010008DD2800085F0100085F010008DB
:1000E0005F0100085F0100085F0100085F01000870
:1000F0005F0100085F0100085F0100085F01000860
:100100005F0100085F010008892500085F01000801
:100110005F0100085F0100085F0100085F0100083F
:100120005F0100085F0100085D0F0008890F0008EB
:10013000DFF80CD000F0EEF900480047052D00086C
:10014000600D00200648804706480047FEE7FEE7AE
:10015000FEE7FEE7FEE7FEE7FEE7FEE7FEE7FEE777
:10016000C52400083101000880EA010210B502F040
:100170000043400022D04A001FD0010E01EB126163
:10018000C0F35600C2F3560240F4000042F40002ED
:10019000A0FB022000047F39140400D0401C50EA68
:1001A000124001D44000491EC2B20C0604EBD0102C
:1001B000401C4008802A02D003E0002010BD20F03F
:1001C0000100002900DA0020184310BD2DE9FE4F80
:1001D000804681EA0300C00F0C46009021F00041E8
:1001E00023F00045B8EB0200A94105D24046214664
:1001F00090461C460B46024623F00040104347D071
:10020000270DC7F30A00C3F30A510290401A019068
:1002100040286BDAC3F3130040F4801B0098924629
:1002200020B10023D2EB030A63EB0B0B0198594674
:10023000C0F14002504600F0B8F806460D46504660
:100240005946019A00F0C0F810EB08006141002403
:1002500087EA115284EAE7731A4340D0009A62B3E6
:10026000019A012A4FEA075215DC001B61EB0201DB
:100270004FF0004202EA0752CDE90042001C41F56E
:10028000801132462B4600F0F7F803B0BDE8F08F3E
:1002900040462146F9E7001B61EB0201001C41F5D5
:1002A000801300185B412018A2F5001747EB0301EB
:1002B00040EAD570B6196D4111E06D084FEA360677
:1002C00045EAC0754FEA0752001B61EB0201001CB2
:1002D00041F5801149084FEA30000019514132467A
:1002E0002B4603B0BDE8F04F00F0B7B800980122EC
:1002F00040000023D0EB020263EBE073009821463C
:100300004FEAE074B8EB000061EB0401E9E783F029
:1003100000435BE781F0004158E796230022114635
:1003200000F06DB820F00040C10DC0F3160040F49D
:1003300000007F2901DA00207047962903DCC1F113
:100340009601C840704796398840704700F00042D7
:1003500030F000400AD0C10D01F56071C0F3160005
:1003600042EA0151C208400711437047002001468C
:10037000704701F0004330B421F0004150EA01021F
:1003800006D00A0DA2F56072C1F31301002A02DC47
:1003900030BC00207047440F44EAC104C100E0189B
:1003A00030BC00EBC25000F021B8202A04DB203A18
:1003B00000FA02F1002070479140C2F1200320FAB8
:1003C00003F3194390407047202A06DBCB17203AED
:1003D00041FA02F043EAE07306E041FA02F3D0404A
:1003E000C2F1200291400843194670470029A8BF76
:1003F0007047401C490008BF20F00100704710B44E
:10040000B0FA80FC00FA0CF050EA010404BF10BC02
:10041000704749B1CCF1200421FA04F411FA0CF12F
:1004200018BF012121430843A3EB0C01CB1D4FEA68
:1004300000614FEA102042BF002010BC704700EB63
:10044000C35010440029A4BF10BC7047401C490091
:1004500008BF20F0010010BC704710B5141E73F1E6
:10046000000408DA401C41F1000192185B411A4374
:1004700001D120F0010010BD2DE9F04D92469B46C0
:1004800011B1B1FA81F202E0B0FA80F22032904666
:10049000FFF78BFF04460F4640EA0A0041EA0B01D2
:1004A00053465A46084313D0114653EA010019D067
:1004B000C8F14002504600F03FF805460E4650464F
:1004C00059464246FFF771FF084305D0012004E07A
:1004D00020463946BDE8F08D0020054346EAE07627
:1004E0002C4337430A986305E40AA0EB0800002276
:1004F000FD0A44EA47540A3002D500200146E9E7E4
:10050000010510196941DDE9084500196941BDE897
:10051000F04DA2E7064C074D06E0E06840F001030D
:1005200094E8070098471034AC42F6D3FFF704FE76
:10053000BC370008DC370008202A04DB203A21FA07
:1005400002F00021704721FA02F3D040C2F12002EC
:10055000914008431946704770B58C1810F8015B3C
:1005600015F0070301D110F8013B2A1106D110F84C
:10057000012B03E010F8016B01F8016B5B1EF9D150
:100580002B0705D40023521E0DD401F8013BFAE7D6
:1005900010F8013BCB1A921C03E013F8015B01F841
:1005A000015B521EF9D5A142D8D3002070BD21B104
:1005B000826842F00102826003E0826822F0010258
:1005C0008260704721B1826842F48072826003E0E9
:1005D000826822F480728260704721B1826842F49E
:1005E0008012826003E0826822F480128260704789
:1005F000014600208A6802F004020AB1012000E0EE
:1006000000207047014600208A6802F008020AB103
:10061000012000E00020704730B502460020002392
:1006200050680F4C20400D790C6844EA05242043A3
:10063000506090680B4C2040D1E902542C434D7916
:1006400044EA450420439060D06A20F470000C7C9A
:10065000641EE4B2234340EA0350D06230BD000080
:10066000FFFEF0FFFDF7F1FFF0B504460D46002058
:100670000021092D11DDE068A5F10A0606EB460709
:10068000072606FA07F18843A5F10A0606EB460697
:1006900003FA06F10843E0600CE0206905EB45072A
:1006A000072606FA07F1884305EB450603FA06F12B
:1006B00008432061072A0FDA606B561E06EB860797
:1006C0001F2606FA07F18843561E06EB860605FA32
:1006D00006F10843606322E00D2A0FDA206BD61F73
:1006E00006EB86071F2606FA07F18843D61F06EB9E
:1006F000860605FA06F10843206310E0E06AA2F1DD
:100700000D0606EB86071F2606FA07F18843A2F1BD
:100710000D0606EB860605FA06F10843E062F0BD19
:10072000816841F0080181607047816841F00401EF
:100730008160704700BFFEE70020014908707047E4
:10074000310000200020014908707047300000206F
:1007500000B587B04FF4004001F09CFB0121480236
:1007600001F0D4FB0121042001F0D0FB0220ADF800
:10077000180000208DF81B0006A91E4800F0DEFDC1
:100780000020019001208DF8080000208DF809005C
:100790004FF4002003900020049001208DF81400F5
:1007A00001A91548FFF738FF072301221146124817
:1007B000FFF75AFF01211048FFF704FF01210E48FF
:1007C000FFF70BFF01210C48FFF7F1FE0A48FFF786
:1007D000A7FF00BF0848FFF715FF0028FAD1064819
:1007E000FFF7A3FF00BF0448FFF702FF0028FAD17C
:1007F00007B000BD000801400024014000B585B0ED
:100800000121042001F082FB0121480701F05EFB79
:100810001020ADF8100003208DF8120000208DF894
:10082000130004A90C4800F089FD2C200090002042
:10083000019002900390694600F066FB01210020C0
:1008400000F04CFB0021084600F078FB012100205D
:1008500000F030FB05B000BD0008014000B585B0D8
:100860000121042001F052FB0121480701F02EFB79
:100870002020ADF8100003208DF8120000208DF824
:10088000130004A90D4800F059FD2C200090002011
:100890000190029003906946102000F035FB012181
:1008A000102000F01BFB0021084600F047FB01214F
:1008B000102000F0FFFA05B000BD00000008014064
:1008C00000B58BB00121084601F0F0FA114800F0A4
:1008D0008BFB1148009011480190002002900120EC
:1008E0000390002004908020059040000690800036
:1008F000079020200890C001099000200A906946C6
:10090000044800F036FC0121024800F061FB0BB006
:1009100000BD0000080002404C24014038000020C7
:1009200003B58DB00121022001F0C0FA1A4800F091
:100930005BFB1A4802900D9803900E9805901020CA
:1009400004900020069080200790400008908000CE
:10095000099020200A9000020B9000200C9002A920
:100960000D4800F006FC3A208DF8040000208DF8B8
:1009700005008DF8060001208DF8070001A800F0A1
:1009800019FF01220221044800F0EAFB012102487C
:1009900000F01EFB0FB000BD3004024008740040A0
:1009A00003B58DB00121022001F080FA1A4800F051
:1009B0001BFB1A4802900D9803900E98059010208A
:1009C000049000200690802007904000089080004E
:1009D000099020200A9000020B9000200C9002A9A0
:1009E0000D4800F0C6FB3B208DF8040000208DF878
:1009F00005008DF8060001208DF8070001A800F021
:100A0000D9FE01220221044800F0AAFB012102487C
:100A100000F0DEFA0FB000BD440402401474004040
:100A200008B50121042001F071FA0121102001F024
:100A30006DFA0220ADF8000048208DF803006946E9
:100A40000B4800F07BFC0420ADF8000048208DF836
:100A500003006946064800F071FC0120ADF8000073
:100A600048208DF803006946024800F067FC08BD85
:100A7000001001400008014010B54FF4A06000F0E4
:100A8000D1FE10BD08B50121082001F03FFA012177
:100A9000102001F03BFA4FF40050ADF80000102098
:100AA0008DF8030003208DF802006946294800F004
:100AB00045FC4FF40051274800F0D6FC4FF40040AD
:100AC000ADF8000010208DF8030003208DF802001F
:100AD0006946204800F032FC4FF400411D4800F008
:100AE000C3FC4FF48040ADF8000010208DF80300E7
:100AF00003208DF802006946164800F01FFC4FF4F1
:100B00008041144800F0B0FC4FF48050ADF8000074
:100B100010208DF8030003208DF8020069460D486F
:100B200000F00CFC4FF480510A4800F09DFC0820B6
:100B3000ADF8000010208DF8030003208DF80200AE
:100B40006946054800F0FAFB0821034800F08CFCD8
:100B500008BD0000000C01400010014010B500214C
:100B6000AE2000F05FFF0021D52000F05BFF0021E8
:100B7000502000F057FF0021A82000F053FF002173
:100B80003F2000F04FFF0021D32000F04BFF002159
:100B9000084600F047FF0021402000F043FF0021FD
:100BA0008D2000F03FFF0021142000F03BFF0021CA
:100BB000202000F037FF0021022000F033FF002149
:100BC000A12000F02FFF0021C02000F02BFF00210A
:100BD000DA2000F027FF0021122000F023FF00217F
:100BE000812000F01FFF0021EF2000F01BFF0021FB
:100BF000D92000F017FF0021F12000F013FF0021A1
:100C0000DB2000F00FFF0021302000F00BFF00215F
:100C1000A42000F007FF0021A62000F003FF002120
:100C2000AF2000F0FFFE10BD10B501F08FF94FF4BA
:100C3000803001F04DFA01F0A9FA0446012C24D1CC
:100C4000102000F061FB022000F06CFB002001F09E
:100C500033FA002001F06EFAA00201F05FFA4FF4BF
:100C6000E011200401F078FA012001F06FFA00BFD2
:100C7000392001F0FBF90028FAD0022001F07AFABD
:100C800000BF01F011FA0828FBD110BD7FB5054661
:100C90000C460121084601F019F9ADF80850ADF8ED
:100CA00004400020ADF80A00ADF8060001A94FF09D
:100CB000804001F0B5FD01221146900701F09DFD35
:100CC0001C208DF8000000208DF8010003208DF815
:100CD000020001208DF80300684600F06BFD012141
:100CE000880701F078FC7FBD7FB505460C460121E1
:100CF000022001F0EBF8ADF80850ADF804400020F8
:100D0000ADF80A00ADF8060001A90F4801F088FD12
:100D100020210D4801F07AFD012211460A4801F018
:100D20006CFD1D208DF8000001208DF801008DF86C
:100D300002008DF80300684600F03CFD01210248E6
:100D400001F049FC7FBD0000000400403EB50546AF
:100D50000C460121042001F0B9F80C4801F048FCD0
:100D6000ADF80450ADF800400020ADF80600ADF835
:100D700002006946054801F053FD2021034801F0B7
:100D800045FD0121014801F026FC3EBD0008004060
:100D90007FB505460C460121082001F097F8ADF813
:100DA0000850ADF804400020ADF80A00ADF8060088
:100DB00001A90E4801F034FD012211460B4801F053
:100DC0001CFD32208DF8000000208DF8010003206A
:100DD0008DF8020001208DF80300684600F0EAFC5F
:100DE0000121024801F0F7FB7FBD0000000C00402C
:100DF00010B586B004460121880301F087F801216F
:100E0000042001F083F84FF40070ADF814001820AE
:100E10008DF8170003208DF8160005A9224800F070
:100E20008DFA4FF48060ADF8140004208DF817009F
:100E300005A91D4800F082FA01A801F090FE019476
:100E40000020ADF80800ADF80A00ADF80C000C2049
:100E5000ADF80E000020ADF8100001A9134801F014
:100E600009FE25208DF8000001208DF801008DF885
:100E700002008DF80300684600F09CFC012240F25D
:100E800025510A4801F0D1FD012240F2277107489F
:100E900001F0CBFD0121054801F084FD002004494B
:100EA000087006B010BD0000000801400038014085
:100EB0003600002039B1084A1268012383401A43E2
:100EC000054B1A6006E0044A1268012383409A43E6
:100ED000014B1A60704700000074004041B1094A9C
:100EE00012684FF4805383401A43064B1A6007E0A0
:100EF000044A12684FF4805383409A43014B1A60AE
:100F0000704700000074004030B5002200230A4CF6
:100F1000226840F6FE748440A243D1E900452C4388
:100F20008D682C43CD6844EA050303FA00F422439C
:100F3000014C226030BD00000074004008B5002262
:100F40000092054A009200F10802009B1A440092A8
:100F5000009A116008BD00000074004010B50748F9
:100F600000F0E8F848B13A2000F018FC044800F01E
:100F700021F8044803C8FFF7D3FC10BD000200109D
:100F8000000100103C00002010B5084800F0D2F825
:100F900050B13B2000F002FC4FF0102000F00AF8A6
:100FA000034803C8FFF7FCFC10BD00000020001040
:100FB0004400002000F0805111B10349086001E0B5
:100FC00002494860704700000404024000000240EB
:100FD00021B1026842F00102026004E002684FF6AB
:100FE000FE731A400260704701684FF6FE721140AE
:100FF00001600021016041608160C1604B4988420D
:1010000008D14A490839496841F00F01474A083A6E
:1010100051608AE045491431884208D14349083972
:10102000496841F0F001414A083A51607DE03F498A
:101030002831884208D13D490839496841F4706136
:101040003A4A083A516070E038493C31884208D148
:1010500036490839496841F47041344A083A5160C8
:1010600063E032495031884208D130490839496833
:1010700041F470212D4A083A516056E02B49643101
:10108000884208D129490839496841F47001274A42
:10109000083A516049E025497831884208D123490E
:1010A0000839496841F07061204A083A51603CE0D3
:1010B0001F49884206D1011F096841F00F01021F34
:1010C000116032E01A491431884208D11849091FC9
:1010D000096841F0F001164A121F116025E0144919
:1010E0002831884208D11249091F096841F470610A
:1010F0000F4A121F116018E00D493C31884208D197
:101100000B49091F096841F47041094A121F116017
:101110000BE007495031884207D10549091F09688A
:1011200041F47021024A121F11607047080002400A
:101130000804024001460020002201F0805313B150
:10114000054B1A6801E0054B1A6802EA01030BB16E
:10115000012000E00020704700040240000002402F
:101160001AB103680B43036002E003688B4303601A
:10117000704710B50022026847F6F0739A430C6A74
:101180008B6823430C6923434C6923438C692343B5
:10119000CC6923434C6A23438C6A23431A4302607D
:1011A000CB6843600B6883604B68C36010BD30B58B
:1011B0000346002016E0B3F900509C68645D0C54AF
:1011C0001C88641C24B21C80B3F90040B3F904509D
:1011D000AC4201DB00241C80441C20B2DC88641E6D
:1011E00024B2DC80B3F90640002C01DD9042E2DB42
:1011F00030BD30B50346002018E0B3F900509C68BC
:1012000034F8154021F810401C88641C24B21C805E
:10121000B3F90040B3F90450AC4201DB00241C8058
:10122000441C20B2DC88641E24B2DC80B3F9064082
:10123000002C01DD9042E0DB30BD704701B5044970
:101240000098086000BF024800680028FBD108BD74
:10125000B802002070B50346002016E00C5CB3F91C
:1012600002609D68AC555C88641C24B25C80B3F954
:101270000240B3F90450AC4201DB00245C80441C02
:1012800020B2DC88641C24B2DC80B3F90640B3F9D8
:101290000450AC4201DA9042E0DB70BD70B5034609
:1012A000002018E031F81040B3F902609D6825F87D
:1012B00016405C88641C24B25C80B3F90240B3F928
:1012C0000450AC4201DB00245C80441C20B2DC886A
:1012D000641C24B2DC80B3F90640B3F90450AC427C
:1012E00001DA9042DEDB70BD10B5012004490870C0
:1012F000012240F22771034801F097FB10BD000066
:1013000036000020003801400549096821F010012D
:10131000034A1160114609680143116070470000DB
:101320000020024001460020034A106800F0380007
:101330000843106070470000002002402DE9F04192
:10134000024600250026002000230024002791F8F3
:1013500003C00CF00F0591F803C00CF0100CBCF1A9
:10136000000F03D091F802C04CEA050591F800C0C7
:10137000BCF1000F31D0146800202BE04FF0010CBD
:101380000CFA00F3B1F800C00CEA03069E4220D12B
:1013900083004FF00F0C0CFA03F7BC4305FA03FC73
:1013A0004CEA040491F803C0BCF1280F06D14FF0B9
:1013B000010C0CFA00FCC2F814C00AE091F803C05A
:1013C000BCF1480F05D14FF0010C0CFA00FCC2F83B
:1013D00010C0401C0828D1D31460B1F800C0BCF183
:1013E000FF0F34DD546800202EE000F1080C4FF0B0
:1013F000010808FA0CF3B1F800C00CEA03069E429B
:1014000021D183004FF00F0C0CFA03F7BC4305FA0F
:1014100003FC4CEA040491F803C0BCF1280F05D189
:1014200000F1080C08FA0CF8C2F8148091F803C017
:10143000BCF1480F07D100F1080C4FF0010808FA81
:101440000CF8C2F81080401C0828CED35460BDE8C8
:10145000F0810246002093680B400BB1012000E0B0
:101460000020704741617047016170470148007872
:1014700070470000310000200148007870470000EC
:1014800030000020004870471401002000487047D9
:101490004C00002000487047DC01002003490A6826
:1014A00002604A684260098901817047D4020020C5
:1014B00000BFFEE710B540F2CF2140F21F30FFF72A
:1014C00013FCFFF745F9FFF7FBF9642202490348D3
:1014D00000F018F910BD00009408002088080020D2
:1014E00010B5FFF7D3FF0E49086064204860FFF78E
:1014F000CDFF0C49086064204860FFF77FF9FFF7D3
:10150000ADF94FF4327140F21F30FFF71FFC044871
:1015100003C8FFF705FA034803C8FFF741FA10BDF7
:101520003C0000204400002010B500F0CBFF00F08C
:101530009BF800F02BF84FF4E13000F0F6F800F0E3
:10154000D5F800F09FF8FFF7B5FFFFF7C9FF00F0EF
:1015500005F800F01FF800F05BF810BD10B500248E
:10156000FFF75EFA0020074908704870887000BFD6
:1015700004E0012004490855601C04B2032CF8DB88
:1015800010BD00000A0000200D00002010B5FFF77C
:1015900073FA10BD10B5FFF775FA4FF48041094892
:1015A000FFF760FF0A20FFF749FE4FF4804105482E
:1015B000FFF75AFF0A20FFF741FEFFF7CFFA00F0CE
:1015C0003BF910BD000C014000210C4A1170517014
:1015D0009170002005E000220849C91C0A54411CF2
:1015E00008B20728F7DB0021044A5172044A11703F
:1015F000044A1170044A117070470000D4020020A0
:1016000007000020080000200900002070470000AB
:1016100010B5FFF73BFF0749086008460068064918
:1016200008606420486005A21021202000F0CAF95B
:1016300010BD0000240000202800002053696E65C2
:101640002100000030B50B460024048044808280D5
:10165000C4808360002104E0002485686C544C1C25
:1016600021B29142F8DB30BD10B5FFF7DDFA10BDB5
:10167000704710B5FFF7A8FFFFF7FAFFFFF7C6FFA7
:1016800010BD000030B5164800684FF47A72B0FB08
:10169000F2F1B1F1807F01D301201DE021F07F4004
:1016A000401E4FF0E022506150170F22002807DA49
:1016B00013071D0E0B4B00F00F04241F1D5503E0F4
:1016C00013071C0E084B1C5400BF00204FF0E022F3
:1016D000906107201061002008B100BFFEE730BD17
:1016E000BC02002018ED00E000E400E010B5472146
:1016F00040F2E730FFF7CAFA472140F2E730FFF740
:1017000047FB10BD30B50B46002404804480828026
:10171000C4808360002105E00024856825F811401D
:101720004C1C21B29142F7DB30BD10B5044600F0ED
:1017300005F82046FFF75CFB10BD000010B5002443
:1017400006E000200949085509490855601C04B203
:10175000642CF6DB642205490648FFF773FF642218
:1017600003490548FFF76EFF10BD0000C0070020C9
:1017700024080020A8070020B407002000BFFEE7CF
:101780007047000000F01F0201219140024A430906
:1017900042F823107047000080E200E000F01F02D2
:1017A00001219140024A430942F82310704700008A
:1017B00080E200E070B5002100230F22C47804B35A
:1017C000154C246804F4E064C4F5E064210AC1F116
:1017D0000403CA40447804FA03F184781440214396
:1017E00009010E4C0678A155047804F01F05012468
:1017F000AC4005786D11AD0005F1E025C5F800415C
:1018000009E0047804F01F050124AC40044D06787B
:10181000761145F8264070BD0CED00E000E400E0D4
:1018200080E100E002490143024A11607047000074
:101830000000FA050CED00E070B500240CE0002576
:1018400006E00020074901EBC5010855681CC5B238
:10185000802DF6DB601CC4B2082CF0DB00F038F8F9
:1018600070BD0000A6030020F0B5144600267F28B6
:1018700001DC3F2900DDF0BD0B46CF1701EB5777A8
:10188000FF10C7F10707FAB2CF1701EB5777FF1028
:10189000A1EBC707FDB2C5F107070123BB40DEB2CC
:1018A0004CB10A4B03EBC0039B5C3343074F07EB80
:1018B000C007BB5408E0054B03EBC0039B5CB3437C
:1018C000024F07EBC007BB5400BFD4E7A6030020BC
:1018D00070B500241CE004F1B001C8B2002100F092
:1018E000A1F80021084600F09DF80021102000F02A
:1018F00099F8002508E0084901EBC501085D0121C0
:1019000000F090F8681CC5B2802DF4DB601CC4B2F6
:10191000082CE0DB70BD0000A60300202DE9F05F7D
:1019200080460C4615461E46A346A5F12000C5B2CA
:1019300000273EE00C2E07D105EB45001F4901EBC7
:10194000800010F8079004E01D4800EB051010F827
:1019500007904FF0000A26E009F0800028B12146E8
:1019600040460A9AFFF780FF09E00A9808B901206B
:1019700000E00020024621464046FFF775FF4FEA8F
:1019800049604FEA1069601CC4B2A4EB0B00B0427E
:1019900005D15C4608F1010000F0FF0806E00AF1FD
:1019A000010000F0FF0ABAF1080FD5DB00BF781C78
:1019B000C7B2B742BEDBBDE8F09F0000582D00085B
:1019C000CC310008F8B505460E46144610A001F0CB
:1019D00069F918E07A2D03DD002506F11000C6B282
:1019E0003A2E04DD002005460646FFF725FF0120BC
:1019F00000902278102331462846FFF78FFF05F12B
:101A00000800C5B2641C20780028E3D1F8BD0000AE
:101A1000696E204F4C454453686F77537472696EFA
:101A2000670D0A0070B504460D4625B908211C480B
:101A3000FFF718FD05E0012D03D108211848FFF735
:101A400013FD4FF480511748FFF70CFD00261BE0F3
:101A50004FF400511348FFF705FD04F0800028B152
:101A60004FF400410F48FFF7FFFC04E04FF4004142
:101A70000C48FFF7F7FC4FF400510A48FFF7F4FC5D
:101A80006006040E701C06B2082EE1DB4FF4805194
:101A90000448FFF7E9FC08210148FFF7E5FC70BDA9
:101AA00000100140000C01401CB50446207818B914
:101AB000FFF7ECFC00900CE02078012803D1FFF741
:101AC000E9FC009005E02078022802D1FFF7DAFC5B
:101AD00000906420019000201CBD70B504460025D4
:101AE0002078802803DA0125204600F002F82846F5
:101AF00070BD10B50378002208210DE05406220EB7
:101B0000445C42EAD412445C44F080044454445C93
:101B10001C44E3B24C1EE1B20129EFDC42F0800428
:101B2000447044781C44E3B243F08004447210BD16
:101B3000704710B5FFF79AFC18B1FFF7C9FEFEF722
:101B4000FBFD10BD1CB5FFF797FC002844D0012118
:101B5000684600F053FB18B19DF8000000F050F803
:101B60001E480078401C1D4908700846007804286B
:101B700030DB1B4A1B49002000F072FB1A4A1B494C
:101B8000012000F06DFB1A4A1A49022000F068FBA0
:101B900001A800F017FBD0B1BDF80400C0EBC010E5
:101BA00040F6FF7190FBF1F0C4B213481349097875
:101BB000445412480078401C1049087008460078C8
:101BC000052804DB002008700B4800F0DDFB002036
:101BD00002490870FEF7B6FD1CBD000000000020A1
:101BE000491C0008311E0008511D00084D1E000848
:101BF000C11D0008691E000802000020010000202D
:101C000030B587B0044617E001A8FFF747FC01A8EC
:101C100007C804AB07C39DF8100071280AD10DF165
:101C20001300FFF741FF05462A468021712000F08E
:101C300071FB00E000BF00BF204600F09DFF0028C0
:101C4000E2D107B030BD000010B529480078401C33
:101C500040B22749087020B1012813D0022836D19C
:101C600021E024A001F01EF8FFF710FC24490860D1
:101C7000084600682349086023A210212020FFF7AE
:101C8000A1FE25E022A001F00DF8FFF703FC1C499E
:101C90000860084600681B49086020A21021202027
:101CA000FFF790FE14E01FA000F0FCFFFFF7EAFB37
:101CB0001349086008460068124908601CA21021F8
:101CC0002020FFF77FFEFF200949087000E000BFD9
:101CD00000BF4FF07E5018490860642009494860F1
:101CE000084603C800F06EFB14A000F0DBFF10BD37
:101CF00020000020B5DAD2BBD6D6B2A8D0CE0000E4
:101D0000240000202800002053696E652100000097
:101D1000B5DAB6FED6D6B2A8D0CE0000547269218C
:101D200000000000B5DAC8FDD6D6B2A8D0CE0000BB
:101D300052656374210000001C0000204B4559319E
:101D4000205055534820444F574E0D0A00000000C4
:101D50002DE9F0410F480068FEF7F8FA06460E4AF2
:101D60000E4BFEF733FA0446FEF703FB0949086001
:101D700008460B4902680B48006800F04EFA0A4911
:101D80000860084603C800F01DFB08A000F08AFFA9
:101D9000BDE8F0811C0000209A9999999999B93F62
:101DA000DE02002024000020280000204B4559328C
:101DB000205055534820444F574E0D0A0000000054
:101DC0002DE9F0410F480068FEF7C0FA06460E4ABA
:101DD0000E4BFEF79CFA0446FEF7CBFA0949086061
:101DE00008460B4902680B48006800F016FA0A49D9
:101DF0000860084603C800F0E5FA08A000F052FFAA
:101E0000BDE8F0811C0000209A9999999999B93FF1
:101E1000DE02002024000020280000204B4559331A
:101E2000205055534820444F574E0D0A00000000E3
:101E300010B502A000F036FF10BD00004B4559312F
:101E40002052454C454153450D0A000010B502A0F3
:101E500000F028FF10BD00004B4559322052454C80
:101E6000454153450D0A000010B502A000F01AFFCD
:101E700010BD00004B4559332052454C4541534558
:101E80000D0A00000146C88808B9012070470020EB
:101E9000FCE7000001460020034A506820F440405F
:101EA00008435060704700000010024029B1064A04
:101EB00052690243044B5A6104E0034A5269824367
:101EC000014B5A61704700000010024029B1064AD8
:101ED000D2690243044BDA6104E0034AD2698243C7
:101EE000014BDA61704700000010024029B1064A38
:101EF00012690243044B1A6104E0034A12698243E7
:101F0000014B1A61704700000010024029B1064AD7
:101F100092690243044B9A6104E0034A9269824346
:101F2000014B9A61704700000010024029B1064A37
:101F3000D2680243044BDA6004E0034AD268824369
:101F4000014BDA6070470000001002400F48006843
:101F500040F001000D490860084640680C490840FF
:101F60000A494860084600680A490840074908606D
:101F70000846006820F4802008600846406820F485
:101F8000FE0048604FF41F00886070470010024058
:101F90000000FFF8FFFFF6FE30B50021002200240C
:101FA00000232D4D6D6805F00C0121B1042905D0E9
:101FB000082923D105E0294D056022E0274D056061
:101FC0001FE0254D6D6805F47012234D6D6805F412
:101FD0008034022505EB92421CB9214D5543056022
:101FE0000BE01D4D6D6805F400351DB11C4D5543CA
:101FF000056002E0194D5543056002E0174D05608C
:1020000000BF00BF144D6D6805F0F0010909154DC2
:102010006B5C0568DD4045600F4D6D6805F4E0615F
:10202000090A104D6B5C4568DD4085600A4D6D689E
:1020300005F46051C90A0B4D6B5C4568DD40C56015
:10204000054D6D6805F44041890B074D6B5CC56813
:10205000B5FBF3F5056130BD0010024000127A00B7
:1020600000093D00A4020020B402002010B5014682
:102070000022002300204A11012A02D1094C2368C2
:1020800006E0022A02D1074C236A01E0054C636A8C
:1020900001F01F02012494401C400CB1012000E01B
:1020A000002010BD001002400248406800F00C0003
:1020B000704700000010024001460020034A5068AB
:1020C00020F0F0000843506070470000001002400C
:1020D0001149096821F480310F4A116011460968DD
:1020E00021F480211160B0F5803F03D0B0F5802F3E
:1020F0000ED106E00849096841F48031064A1160B2
:1021000007E00549096841F4A021034A116000E095
:1021100000BF00BF704700000010024001460020D1
:10212000034A506820F4E0600843506070470000A4
:102130000010024001460020034A506820F460501D
:1021400040EAC10050607047001002400149086633
:10215000704700000000424202460020044B5868CD
:1021600020F47C1042EA01031843014B5860704789
:102170000010024001460020034A506820F003008E
:1021800008435060704700000010024038B500203E
:1021900000900024002500BF3120FFF767FF0546AF
:1021A0000098401C00900098B0F5A06F01D0002D61
:1021B000F2D03120FFF75AFF08B1012400E00024DB
:1021C000204638BD70B5044600250122214603484B
:1021D000FFF70FF8C5B2284670BD00008808002040
:1021E00070B504460025012221460348FEF7DFFFB3
:1021F000C5B2284670BD0000A807002070B504468F
:102200000D4600262A4621460248FEF7D0FFC6B2F8
:10221000304670BDB407002070472DE9F0470646F0
:102220000D461746002415E036F81400FEF775F841
:1022300082463946FDF798FF8146FEF773F81FFA8C
:1022400080F8B8F5805F01DB40F6FF7825F8148050
:10225000601C84B2642CE7DB2846BDE8F0870000F0
:1022600070B504460D4616462548005D4006000E32
:102270002349085524B1012C0CD0022C1ED113E0A7
:1022800002212048FFF7E5F81D49095D08431C4974
:10229000085514E004211B48FFF7DBF81849095DD5
:1022A0000843174908550AE001211748FFF7D1F8FC
:1022B0001349095D08431249085500E000BF00BFFB
:1022C0000F48005D1149095D884208D11048005D42
:1022D000012804D1B04700200D4908550EE00848F8
:1022E000005D0A49095DC943C9B2884206D1084860
:1022F000005D18B9A84701200549085570BD0000C8
:102300001000002000100140000801400A000020D9
:102310000D000020FEB504460E46154601208DF83E
:10232000000004208DF802008DF803408DF8046051
:102330008DF8055000218DF806108DF807108DF8E6
:102340000810684600F012F8FEBD000010B5044603
:10235000E1B2054800F0FFFB00BF4021024800F059
:102360002DFB0028F9D010BD0038014070B504469F
:1023700000252046FFF7B1FB0546002D03DD0A21AD
:10238000204600F077FC70BD3EB5044671208DF804
:10239000000001208DF8020020788DF8030061789C
:1023A0008DF80410A1788DF80510E1788DF80610ED
:1023B00021798DF8071000218DF808106846FFF785
:1023C000D5FF3EBD03B50248DDE9001206C00CBDD5
:1023D0004400002010B500F001F810BD0CB500203D
:1023E000019000903348006840F480303149086023
:1023F00000BF3048006800F4003000900198401C95
:102400000190009818B90198B0F5A06FF1D1294852
:10241000006800F4003010B10120009001E00020BD
:1024200000900098012843D12348006840F0100034
:10243000214908600846006820F00300086008464B
:10244000006840F0020008601A4840681949486076
:102450000846406848600846406840F4806048602C
:102460000846406820F47C1048600846406840F404
:10247000E81048600846006840F08070086000BFBF
:102480000C48006800F000700028F9D00948406846
:1024900020F00300074948600846406840F0020009
:1024A000486000BF0348406800F00C000828F9D1DC
:1024B0000CBD0000001002400020024010B500F0EA
:1024C00001FA10BD10B51348006840F00100114931
:1024D000086008464068104908400E4948600846B0
:1024E00000680E4908400B4908600846006820F45F
:1024F000802008600846406820F4FE0048604FF4E1
:102500001F008860FFF766FF4FF000600449086015
:1025100010BD0000001002400000FFF8FFFFF6FEB3
:1025200008ED00E010B50121880700F055F90128F9
:1025300003D10121800700F04BF807480088401CB8
:102540000549088008460088022804DB002008802E
:1025500001200249087010BD320000203000002028
:1025600010B50121064800F037F918B101210448DF
:1025700000F02EF80348008800F064FB10BD000056
:10258000000400403800002010B501210D4800F083
:1025900023F9012803D101210A4800F019F80A485B
:1025A0000088401C00B2084908800846B0F90000C5
:1025B000B0F57A7F04DB0020088001200349087011
:1025C00010BD0000000C004034000020310000204D
:1025D000CA430282704721B1028842F001020280A0
:1025E00004E002884FF6FE731A4002807047000034
:1025F00010B504466848844208D10121C014FFF791
:1026000095FC0021E014FFF791FCC4E0B4F1804F89
:1026100008D101210846FFF769FC00210120FFF7DE
:1026200065FCB8E05D48844208D101210220FFF733
:102630005DFC00210220FFF759FCACE058488442C1
:1026400008D101210420FFF751FC00210420FFF7ED
:102650004DFCA0E05348844208D101210820FFF737
:1026600045FC00210820FFF741FC94E04E488442DD
:1026700008D101211020FFF739FC00211020FFF7BD
:1026800035FC88E04948844208D101212020FFF729
:102690002DFC00212020FFF729FC7CE044488442E7
:1026A00008D101214014FFF741FC00216014FFF71D
:1026B0003DFC70E03F48844209D10121C804FFF786
:1026C00035FC00214FF40020FFF730FC63E03A486E
:1026D000844209D101210805FFF728FC00214FF4AD
:1026E0008010FFF723FC56E03448844209D10121D1
:1026F0004805FFF71BFC00214FF40010FFF716FC04
:1027000049E02F48844208D101214020FFF7EEFB29
:1027100000214020FFF7EAFB3DE02A48844208D12F
:1027200001218020FFF7E2FB00218020FFF7DEFB84
:1027300031E02548844208D101218015FFF7D6FBFE
:102740000021A015FFF7D2FB25E02048844209D1E3
:1027500001210804FFF7EAFB00214FF48030FFF766
:10276000E5FB18E01A48844209D101214804FFF72B
:10277000DDFB00214FF40030FFF7D8FB0BE01548DC
:10278000844208D101218804FFF7D0FB00214FF4D7
:102790008020FFF7CBFB10BD002C0140000400405F
:1027A00000080040000C00400010004000140040F1
:1027B00000340140004C01400050014000540140F1
:1027C00000180040001C0040002000400040014074
:1027D000004401400048014030B50246002000237B
:1027E0000024158A05EA0103958905EA010413B15D
:1027F0000CB1012000E0002030BD1AB183890B43E9
:10280000838102E083898B438381704782884FF6FE
:102810008F731A40828082880A438280704700004A
:10282000002202881D4B98420ED01D4B98420BD0BF
:10283000B0F1804F08D01B4B984205D01A4B9842FC
:1028400002D01A4B984204D14FF68F731A404B882E
:102850001A43174B984207D0164B984204D04FF6B4
:10286000FF431A40CB881A4302808B8883850B88EC
:1028700003850A4B98420BD0094B984208D00E4B67
:10288000984205D00D4B984202D00D4B984201D191
:102890000B7A03860123838270470000002C0140DD
:1028A000003401400004004000080040000C0040DB
:1028B000001000400014004000400140004401406E
:1028C000004801400448006820B103480068401EE9
:1028D0000149086070470000B802002008B50020D8
:1028E000009040F22551204800F075F858B125209D
:1028F000FEF748FF1C4800F029F9C0B200909DF88F
:10290000000000F0ABF90821174800F057F8012843
:1029100006D10821144800F02DF8134800F016F9EC
:1029200040F22771104800F056F8E0B140F22771EC
:102930000D4800F028F82520FEF724FF6846FFF731
:102940004FFC9DF80010084800F005F90748FFF714
:1029500099FA40B1002006490870002240F2277120
:10296000014800F062F808BD00380140A8070020C7
:102970003600002001F40072B2F5007F00D100BFE4
:10298000CA430280704710B50022002340F66A1443
:10299000A14200D100BF0A1201249440A3B2DC433B
:1029A000048010BD21B1828942F40052828104E08A
:1029B00082894DF6FF731A408281704702460020DB
:1029C000B1F5007F00D100BF13880B400BB101208F
:1029D00000E00020704770B5024600240023002567
:1029E000002040F66A16B14200D100BFC1F3421583
:1029F00001F01F03012606FA03F3012D02D1968987
:102A0000334006E0022D02D1168A334001E0968A57
:102A100033400C12012606FA04F41688344013B130
:102A20000CB1012000E0002070BDF0B50346002489
:102A300000260025002040F66A17B94200D100BFE9
:102A40001846C1F3421401F01F06012707FA06F5E4
:102A5000012C01D10C3004E0022C01D1103000E037
:102A600014301AB107682F43076002E00768AF43CC
:102A70000760F0BD2DE9F04786B005460E460024FC
:102A8000A24600BFA1460027B08900B100BF2F4673
:102A90002C8A4CF6FF700440F08804432C82AC89E9
:102AA0004EF6F3100440B088318908437189084319
:102AB0000443AC81AC8A4FF6FF400440B089044324
:102AC000AC8201A8FFF768FA1F48874202D1DDF8FF
:102AD00010A001E0DDF80CA0A88900F4004040B18E
:102AE0000AEBCA0000EB0A1031684900B0FBF1F8AC
:102AF00007E00AEBCA0000EB0A1031688900B0FB5E
:102B0000F1F86420B8FBF0F004012009642101FB16
:102B10001089A88900F4004040B1322000EBC900C0
:102B2000B0FBF1F000F00700044308E0322000EBB6
:102B300009106421B0FBF1F000F00F0004432C8178
:102B400006B0BDE8F08700000038014001468888E3
:102B5000C0F308007047C1F30802828070474FF449
:102B60001651016000218180C18001810C214181C9
:102B7000002181817047000070B5044600261B4D7E
:102B80001B48007810B3802C1CDB1A4800782C54AA
:102B900018480078401C1749087017480078401EF4
:102BA000154908700846007800281CDC1148007898
:102BB0000A2818D1284600F021F8064600200C49C2
:102BC000087010E000200A4908700CE0802C0ADA36
:102BD000092009490870012006490870034804705B
:102BE000012003490870304670BD0000D402002067
:102BF00008000020070000200900002030B5014631
:102C00000C784B78E018C4B202220BE0885C2044B8
:102C1000C4B203F00105885C65F3DF1088545B10D3
:102C2000501CC2B2092AF1DB04F07F004D7A05F096
:102C30007F05A84201D0002030BD0120FCE700BF85
:102C4000FEE7000031B50024012269460248FEF784
:102C500025FBC4B2204638BD8808002031B50024C9
:102C6000012269460248FEF7F5FAC4B2204638BD93
:102C7000B407002070B504460D4600262A462146BA
:102C80000648FEF7E7FAC6B2642E04DA0448007874
:102C900008B9FEF729FB304670BD0000A8070020E8
:102CA00036000020014A024900F013B8F52C000854
:102CB000D002002002E008C8121F08C1002AFAD181
:102CC00070477047002001E001C1121F002AFBD1AC
:102CD00070472DE9F04116460F460446002503E0F3
:102CE0003946B047641C6D1C20780028F8D128466E
:102CF000BDE8F08170B504460D46E0B2FFF726FB53
:102D0000204670BDFEF7B5FCFEF70EFC06A0FFF7EF
:102D1000C9FF0EA200210820FEF754FE03E0FEF7D3
:102D200011FFFEF706FFFAE7496E697420537973C5
:102D300074656D20686173206265656E2066696EDA
:102D400069736865642E0D0A000000004441432049
:102D500054657374000000000000000000000000D3
:102D600000000000000000003F40000000000000E4
:102D700000003000400030004000000009000BC09F
:102D80003D000BC03D00090018C024407FE02240F8
:102D900031800000180024C01B000D8032400180EB
:102DA00003801C4027401C8007400040100060004A
:102DB00000000000000000000000000000001F8074
:102DC000204040200000402020401F8000000000E4
:102DD000090006001F80060009000000040004002E
:102DE0003F800400040000000010006000000000AC
:102DF00000000000040004000400040004000000BF
:102E0000000000400000000000000000002001C0A1
:102E100006003800400000001F8020402040204075
:102E20001F800000000010403FC000400000000074
:102E300018C021402240244018400000108020404B
:102E4000244024401B80000002000D0011003FC000
:102E5000014000003C8024402440244023800000A6
:102E60001F802440244034400380000030002000B4
:102E700027C03800200000001B802440244024404C
:102E80001B8000001C0022C0224022401F80000046
:102E900000000000084000000000000000000000EA
:102EA0000460000000000000000004000A0011009F
:102EB00020804040090009000900090009000000C5
:102EC00000004040208011000A000400180020008B
:102ED00023402400180000001F8020402740294084
:102EE0001F400000004007C039000F0001C0004033
:102EF00020403FC0244024401B8000001F80204011
:102F0000204020403080000020403FC02040204032
:102F10001F80000020403FC024402E4030C00000F1
:102F200020403FC024402E00300000000F001080E1
:102F3000204022403380020020403FC004000400B3
:102F40003FC02040204020403FC0204020400000A3
:102F50000060202020203FC02000200020403FC0F3
:102F600024400B0030C0204020403FC020400040A3
:102F7000004000C03FC03C0003C03C003FC0000018
:102F800020403FC00C4023003FC020001F80204055
:102F9000204020401F80000020403FC024402400EB
:102FA000180000001F802140214020E01FA00000E9
:102FB00020403FC02440260019C0004018C02440D3
:102FC0002440224031800000300020403FC020409B
:102FD0003000000020003F80004000403F80200083
:102FE00020003E0001C0070038002000380007C064
:102FF0003C0007C038000000204039C0060039C03E
:10300000204000002000384007C038402000000069
:10301000304021C02640384020C0000000000000A1
:103020007FE0402040200000000070000C00038082
:10303000004000000000402040207FE00000000031
:1030400000002000400020000000000000100010E0
:1030500000100010001000100000000040000000F0
:1030600000000000000002800540054003C0004051
:1030700020003FC0044004400380000000000380A3
:103080000440044006400000000003800440244047
:103090003FC00040000003800540054003400000A1
:1030A000000004401FC0244024402000000002E033
:1030B000055005500650042020403FC00440040045
:1030C00003C000400000044027C000400000000092
:1030D00000100010041027E00000000020403FC056
:1030E0000140070004C00440204020403FC0004091
:1030F0000040000007C0040007C0040003C0000037
:10310000044007C00440040003C0004000000380E6
:103110000440044003800000041007F00450044001
:1031200003800000000003800440045007F00010FA
:10313000044007C0024004000400000000000640F4
:103140000540054004C00000000004001F8004404A
:1031500000400000040007800040044007C0004019
:103160000400070004C0018006000400060001C03E
:10317000070001C006000000044006C0010006C0B0
:10318000044000000410071004E001800600040061
:103190000000044005C0064004400000000000009C
:1031A00004007BE040200000000000000000FFF071
:1031B00000000000000040207BE004000000000050
:1031C000400080004000200020004000000000007F
:1031D00000000000000000000000000000000000EF
:1031E00000001FCC000C00000000000000000800E0
:1031F000300060000800300060000000022003FC86
:103200001E20022003FC1E200220000000000E18D9
:1032100011043FFF10840C78000000000F001084A0
:103220000F3800C0077818840078000000780F84F9
:1032300010C411240E9800E40084000808006800FF
:10324000700000000000000000000000000000000E
:10325000000007E0181820044002000000004002AF
:103260002004181807E0000000000000024002409F
:1032700001800FF0018002400240000000800080C9
:1032800000800FF800800080008000000001000D29
:10329000000E0000000000000000000000000080A0
:1032A0000080008000800080008000800000000C12
:1032B000000C0000000000000000000000000006FC
:1032C000001800600180060018002000000007F0D0
:1032D000080810041004080807F0000000000804A3
:1032E00008041FFC000400040000000000000E0C95
:1032F00010141024104411840E0C000000000C184F
:1033000010041104110412880C700000000000E089
:103310000320042408241FFC0024000000001F9840
:10332000108411041104108810700000000007F0D0
:1033300008881104110418880070000000001C00A7
:10334000100010FC13001C001000000000000E38DC
:1033500011441084108411440E380000000007004E
:10336000088C10441044088807F00000000000009A
:103370000000030C030C000000000000000000002F
:1033800000010106000000000000000000000080B5
:10339000014002200410080810040000022002204E
:1033A000022002200220022002200000000010045F
:1033B00008080410022001400080000000000E00F8
:1033C0001200100C106C10800F00000003E00C18AD
:1033D00013E4142417C4082807D000000004003C9C
:1033E00003C41C40074000E4001C000410041FFC40
:1033F0001104110411040E880070000003E00C1881
:1034000010041004100410081C10000010041FFC0D
:10341000100410041004080807F0000010041FFC3A
:103420001104110417C410040818000010041FFC34
:103430001104110017C010000800000003E00C1870
:103440001004100410441C780040000010041FFCFD
:1034500010840080008010841FFC10040000100401
:1034600010041FFC10041004000000000003000101
:10347000100110011FFE10001000000010041FFCBE
:10348000110403801464181C1004000010041FFCB5
:103490001004000400040004000C000010041FFCD1
:1034A0001F0000FC1F001FFC1004000010041FFC84
:1034B0000C04030000E010181FFC100007F00808BF
:1034C000100410041004080807F0000010041FFC8A
:1034D00010841080108010800F00000007F0081882
:1034E00010241024101C080A07F2000010041FFC0E
:1034F0001104110011C011300E0C000400000E1C4C
:1035000011041084108410441C38000018001000AE
:1035100010041FFC100410001800000010001FF819
:1035200010040004000410041FF8100010001E0016
:1035300011E0001C007013801C0010001FC0103C24
:1035400000E01F0000E0103C1FC000001004180C39
:10355000163401C001C01634180C100410001C00F1
:10356000130400FC13041C00100000000804101CCD
:103570001064108413041C041018000000000000E4
:1035800000007FFE400240024002000000003000C8
:103590000C0003800060001C0003000000004002DB
:1035A000400240027FFE000000000000000000001A
:1035B0002000400040004000200000000001000109
:1035C00000010001000100010001000100004000B5
:1035D00040002000000000000000000000000098F3
:1035E000012401440144014400FC000410001FFCBC
:1035F00000880104010400880070000000000070D1
:10360000008801040104010400880000000000702B
:1036100000880104010411081FFC0004000000F8E8
:10362000014401440144014400C8000000000104B9
:1036300001040FFC1104110411001800000000D651
:1036400001290129012901C90106000010041FFCFC
:10365000008401000100010400FC000400000104DA
:10366000190419FC0004000400000000000000031D
:1036700000010101190119FE0000000010041FFCE7
:103680000024004001B4010C0104000000001004FB
:1036900010041FFC0004000400000000010401FCF1
:1036A0000104010001FC0104010000FC010401FC13
:1036B000008401000100010400FC0004000000F887
:1036C000010401040104010400F80000010101FFEC
:1036D00000850104010400880070000000000070F3
:1036E000008801040104010501FF00010104010437
:1036F00001FC00840104010001800000000000CCF6
:10370000012401240124012401980000000001008B
:10371000010007F80104010400000000010001F8A5
:10372000000400040004010801FC00040100018001
:103730000170000C001001600180010001F0010C1B
:10374000003001C00030010C01F001000000010454
:10375000018C00740170018C0104000001010181E1
:103760000171000E00180160018001000000018459
:10377000010C013401440184010C00000000000030
:103780000000000001003EFC40024002000000007A
:1037900000000000FFFF00000000000000004002E9
:1037A00040023EFC0100000000000000000060003C
:1037B000800080004000400020002000DC3700082E
:1037C00000000020D40200005805000878390008E5
:1037D000D40200208C0A0000C42C000801168B8043
:1037E0003F04012B14088008182F097F09FD097870
:1037F0000AF10A670BDA0B490CB30C190D790DD4D9
:103800000D290E780EC00E020F3C0F6F0F9B0FBFDD
:103810000FDB0FEF0FFB0FFF041AEF0C1ABF141A88
:103820006F1C1C020FC0281C290ED4341810190D4F
:10383000B30C490CDA0B670BF10A780AFD58111A20
:1038400009601023087F07FF068006020687050E21
:103850000598042504B6034C03E60286022B02D623
:103860000187013F01FD12C312901264124012241D
:10387000121032041A04081A24101A641812C312FF
:10388000FD1A3F281CD6012B341810E6024C03B653
:1038900003250498040E05870502580564FF067F7A
:1038A000071AFFFC095E0221125212A412F6102B15
:1038B00048019901EB013D028F02E10233038503C8
:1038C000D70329047B04CD041E057005C205140628
:1038D0006606B8060A075C07AE071831085108A348
:1038E00008F50847099909EB093D0A8F0AE10A33EF
:1038F0000B840BD60B280C7A0CCC0C1E0D700DC251
:103900000D140E660EB70E090F5B0FAD661AAD08EB
:103910001C090FB7141C140EC2201C1E0DCC2C1C2D
:10392000280CD6381C330BE1441C3D0AEB501C47D5
:1039300009F55C1351081B08AE6C1C0A07B8781C0B
:103940001406C2841C1E05CD901C2904D79C1C3370
:1039500003E1A81C3D02EBB41C4801F6C052522DF5
:10396000010203040450090607080902040608843A
:08397000A24A04691C41000099
:0400000508000131BD
:00000001FF
