:020000040800F2
:1000000028050020450100080509000859070008D7
:10001000010900088D010008F71400080000000025
:10002000000000000000000000000000C10D0008FA
:10003000CD04000800000000A50900089D0F00087D
:100040005F0100085F0100085F0100085F01000810
:100050005F0100085F0100085F0100085F01000800
:100060005F0100085F0100085F0100085F010008F0
:100070005F0100085F0100085F0100085F010008E0
:100080005F0100085F0100085F0100085F010008D0
:100090005F0100085F0100085F0100085F010008C0
:1000A0005F0100085F0100085F0100085F010008B0
:1000B000051000085F0100085F0100085F010008EB
:1000C0005F0100085F0100085F0100085F01000890
:1000D0005F0100085D1200085F0100085F01000871
:1000E0005F0100085F0100085F0100085F01000870
:1000F0005F0100085F0100085F0100085F01000860
:100100005F0100085F010008411000085F0100085E
:100110005F0100085F0100085F0100085F0100083F
:100120005F0100085F0100085F0100085F0100082F
:10013000DFF80CD000F018F80048004775150008EB
:10014000280500200648804706480047FEE7FEE7EE
:10015000FEE7FEE7FEE7FEE7FEE7FEE7FEE7FEE777
:10016000A50F000831010008064C074D06E0E068C5
:1001700040F0010394E8070098471034AC42F6D3EE
:10018000FFF7DAFFBC150008DC15000800BFFEE72A
:1001900000200149087070470B0000200020014931
:1001A000087070470A00002008B50121042000F003
:1001B000ADFC0121102000F0A9FC0220ADF80000E8
:1001C00048208DF8030069460B4800F0DBF9042055
:1001D000ADF8000048208DF803006946064800F09D
:1001E000D1F90120ADF8000048208DF803006946E0
:1001F000024800F0C7F908BD0010014000080140A6
:1002000010B54FF4A06000F0C3FB10BD10B500F0B6
:100210008DFC4FF4803000F04BFD00F0A7FD04464C
:10022000012C24D1102000F093F9022000F09EF957
:10023000002000F031FD002000F06CFDA00200F075
:100240005DFD4FF4E011200400F076FD012000F088
:100250006DFD00BF392000F0F9FC0028FAD0022023
:1002600000F078FD00BF00F00FFD0828FBD110BDA5
:100270007FB505460C460121084600F037FCADF875
:100280000850ADF804400020ADF80A00ADF80600B3
:1002900001A94FF0804000F083FF01221146900732
:1002A00000F012FF1C208DF8000000208DF80100E6
:1002B00003208DF8020001208DF80300684600F04D
:1002C0002FFB0121880700F0E2FE7FBD30B589B029
:1002D00005460C460121022000F008FC01210820FF
:1002E00000F014FC0121084600F010FC01211A481E
:1002F00000F0D4F92020ADF8200018208DF823005C
:1003000003208DF8220008A9144800F03BF9ADF84D
:100310001850ADF814400020ADF81A00ADF81600E2
:1003200005A90F4800F03CFF7020ADF80400012043
:10033000ADF806000220ADF80C0001A9084800F055
:10034000CDFE0821064800F01BFF0121044800F003
:100350009EFE09B030BD000000081A00000C0140EC
:10036000000400407FB505460C460121082000F03E
:10037000BDFBADF80850ADF804400020ADF80A0010
:10038000ADF8060001A90E4800F00AFF012211464F
:100390000B4800F099FE32208DF8000000208DF807
:1003A000010003208DF8020001208DF8030068464B
:1003B00000F0B6FA0121024800F069FE7FBD00009E
:1003C000000C004010B586B004460121880300F0FF
:1003D0009DFB0121042000F099FB4FF40070ADF863
:1003E000140018208DF8170003208DF8160005A9B9
:1003F000224800F0C7F84FF48060ADF814000420E4
:100400008DF8170005A91D4800F0BCF801A801F0FF
:1004100066F801940020ADF80800ADF80A00ADF8C8
:100420000C000C20ADF80E000020ADF8100001A962
:10043000134800F0DFFF25208DF8000001208DF823
:1004400001008DF802008DF80300684600F068FA9C
:10045000012240F225510A4800F0A7FF012240F294
:100460002771074800F0A1FF0121054800F05AFF5D
:1004700000200449087006B010BD000000080140CB
:10048000003801401000002030B50346002016E07F
:10049000B3F900509C68645D0C541C88641C24B241
:1004A0001C80B3F90040B3F90450AC4201DB0024D6
:1004B0001C80441C20B2DC88641E24B2DC80B3F9AA
:1004C0000640002C01DD9042E2DB30BD70470000A9
:1004D00010B50B48B0F90000002803DC00200849E3
:1004E000088005E006480088323800B204490880D8
:1004F0000348008881B2034800F04FFE10BD0000A1
:10050000120000200004004070B50346002016E0F1
:100510000C5CB3F902609D68AC555C88641C24B225
:100520005C80B3F90240B3F90450AC4201DB002413
:100530005C80441C20B2DC88641C24B2DC80B3F9EB
:100540000640B3F90450AC4201DA9042E0DB70BDE2
:100550000549096821F01001034A11601146096834
:100560000143116070470000002002400146002056
:10057000034A106800F0380008431060704700001C
:10058000002002402DE9F04102460025002600200F
:1005900000230024002791F803C00CF00F0591F808
:1005A00003C00CF0100CBCF1000F03D091F802C096
:1005B0004CEA050591F800C0BCF1000F31D0146879
:1005C00000202BE04FF0010C0CFA00F3B1F800C052
:1005D0000CEA03069E4220D183004FF00F0C0CFA68
:1005E00003F7BC4305FA03FC4CEA040491F803C08A
:1005F000BCF1280F06D14FF0010C0CFA00FCC2F838
:1006000014C00AE091F803C0BCF1480F05D14FF0C7
:10061000010C0CFA00FCC2F810C0401C0828D1D311
:100620001460B1F800C0BCF1FF0F34DD5468002045
:100630002EE000F1080C4FF0010808FA0CF3B1F8B5
:1006400000C00CEA03069E4221D183004FF00F0C3C
:100650000CFA03F7BC4305FA03FC4CEA040491F8D6
:1006600003C0BCF1280F05D100F1080C08FA0CF802
:10067000C2F8148091F803C0BCF1480F07D100F113
:10068000080C4FF0010808FA0CF8C2F81080401C62
:100690000828CED35460BDE8F0810000F0B50A46CA
:1006A000002300240021002500F00046B6F1004F91
:1006B00002D11D4EF16901E01B4E7168C0F3034584
:1006C00083B200F44016B6F5401F08D121F07061E6
:1006D000154E766826F07066134F7E6012E000F4C7
:1006E0008016B6F5801F06D1032606FA05F4A1434D
:1006F00041F0706106E0460D360103FA06F6B1439B
:1007000041F0706122B1460D360103FA06F631431D
:1007100000F00046B6F1004F02D1034EF16101E056
:10072000014E7160F0BD0000000001400246002053
:1007300093680B400BB1012000E0002070470000DF
:1007400001480078704700000B0000200148007845
:10075000704700000A00002000BFFEE710B50C48FB
:10076000B0F90000B0F5167F04DB4FF416700849AD
:10077000088005E006480088323000B2044908804D
:100780000348008881B2034800F007FD10BD000057
:10079000120000200004004010B500F003FC00F03F
:1007A00042F800F01BF84FF4E13000F081F800F05F
:1007B00073F800F03DF800F005F800F021F800F0C3
:1007C00011F810BD10B5FFF7EFFC002002490870CA
:1007D0004870887010BD00000100002010B5FFF7C0
:1007E0000FFD10BD10B540F2E73140F25720FFF782
:1007F0006DFD0021014800F0D0FC10BD0004004058
:10080000704730B50B460024048044808280C48049
:100810008360002104E0002485686C544C1C21B2E4
:100820009142F8DB30BD10B5FFF7F0FC10BD70470A
:1008300030B5164800684FF47A72B0FBF2F1B1F1AE
:10084000807F01D301201DE021F07F40401E4FF04A
:10085000E022506150170F22002807DA13071D0EFF
:100860000B4B00F00F04241F1D5503E013071C0E53
:10087000084B1C5400BF00204FF0E022906107207D
:100880001061002008B100BFFEE730BD2C00002041
:1008900018ED00E000E400E010B5472140F2E73039
:1008A000FFF7E6FC472140F2E730FFF75BFD10BDA4
:1008B00010B5044600F004F82046FFF783FD10BD94
:1008C00010B5002406E000200949085509490855DB
:1008D000601C04B2642CF6DB642205490648FFF76D
:1008E00090FF642203490548FFF78BFF10BD00000D
:1008F0005C000020C00000204400002050000020C8
:1009000000BFFEE77047000000F01F020121914088
:10091000024A430942F823107047000080E200E0D9
:1009200070B5002100230F22C47804B3154C24684D
:1009300004F4E064C4F5E064210AC1F10403CA4090
:10094000447804FA03F184781440214309010E4CE1
:100950000678A155047804F01F050124AC40057801
:100960006D11AD0005F1E025C5F8004109E00478FE
:1009700004F01F050124AC40044D0678761145F8BB
:10098000264070BD0CED00E000E400E080E100E0F6
:1009900002490143024A1160704700000000FA0555
:1009A0000CED00E0704710B5FFF7CAFE08B1FFF785
:1009B000EFFB10BD10B5FFF7C9FEE8B10F48007896
:1009C000042812DB0E4A0F49002000F0FBF90E4A02
:1009D0000E49012000F0F6F90D4A0E49022000F000
:1009E000F1F900200549087004E004480078401C33
:1009F00002490870FFF7D2FB10BD00000000002084
:100A0000190A0008890A00083D0A0008A50A00081A
:100A1000650A0008C10A000810B5FFF79FFE02A092
:100A200000F078FD10BD00004B4559312050555362
:100A30004820444F574E0D0A0000000010B54FF4F7
:100A4000967000F029FA02A000F064FD10BD0000CD
:100A50004B455932205055534820444F574E0D0AAC
:100A60000000000010B5FFF733FD02A000F052FDBA
:100A700010BD00004B455933205055534820444F7A
:100A8000574E0D0A0000000010B502A000F042FD14
:100A900010BD00004B4559312052454C454153454E
:100AA0000D0A000010B502A000F034FD10BD0000DA
:100AB0004B4559322052454C454153450D0A0000E3
:100AC00010B502A000F026FD10BD00004B455933C3
:100AD0002052454C454153450D0A00000146C88847
:100AE00008B9012070470020FCE7000029B1064A40
:100AF000D2690243044BDA6104E0034AD2698243BB
:100B0000014BDA61704700000010024029B1064A2B
:100B100092690243044B9A6104E0034A926982435A
:100B2000014B9A6170470000001002400F480068B6
:100B300040F001000D490860084640680C49084033
:100B40000A494860084600680A49084007490860A1
:100B50000846006820F4802008600846406820F4B9
:100B6000FE0048604FF41F0088607047001002408C
:100B70000000FFF8FFFFF6FE30B500210022002440
:100B800000232D4D6D6805F00C0121B1042905D01D
:100B9000082923D105E0294D056022E0274D056095
:100BA0001FE0254D6D6805F47012234D6D6805F446
:100BB0008034022505EB92421CB9214D5543056056
:100BC0000BE01D4D6D6805F400351DB11C4D5543FE
:100BD000056002E0194D5543056002E0174D0560C0
:100BE00000BF00BF144D6D6805F0F0010909154DF7
:100BF0006B5C0568DD4045600F4D6D6805F4E06194
:100C0000090A104D6B5C4568DD4085600A4D6D68D2
:100C100005F46051C90A0B4D6B5C4568DD40C56049
:100C2000054D6D6805F44041890B074D6B5CC56847
:100C3000B5FBF3F5056130BD0010024000127A00EB
:100C400000093D00140000202400002010B50146DA
:100C50000022002300204A11012A02D1094C2368F6
:100C600006E0022A02D1074C236A01E0054C636AC0
:100C700001F01F02012494401C400CB1012000E04F
:100C8000002010BD001002400248406800F00C0037
:100C9000704700000010024001460020034A5068DF
:100CA00020F0F00008435060704700000010024040
:100CB0001149096821F480310F4A11601146096811
:100CC00021F480211160B0F5803F03D0B0F5802F72
:100CD0000ED106E00849096841F48031064A1160E6
:100CE00007E00549096841F4A021034A116000E0CA
:100CF00000BF00BF70470000001002400146002006
:100D0000034A506820F4E0600843506070470000D8
:100D10000010024001460020034A506820F4605051
:100D200040EAC10050607047001002400149086667
:100D3000704700000000424202460020044B586801
:100D400020F47C1042EA01031843014B58607047BD
:100D50000010024001460020034A506820F00300C2
:100D600008435060704700000010024038B5002072
:100D700000900024002500BF3120FFF767FF0546E3
:100D80000098401C00900098B0F5A06F01D0002D95
:100D9000F2D03120FFF75AFF08B1012400E000240F
:100DA000204638BD70B5044600250122214603487F
:100DB000FFF76AFBC5B2284670BD00004400002062
:100DC0007047000070B504460D4616462548005D84
:100DD0004006000E2349085524B1012C0CD0022CEA
:100DE0001ED113E002212048FFF7A0FC1D49095D38
:100DF00008431C49085514E004211B48FFF796FCE2
:100E00001849095D0843174908550AE001211748A8
:100E1000FFF78CFC1349095D08431249085500E0AF
:100E200000BF00BF0F48005D1149095D884208D12D
:100E30001048005D012804D1B04700200D49085535
:100E40000EE00848005D0A49095DC943C9B28842FD
:100E500006D10848005D18B9A84701200549085582
:100E600070BD000004000020001001400008014097
:100E7000010000200700002010B50446E1B205483B
:100E800000F029FB00BF4021024800F057FA00287B
:100E9000F9D010BD0038014010B504460348048065
:100EA000008881B2024800F078F910BD12000020DD
:100EB0000004004010B500F001F810BD0CB5002092
:100EC000019000903348006840F480303149086058
:100ED00000BF3048006800F4003000900198401CCA
:100EE0000190009818B90198B0F5A06FF1D1294888
:100EF000006800F4003010B10120009001E00020F3
:100F000000900098012843D12348006840F0100069
:100F1000214908600846006820F003000860084680
:100F2000006840F0020008601A48406819494860AB
:100F30000846406848600846406840F48060486061
:100F40000846406820F47C1048600846406840F439
:100F5000E81048600846006840F08070086000BFF4
:100F60000C48006800F000700028F9D0094840687B
:100F700020F00300074948600846406840F002003E
:100F8000486000BF0348406800F00C000828F9D111
:100F90000CBD0000001002400020024010B500F01F
:100FA00051F910BD10B51348006840F00100114917
:100FB000086008464068104908400E4948600846E5
:100FC00000680E4908400B4908600846006820F494
:100FD000802008600846406820F4FE0048604FF416
:100FE0001F008860FFF766FF4FF00060044908604B
:100FF00010BD0000001002400000FFF8FFFFF6FEE9
:1010000008ED00E010B50121880700F04CF8012838
:1010100003D10121800700F037F807480088401C01
:101020000549088008460088022804DB0020088063
:1010300001200249087010BD0C0000200A000020A9
:1010400010B501210D4800F02EF8012803D101212F
:101050000A4800F019F80A480088401C00B2084904
:1010600008800846B0F90000B0F57A7F04DB002064
:10107000088001200349087010BD0000000C0040EA
:101080000E0000200B000020CA430282704721B1ED
:10109000028842F00102028004E002884FF6FE73EB
:1010A0001A400280704730B5024600200023002419
:1010B000158A05EA0103958905EA010413B10CB10B
:1010C000012000E0002030BD1AB183890B438381E9
:1010D00002E083898B4383817047000070B5002450
:1010E00000220023058C4FF6EF7635400584028CF4
:1010F0008388048B48F6FF752C404FF6FF452C4043
:101100000D884FF6FF7606EA05252C434FF6DF756E
:101110002A400D8906EA05152A434D8806EA051579
:101120002A43154DA84202D0144DA8421DD14FF6B6
:101130007F752A404D894FF6FF7606EA05152A434A
:101140004FF6BF752A408D8806EA05152A434FF6EB
:10115000FF352B404FF2FF752B408D8906EA850540
:101160002B43CD8906EA85052B4383800483CD88F4
:101170000587028470BD0000002C0140003401404E
:101180000A460021018B4FF2FF7319404FF6FF739F
:1011900003EA022319430183704701877047000067
:1011A000002202881D4B98420ED01D4B98420BD056
:1011B000B0F1804F08D01B4B984205D01A4B984293
:1011C00002D01A4B984204D14FF68F731A404B88C5
:1011D0001A43174B984207D0164B984204D04FF64B
:1011E000FF431A40CB881A4302808B8883850B8883
:1011F00003850A4B98420BD0094B984208D00E4BFE
:10120000984205D00D4B984202D00D4B984201D127
:101210000B7A03860123838270470000002C014073
:10122000003401400004004000080040000C004071
:101230000010004000140040004001400044014004
:10124000004801400448006820B103480068401E7F
:1012500001490860704700002800002008B5002000
:10126000009040F22551204800F075F858B1252033
:10127000FFF74AFB1C4800F029F9C0B200909DF826
:10128000000000F03BF90821174800F057F801284A
:1012900006D10821144800F02DF8134800F016F983
:1012A00040F22771104800F056F8E0B140F2277183
:1012B0000D4800F028F82520FFF726FB6846FFF7C9
:1012C00071FD9DF80010084800F005F90748FFF788
:1012D00005FC40B1002006490870002240F2277149
:1012E000014800F062F808BD0038014044000020C9
:1012F0001000002001F40072B2F5007F00D100BFA1
:10130000CA430280704710B50022002340F66A14D9
:10131000A14200D100BF0A1201249440A3B2DC43D1
:10132000048010BD21B1828942F40052828104E020
:1013300082894DF6FF731A40828170470246002071
:10134000B1F5007F00D100BF13880B400BB1012025
:1013500000E00020704770B50246002400230025FD
:10136000002040F66A16B14200D100BFC1F3421519
:1013700001F01F03012606FA03F3012D02D196891D
:10138000334006E0022D02D1168A334001E0968AEE
:1013900033400C12012606FA04F41688344013B1C7
:1013A0000CB1012000E0002070BDF0B50346002420
:1013B00000260025002040F66A17B94200D100BF80
:1013C0001846C1F3421401F01F06012707FA06F57B
:1013D000012C01D10C3004E0022C01D1103000E0CE
:1013E00014301AB107682F43076002E00768AF4363
:1013F0000760F0BD2DE9F04786B005460E46002493
:10140000A24600BFA1460027B08900B100BF2F4609
:101410002C8A4CF6FF700440F08804432C82AC897F
:101420004EF6F3100440B0883189084371890843AF
:101430000443AC81AC8A4FF6FF400440B0890443BA
:10144000AC8201A8FFF798FB1F48874202D1DDF864
:1014500010A001E0DDF80CA0A88900F4004040B124
:101460000AEBCA0000EB0A1031684900B0FBF1F842
:1014700007E00AEBCA0000EB0A1031688900B0FBF4
:10148000F1F86420B8FBF0F004012009642101FBAD
:101490001089A88900F4004040B1322000EBC90057
:1014A000B0FBF1F000F00700044308E0322000EB4D
:1014B00009106421B0FBF1F000F00F0004432C810F
:1014C00006B0BDE8F087000000380140014688887A
:1014D000C0F308007047C1F30802828070474FF4E0
:1014E0001651016000218180C18001810C21418160
:1014F00000218181704700BFFEE7000031B5002464
:10150000012269460248FEF7FFFFC4B2204638BDFB
:1015100050000020014A024900F013B86515000888
:101520004000002002E008C8121F08C1002AFAD1BA
:1015300070477047002001E001C1121F002AFBD153
:1015400070472DE9F04116460F460446002503E09A
:101550003946B047641C6D1C20780028F8D1284615
:10156000BDE8F08170B504460D46E0B2FFF784FC9B
:10157000204670BDFFF75BF9FFF70EF906A0FFF7F5
:10158000C9FF4FF49670FFF787FC03E0FFF712FAEC
:10159000FFF709FAFAE70000496E6974205379737E
:1015A00074656D20686173206265656E2066696E82
:1015B00069736865642E0D0A00000000DC150008E0
:1015C0000000002044000000241500082016000838
:1015D00044000020E404000034150008000000006E
:1015E00000000000000000000000000000000000FB
:1015F00000000000010203040102030406070809B9
:10160000020406080000000000A24A0400000000D6
:1016100000000000010203040607080900000000A2
:0400000508000131BD
:00000001FF
